:020000040800F2
:10000000583800206D1D01082B5E0008375E00087F
:10001000435E00084F5E00085B5E000800000000C1
:10002000000000000000000000000000253700086C
:10003000635E000800000000CD36000821FC0008C7
:10004000451F0108491F01084D1F0108855E000872
:10005000511F0108551F0108E95F0008F35F000800
:10006000FD5F00080760000811600008591F0108C3
:100070005D1F0108611F0108255F00082F5F000850
:10008000395F0008435F0008651F0108A35E000890
:10009000AD5E0008B75E0008C15E00081B60000886
:1000A000691F01086D1F0108711F0108751F0108F4
:1000B000715E00080000000000000000CB5E000838
:1000C000D55E0008791F01087D1F0108115F000837
:1000D0001B5F0008FD5E0008075F0008811F010824
:1000E000276000087B5E00080000000000000000A0
:1000F0000000000000000000000000000000000000
:1001000000000000851F010800000000891F010891
:1001100000000000000000008D1F0108911F010871
:10012000951F0108991F01089D1F0108A11F0108C3
:10013000A51F0108000000000000000000000000F2
:10014000A91F01088F5E0008AD1F0108995E000815
:100150004D5F0008575F0008F35E0008B11F0108FB
:10016000DF5E0008E95E0008B51F0108000000001E
:10017000B91F0108BD1F0108C11F010800000000D0
:10018000C51F0108C91F0108CD1F0108000000009C
:100190000000000000002440000000000000594062
:1001A000000000000088C3400000000084D7974191
:1001B0000080E03779C34143176E05B5B5B8934663
:1001C000F5F93FE9034F384D321D30F94877825A2F
:1001D0003CBF737FDD4F15757561727400000000C0
:1001E0002A2A2A2A2A0A00000A2A2A2A2A2A0A004D
:1001F00072657374617274006D656D00706F776500
:1002000072000000626F6F746C6F61646572000051
:100210007A786300626F6F740000000052414D20D5
:100220002020706879736963616C3A20256C750AC7
:100230000000000052414D2061742073746172749B
:1002400075703A20256C750A0000000052414D205F
:10025000202020202020667265653A20256C750AD2
:1002600000000000504F5745523A2025730A000005
:10027000756E7265636F676E697A656420636F6D12
:100280006D616E640A000000F001000800000000CB
:10029000F801000802000000FC0100080100000055
:1002A0000402000803000000100200080300000020
:1002B0000000000000000000433A5C557365727353
:1002C0005C726F7A7A69655C6465765C6379676E87
:1002D00065745C53797374656D5C476C6F62616CB7
:1002E0005C676572722E6300696E76616C6964206A
:1002F0006572726F7220636F646500006572726F61
:1003000072207461626C6520636F727275707469BB
:100310006F6E0000616E20756E6B6E6F776E20657C
:1003200072726F72206F63637572726564202868E1
:10033000696768206572726F722072617465290046
:100340007B22657272223A220000000063616E6EA9
:100350006F7420616C6C6F6361746520256420622A
:1003600079746573207B6D656D6F72797D00000017
:1003700062616420706172616D73000008000000AA
:10038000524E47200000000041444331200000004D
:1003900043414E31200000004C5055415254312011
:1003A0000000000055534152543120005553415232
:1003B0005432200049324331200000004932433397
:1003C00020000000535049312000000053504932B2
:1003D0002000000075617274000000002A2A2A2A99
:1003E0002A2A2A2A2A2A2A2A2A2A2A2A2A2A2A2A6D
:1003F0002A2A0A0025732055544320282564290AF7
:100400000000000052414D3A20256C75206672654F
:1004100065206F6620256C752028256425252075AC
:10042000736564290A000000524F4D3A20256C750F
:100430002066726565206F66203235364B42202873
:10044000256425252075736564290A007265717518
:100450006573740063616E277420616C6C6F6361F7
:10046000746520696E6974206D757465780000008C
:1004700063616E277420616C6C6F63617465206DBD
:1004800075746578000000002A2A2A206D7574654D
:10049000784C6F636B206E657374656421202573DF
:1004A0003A25750A000000002A2A2A2025732030E8
:1004B00078253031366C6C78206D757465782061E4
:1004C0006C7265616479206163717569726564201D
:1004D000283078253031366C6C78292025733A2500
:1004E000750A00002A2A2A202573206D7574657804
:1004F000206F72646572696E67202877616E742060
:100500003078253031366C6C78207768696C6520DE
:10051000686F6C64696E67203078253031366C6C9A
:1005200078292025733A25750A0000002A2A2A20F6
:100530006D75746578556E6C6F636B206F66207592
:100540006E6C6F636B6564206D7574657821202017
:1005500025733A25750A00002A2A2A206D757465CC
:1005600078556E6C6F636B206F66206D757465785F
:10057000206F776E656420627920616E6F746865A4
:1005800072207461736B2120286375723A25642090
:100590006F776E65723A256429202025733A257598
:1005A0000A0000006E756C6C0000000025312E31D1
:1005B0003567000025312E313767000066616C73A6
:1005C0006500000074727565000000008000000086
:1005D000F0E300E02B434D45204552524F523A2064
:1005E0006E6F742061206D6F64656D0022636D64B1
:1005F000223A00004A534F4E206F626A65637420AE
:100600006578706563746564207B696F7D000000A8
:100610006E6F2072657175657374207479706520D2
:1006200073706563696669656400000063616E27C5
:100630007420616C6C6F6320726573706F6E73658C
:1006400000000000766572626F7365006563686F15
:1006500000000000756E7265636F676E697A65648D
:1006600020726571756573743A202573000000006F
:10067000726571756573740072657374617274006C
:10068000626F6F74000000004C5055415254310AA3
:10069000000000005553415254310A005553415255
:1006A00054320A00433A5C55736572735C726F7A18
:1006B0007A69655C6465765C6379676E65745C41D4
:1006C00070705C73657269616C2E6300811D010836
:1006D000911D0108991D01081F1E01087D1D0108BB
:1006E0007F1D010800000000000000000000000065
:1006F00000000000000000000000000000000000FA
:1007000000000000010203040607080900000000C1
:1007100001020304A0860100400D0300801A0600B8
:1007200000350C0040420F0080841E0000093D008F
:1007300000127A000024F40000366E010048E8013F
:10074000006CDC027461736B206E6F7420666F75D1
:100750006E6400007461736B20737461636B733A31
:100760000A0000002020253132733A20256C752FB5
:10077000256C752025302E326625252072656D6129
:10078000696E696E670A00002A2A2A2A2A2A2A2AFA
:100790002A2A2A2A2A2A2A2A2A2A2A2A2A2A2A2AB9
:1007A0002A2A2A2A2A2A2A2A2A2A2A2A2A2A2A2AA9
:1007B0002A2A2A2A2A2A2A2A2A2A2A2A2A0A00000D
:1007C0002A2A2A2A2A204E45415220535441434B7B
:1007D000204F564552464C4F572121210A00000018
:1007E00049444C450000000028746F6F20736D6110
:1007F0006C6C290028756E696E697469616C697A20
:1008000065642900433A5C55736572735C726F7A54
:100810007A69655C6465765C6379676E65745C5360
:10082000797374656D5C476C6F62616C5C74696D43
:1008300065722E63000000003B30000800000000DD
:1008400075300008BF300008E3300008F1300008C0
:10085000F7300008093100081F3100082531000871
:1008600043310008D3310008F3310008E3310008B8
:100870000132000885310008546D72205376630000
:10088000546D7251000000006C70756172743120FB
:10089000696F62756600000075736172743120695A
:1008A0006F627566000000007573617274322069B2
:1008B0006F6275660000000000002115110E0D0C1E
:1008C0000B0B0A0A09090909090808080808080899
:1008D00007070707070707070707070707000000BD
:1008E00030313233343536373839616263646566A6
:1008F0006768696A6B6C6D6E6F7071727374757610
:100900007778797A000000007363616E665F733AEE
:10091000206261642025632C2025732C206F7220B7
:10092000255B20617267756D656E74007363616E1F
:10093000665F733A2062616420666C6F6174696EF1
:10094000672D706F696E7420617267756D656E7466
:100950000000000000004129211C1917161514136E
:1009600012121111111010100F0F0F0F0E0E0E0E8C
:100970000E0E0E0D0D0D0D0D0D0000003031323339
:100980003435363738396162636465666768696A29
:100990006B6C6D6E6F707172737475767778797A2F
:1009A00000000000E0B500200190372000900023F7
:1009B0004FF4FA725449554800F0FDF807BD10B5E0
:1009C0000400A0040CD54FF40051514801F0C6FAC0
:1009D000002801D1012000E00020C0B201F0EAFAB5
:1009E00010BD10B5040001F00DFB4A4AC2E9000138
:1009F00049488068804710BD704770B5060001F017
:100A000001FB444AD2E90045041B71EB0505D2E91C
:100A10000001002901D1002813D0002D11DB01DCD9
:100A2000022C0ED300200021C2E900012100491E42
:100A30004FF47A7041434FF47A70B1FBF0F000F05C
:100A400011FB3548C068804770BD2DE9F04F85B077
:100A5000142400256E462A002100300001F0D4FB4A
:100A600003200190002002904FF480400090284E17
:100A70006946300001F0DEF84FF4005000906946FE
:100A8000300001F0D7F8102000906946300001F0E6
:100A9000D1F84FF4007000906946300001F0CAF8B8
:100AA00014275FF00008E94642463900484601F045
:100AB000ABFB0120019000200290002003904FF436
:100AC000807000906946300001F0B4F800224FF4C5
:100AD0008071300001F04DFA5FF014095FF0000AF8
:100AE000EB4652464946584601F08EFB03200190E2
:100AF000002002904FF4004000906946300001F061
:100B000099F805B0BDE8F08FD8010008711B010805
:100B10000004004830320020CC0600082DE9F847D8
:100B200085B006000F00904699460F9C109D002C42
:100B300007D1502080F31188BFF34F8FBFF36F8F21
:100B4000FEE7002D07D1502080F31188BFF34F8FAF
:100B5000BFF36F8FFEE75C20009000985C2807D001
:100B6000502080F31188BFF34F8FBFF36F8FFEE7E4
:100B70000098002D19D0002C17D0AA46CAF8304092
:100B800002208AF8590000200390CDF808A004A89C
:100B900001900E9800904B4642463900300000F01C
:100BA00043F8504600F0B3F801E0002004900498A8
:100BB00006B0BDE8F0872DE9F84384B006000F00C9
:100BC00090469946404680B2800001F051FB0500F6
:100BD000002D0BD05C2001F04BFB0400002C01D059
:100BE000256304E0280001F0D7FB00E00024002C7E
:100BF00015D0002084F859000020039002940D982D
:100C000001900C9800904B46424692B23900300059
:100C100000F00AF8200000F07AF8012001E05FF00F
:100C2000FF3005B0BDE8F0832DE9F94F81B00C002D
:100C300016000C9F0D9DDDF83880B00000905FF02D
:100C4000A50BD8F830A05A460099504601F0DCFABE
:100C5000D8F8300000EB8600B0F1040A5FEADA0A47
:100C60005FEACA0A1AF00700002807D0502080F374
:100C70001188BFF34F8FBFF36F8FFEE7002C15D0A5
:100C800000208146B9F1100F0CD214F8090008EBCE
:100C9000090181F8340014F80900002802D019F184
:100CA0000109EFE7002088F8430002E0002088F8FF
:100CB0003400382F01D337200700C8F82C70C8F84B
:100CC0004C700020C8F8500018F1040001F027FC17
:100CD00018F1180001F023FCC8F81080D7F1380093
:100CE000C8F81800C8F824800020C8F85400002074
:100CF00088F85800029A0199504601F04FFCC8F854
:100D00000000002D01D0C5F80080BDE8F78F38B590
:100D1000040001F0D3FCDFF848130868401C0860A9
:100D2000DFF8F8532868002806D12C6008680128ED
:100D30000DD100F0F5FB0AE0DFF8E40300680028BD
:100D400005D1E06A2968C96A884200D32C60DFF8BF
:100D5000D4030168491C016000686064DFF8C803BF
:100D60000168E26A914201D2E16A0160211DDFF867
:100D7000BC23E36A1420434302EB030001F0D2FBDF
:100D800001F0B6FCDFF89803006800280DD0286851
:100D9000C06AE16A884208D25FF08050DFF8A81488
:100DA0000860BFF34F8FBFF36F8F31BD38B50500BB
:100DB0000024002D15D0DFF87C030068002807D040
:100DC000502080F31188BFF34F8FBFF36F8FFEE782
:100DD00000F0A6F80021280000F0D0FE00F0C9F8CD
:100DE0000400002C08D15FF08050DFF85C1408602C
:100DF000BFF34F8FBFF36F8F31BD2DE9F041060078
:100E00003500002D07D1502080F31188BFF34F8F9C
:100E1000BFF36F8FFEE7DFF804030068854201D15E
:100E200000202DE001F04AFC68690400DFF8D004DE
:100E300000680700DFF8CC040068804601F058FC29
:100E4000BC4201D0444501D1022019E0DFF8B804CA
:100E500084420CD1A86A002807D195F858000128CF
:100E600001D102200CE003200AE0022008E0DFF8B4
:100E7000C002844201D0002C01D1042000E00120F6
:100E8000C0B2BDE8F08110B586B00020049000200B
:100E9000039005AA03A904A801F094FCDFF8184701
:100EA0000498029003980190002000900023059A76
:100EB000DFF808170FF2C950FFF730FE20602068F6
:100EC000002801D0012400E00024012C02D101F00F
:100ED00085FC0400012C16D1502080F31188BFF34B
:100EE0004F8FBFF36F8F5FF0FF30DFF8D4160860CD
:100EF0000120DFF82C1208600020DFF85013086092
:100F000001F075FB0AE014F1010F07D1502080F3C6
:100F10001188BFF34F8FBFF36F8FFEE706B010BD90
:100F2000DFF810020168491C016070470021DFF8FA
:100F3000F8010068002801D001200100DFF8DC0181
:100F40000068C06A002801D0002011E0DFF8DC0151
:100F50000068022801D300200AE0002901D0002007
:100F600006E0DFF85C060268DFF8E0020068101AAD
:100F70007047F8B500250026DFF8B8412068002842
:100F800007D1502080F31188BFF34F8FBFF36F8FCD
:100F9000FEE701F093FB2068401E206020680028D7
:100FA00056D12F480068002852D0DFF8081608688C
:100FB000002827D0C868C068050015F1180001F0A6
:100FC000D8FA281D01F0D5FADFF85C010168EA6A59
:100FD000914201D2E96A0160291DDFF85021EB6AD4
:100FE0001420434302EB030001F09CFAE86ADFF8A7
:100FF0002C110968C96A8842D7D30120DFF80C1781
:101000000860D2E7002D01D000F056FBDFF81C7815
:101010003C68002C0CD000F08FF8002803D0012091
:10102000DFF8E8160860641E002CF4D10020386058
:10103000DFF8D806006800280AD0012006005FF01B
:101040008050DFF804120860BFF34F8FBFF36F8F3B
:1010500001F04EFB3000F2BDDFF8F0010068704790
:1010600020330020F0B50400DFF854552868774E8F
:1010700031686118884207D2502080F31188BFF38D
:101080004F8FBFF36F8FFEE7A646DFF8F0C8DCE9AD
:10109000000110EB0E0E00200021CCE90001BEF192
:1010A000020F08D3DFF8D828D2E90001401C71F103
:1010B000FF31C2E9000128683768C71B306829681A
:1010C000884201D2BE4524D328683168884209D2BB
:1010D000DFF8B028D2E90001401C71F1FF31C2E90C
:1010E000000113E0774511D2DFF89C28D2E9000116
:1010F000401C71F1FF31C2E90001DCE90023BEEBC5
:101100000700002110185941CCE90001286830601F
:1011100002E0306820183060F0BD0000103300207D
:101120002C3300203C33002028330020D00C00203A
:101130002C310020483300202DE9F0410027DFF852
:101140004C080068002876D140480468641C04609C
:10115000002C1AD16A4908680068002807D050207E
:1011600080F31188BFF34F8FBFF36F8FFEE7D1F885
:101170000080644802680A60C0F80080DFF8100848
:101180000168491C016000F097FADFF83484D8F850
:10119000000084423AD35A4908680068002804D104
:1011A0005FF0FF30C8F8000030E00868C068C06831
:1011B000050068680600B44202D2C8F8006025E065
:1011C000281D01F0D6F9A86A002803D015F11800EF
:1011D00001F0CFF9DFF8BC070168EA6A914201D259
:1011E000E96A0160291DDFF8D028EB6A1420434327
:1011F00002EB030001F096F9E86ADFF8C01809680D
:10120000C96A8842C7D301200700C4E7DFF8AC08E9
:101210000068DFF8A418C26A1420424388580228E4
:1012200001D301200700DFF8E4040068002807D09C
:101230000120070004E0DFF8F4050168491C0160A3
:101240003800BDE8F081000004ED00E02433002008
:1012500010B4DFF838070068002804D00120DFF858
:10126000AC1408602FE00020DFF8A0140860DFF85D
:10127000242710681423DFF8404803FB00F161586D
:1012800000290BD1002807D1502181F31188BFF329
:101290004F8FBFF36F8FFEE7401EEBE703FB00F3BA
:1012A00004EB03014B685B684B604B6811F1080469
:1012B000A34202D14B685B684B604968C968DFF89C
:1012C000FC371960106010BC704738B504000D0081
:1012D000002C07D1502080F31188BFF34F8FBFF34C
:1012E0006F8FFEE7DFF8D407006810F118012000C7
:1012F00001F024F90121280000F040FC31BD00007C
:1013000014330020183300204031002070B5050050
:101310000E001400002D07D1502080F31188BFF378
:101320004F8FBFF36F8FFEE7DFF89007006810F173
:101330001801280001F0F6F8002C02D05FF0FF3011
:1013400006002100300000F019FC70BD38B5050022
:10135000E868C468002C07D1502080F31188BFF3DF
:101360004F8FBFF36F8FFEE714F1180001F001F902
:10137000DFF818060068002817D1201D01F0F9F8E1
:10138000DFF810060168E26A914201D2E16A016069
:10139000211DDFF82427E36A1420434302EB0300F6
:1013A00001F0C0F800F088F904E014F11801814858
:1013B00001F0B8F8DFF804070068C06AE16A884203
:1013C00005D201200121DFF84423116000E0002054
:1013D00032BDDFF8BC1509680160DFF81018096834
:1013E000416070472DE9F04104000D00002C07D149
:1013F000502080F31188BFF34F8FBFF36F8FFEE74C
:10140000002D07D1502080F31188BFF34F8FBFF319
:101410006F8FFEE701F052F9DFF8D00706686768C2
:10142000F71B286810F1010F02D15FF000081BE0E4
:10143000DFF85C0500682168884205D06068864254
:1014400002D35FF001080FE02868874208D22868BD
:10145000C01B28602000FFF7BCFF5FF0000803E01E
:10146000002028605FF0010801F042F94046BDE825
:10147000F0810120DFF8941208607047000000003E
:1014800070B5040000F076F8DFF82C06006802283A
:1014900008D35FF08050DFF858170860BFF34F8F14
:1014A000BFF36F8FFFF742FD0500022DEAD3FFF770
:1014B00037FD43480068DFF834170968884207D2CF
:1014C000502080F31188BFF34F8FBFF36F8FFEE77B
:1014D000FFF72CFD0600022E02D3300001F0E8FBDE
:1014E000FFF747FDCEE701220120324909680029B4
:1014F00002D00021080011E084490968002902D0C7
:10150000002108000AE0DFF8EC160968DFF8E83689
:101510001B689B1A994201D102210800C0B2704792
:1015200070B50024382C09D2DFF88C05142101FB9A
:1015300004F1084400F0E4FF641CF3E7DFF8BC5654
:10154000280000F0DDFFDFF8B866300000F0D8FFBB
:10155000184800F0D5FFDFF8AC0600F0D1FFDFF847
:10156000940600F0CDFFDFF8A0060560DFF89C06CA
:10157000066070BD38B5DFF898562868002817D087
:1015800001F09CF8DFF87C06C068C0680400201DEC
:1015900000F0EFFFDFF860060168491E016028686F
:1015A000401E286001F0A4F8200000F063F8E2E794
:1015B00031BD00001831002044330020E00700084E
:1015C000403300202DE9F04104000E0015001F00FB
:1015D000002C04D1DFF83C06D0F8008000E0A046E3
:1015E000C6F8008018F134007060D8F82C00306123
:1015F000D8F83000F061D8F84400B060D8F84C005A
:1016000070610020B0613800C0B2052817D0DFF843
:1016100004060068804502D10020307313E0377360
:101620003800C0B203280ED1FFF77AFCD8F82800A2
:10163000002801D002203073FFF79BFC03E04046F6
:10164000FFF7DBFB3073002D05D0D8F8300000F039
:1016500006F8308401E000203084BDE8F08101000C
:1016600000200A78A52A02D1491C401CF9E780080D
:1016700080B2704710B5040094F85900002806D1D4
:10168000206B00F089FE200000F086FE13E094F845
:101690005900012803D1200000F07EFE0BE094F8F1
:1016A0005900022807D0502080F31188BFF34F8FD4
:1016B000BFF36F8FFEE710BDDFF84C2510680068A0
:1016C000002805D15FF0FF30DFF84C25106007E0FF
:1016D0001068C068C06801004868DFF83C251060E9
:1016E0007047DFF8300500687047DFF830050068A4
:1016F000002801D1012007E0DFF824050068002858
:1017000001D1022000E000207047000034330020A7
:101710002DE9F843040025000026002C3DD0DFF819
:101720009C73E86A3968C96A88422FD2A869002880
:1017300004D43868C06AD0F13800A861DFF8788333
:101740005FF014096869E96A09FB01F141448842C4
:1017500016D1281D00F00DFF3868C06AE862DFF876
:10176000C4040168EA6A914201D2E96A0160291D54
:10177000E86A09FB00F908EB090000F0D3FE02E07B
:101780003868C06AE8620120060006E0E86C396843
:10179000C96A884201D2012006003000BDE8F28308
:1017A00070B5040025000026002C3DD0DFF80C03A6
:1017B0000068854207D0502080F31188BFF34F8F17
:1017C000BFF36F8FFEE7286D002807D1502080F30C
:1017D0001188BFF34F8FBFF36F8FFEE7286D401E58
:1017E0002865E86AE96C88421ED0286D00281BD164
:1017F000281D00F0BEFEE86CE862E86AD0F138000F
:10180000A86164480168EA6A914201D2E96A01600C
:10181000291DDFF81424EB6A1420434302EB030074
:1018200000F080FE01200600300070BD3033002043
:101830002DE9F84F04000F00A0465FF00109002CCD
:1018400058D0D8F85000002807D1502080F31188D4
:10185000BFF34F8FBFF36F8FFEE7D8F84C00B8424D
:1018600001D23E0002E0D8F84C000600D8F82C0067
:10187000B0423FD0D8F8500048453BD18F4800686F
:10188000804507D1502080F31188BFF34F8FBFF3FD
:101890006F8FFEE7D8F82C000500C8F82C60D8F848
:1018A0001800002803D4D6F13800C8F81800DFF873
:1018B00008A25FF0140BD8F814000BFB05F151449B
:1018C000884217D118F1040000F053FEDFF85403EA
:1018D0000168D8F82C20914202D2D8F82C1001606F
:1018E00018F10401D8F82C000BFB00FB0AEB0B00ED
:1018F00000F018FEBDE8F18FDFF818130868002823
:1019000003D00868026D521C026508687047F8B57C
:1019100004000D0000F0D2FE684F3868406D0028CA
:1019200012D10120396881F85800002D0CD0012116
:10193000280000F023F95FF08050DFF8B41208604F
:10194000BFF34F8FBFF36F8F00F0D2FE00F0B6FEF3
:101950003868466D002E08D0002C03D0002039686E
:10196000486502E0701E396848650020396881F8D2
:10197000580000F0BDFE3000F2BD000088320020AB
:10198000703200208032002078320020483300205E
:1019900038330020283300202DE9F04704000E00E2
:1019A00017001D005FF00108002C07D1502080F3C4
:1019B0001188BFF34F8FBFF36F8FFEE7A14600F092
:1019C0007DFE002D02D0D9F85400286099F858A067
:1019D000022089F858003800C0B200281FD0022821
:1019E0000AD003D3042810D00CD319E0D9F854003E
:1019F0003043C9F8540020E0D9F85400401CC9F81D
:101A000054001AE0C9F8546017E05046C0B20228EA
:101A100002D0C9F8546001E0002080460DE00CE0DF
:101A2000D9F8540010F1010F07D0502080F311882D
:101A3000BFF34F8FBFF36F8FFEE75046C0B2012850
:101A400035D119F1040000F094FDDFF8D8010168E8
:101A5000D9F82C20914202D2D9F82C10016019F14A
:101A60000401154AD9F82C301420434302EB03003B
:101A700000F058FDD9F82800002807D0502080F346
:101A80001188BFF34F8FBFF36F8FFEE7FFF714FE90
:101A90000A480068C06AD9F82C10884207D25FF063
:101AA000805053490860BFF34F8FBFF36F8F00F032
:101AB0001FFE4046BDE8F087D00C00201033002008
:101AC0002DE9F04104000D00002C07D1502080F3D7
:101AD0001188BFF34F8FBFF36F8FFEE700F032FE28
:101AE0002600EFF31187502181F31188BFF34F8F48
:101AF000BFF36F8F96F85880022086F85800706DFB
:101B0000401C70654046C0B2012833D1B06A00283D
:101B100006D081F31188BFF34F8FBFF36F8FFEE7BD
:101B20003F480068002813D1301D00F022FD3D48D9
:101B30000168F26A914201D2F16A0160311D3A4AAC
:101B4000F36A1420434302EB030000F0EBFC04E0D3
:101B500016F11801354800F0E5FC2E480068C06A0F
:101B6000F16A884206D2002D01D0012028600120B0
:101B70002F49086087F31188BDE8F0812DE9F04115
:101B800005000C0019480768DFF88880D8F80000C5
:101B9000001D00F0EEFC15F1010F08D1002C06D05D
:101BA000D8F80000011D134800F0BCFC1AE0E81949
:101BB0000600D8F800004660BE4207D2D8F8000000
:101BC000011D1248006800F0B9FC0BE0D8F80000D5
:101BD000011D0D48006800F0B1FC0F4801688E42FD
:101BE00000D20660BDE8F081000000002433002030
:101BF00004ED00E04031002020330020F0300020D0
:101C0000043100202C310020143300201833002030
:101C10001C33002010330020403300202C330020E0
:101C20004833002028330020D00C00201831002039
:101C300034330020F8B4030000250868E840002889
:101C400000F0D78001260F6816FA05F007403A0029
:101C5000002A00F0CC80087910F00300012804D09D
:101C6000087910F0030002281DD19F685FF0030C73
:101C70002800C0B240001CFA00FC37EA0C07D1F87B
:101C80000CC02800C0B240001CFA00FC5CEA070748
:101C90009F605868AE40B0434E68C6F30016AE4031
:101CA000304304005C60087910F0030003280ED074
:101CB000DE6803272800C0B240008740BE438F681B
:101CC0002800C0B2400087403E433400DC60087901
:101CD00010F00300022818D12800C00803EB800090
:101CE000066A0F2715F00700C0B280008740BE4388
:101CF0000F6915F00700C0B2800087403E433400F2
:101D00002800C00803EB800004621E680327280037
:101D1000C0B240008740BE430F7917F00307280088
:101D2000C0B2400087403E4334001C60486810F455
:101D3000403F5CD09548066856F001060660006892
:101D400010F0010000900098914F2800800857F88B
:101D500020605FF00F0C15F00300C0B280001CFA89
:101D600000FC36EA0C06B3F1904F01D1002414E0D8
:101D70008848834201D101240FE08748834201D182
:101D800002240AE08548834201D1032405E0844807
:101D9000834201D1042400E0072415F00300C0B2FF
:101DA0008000844026432800800847F820607D4C4E
:101DB000206890434F68FF0200D5104320607A4EA0
:101DC000346894434F68BF0200D514433460774EA3
:101DD000306890434F68BF0300D510433060744EA5
:101DE000346894434F68FF0300D5144334606D1C7E
:101DF00023E7F1BC70472DE9F041030000250800FE
:101E0000E840002800F0A880012616FA05F00840F6
:101E10000200002A00F09E80DFF874C128008008CC
:101E20005CF820000F2715F0030E5FFA8EFE5FEAC4
:101E30008E0E17FA0EFE1EEA00000400B3F1904F5A
:101E400002D15FF0000E19E05248834202D15FF0E8
:101E5000010E13E05048834202D15FF0020E0DE004
:101E60004E48834202D15FF0030E07E04C488342A4
:101E700002D15FF0040E01E05FF0070E15F00300E1
:101E8000C0B280001EFA00FE74452CD14848D0F83C
:101E900000E03EEA020EC0F800E04448D0F800E05E
:101EA0003EEA020EC0F800E03F48D0F800E03EEA0B
:101EB000020EC0F800E03B48D0F800E03EEA020E17
:101EC000C0F800E015F00300C0B2800017FA00F07F
:101ED0000400280080085CF82000A043AE465FEABA
:101EE0009E0E4CF82E005FF0030C1868AE465FFAA9
:101EF0008EFE5FEA4E0E1CFA0EFE5EEA00001860CF
:101F00002800C00803EB800E2800C00803EB800007
:101F1000D0F8208015F00700C0B28000874038EA72
:101F20000707CEF8207098682F00FFB27F001CFAD8
:101F300007F7B84398605868AE4030EA06065E601E
:101F4000DE682800C0B240001CFA00FC36EA0C0C27
:101F5000C3F80CC06D1C52E7BDE8F08102001069A7
:101F60000B009BB2184201D0012000E00020C0B25B
:101F700070471300DBB2002B03D00B009BB28361D0
:101F800002E00B009BB283627047000060100240C9
:101F9000080001400004004800080048000C004808
:101FA00000100048080401400C04014004040140F2
:101FB00000040140F8B5060000F024F804000D000C
:101FC0000B4FD7E90001002908D1002806D164226F
:101FD000D7E9000100F029F8002802D1C7E900453F
:101FE00005E03000C0B2002801D000F0DEFFF1BDF6
:101FF0003832002080B500F005F8DFF8F421C2E99E
:10200000000101BD80B5684601F0BCF802004FF444
:102010007A73BDF800000021E3FB020104BD10B596
:1020200004002000FEF7C2FE10BDF8B504000D004C
:102030001600002D01D1002C0AD0FFF7E3FF002786
:10204000A21955EB0703994204DB01DC904201D34E
:10205000012000E00020C0B2F2BDE0B5684601F00A
:1020600052F9009800F006F8002801D1002000E0A5
:1020700001200EBD5F49884204D310F1100F01D238
:10208000012000E00020C0B27047E0B5FFF7E5FF97
:10209000002802D1FFF7B6FF03E0684601F033F9EC
:1020A00000980EBD10B402000A2092FBF0F00A2343
:1020B00090FBF3F403FB140030300870481C0A2135
:1020C00092FBF1F301FB132130310170401C10BC75
:1020D000704710B402004FF47A7092FBF0F00A23BC
:1020E00090FBF3F403FB140030300870481C6421AB
:1020F00092FBF1F10A2391FBF3F403FB141130314D
:102100000170401C0A2192FBF1F10A2391FBF3F4C8
:1021100003FB141130310170401C0A2192FBF1F3D2
:1021200001FB132130310170401C10BC70472DE9B8
:10213000F84F84B004000E001700152F05D23A00A6
:102140002D49300001F012F94EE0002C05D13A0083
:102150002A49300001F00AF946E0DFF8A48042463F
:10216000D821284801F042F90025CDE9024502A80E
:1021700001F066FA05003100686900F26C70FFF743
:10218000A8FF2D210170401C009000992869401C77
:10219000FFF788FF2D210170401C00900099E8682E
:1021A000FFF780FF54210170401C00900099A8683F
:1021B000FFF778FF3A21017010F10109494668687C
:1021C000FFF770FF3A21017010F1010A51462868AB
:1021D000FFF768FF5A21017010F1010B00208BF806
:1021E0000000404601F0C7F905B0BDE8F08F0000DF
:1021F000903200200C6C6264E8070008F4070008C5
:10220000500000200408000862F30F2262F31F420E
:10221000401810F0030308D0C91A1FD3DB0748BFCA
:1022200000F8012D28BF20F8022D130030B4144609
:102230001546103928BF20E93C00FAD8490728BFC5
:1022400020E90C0048BF40F8042D890028BF20F881
:10225000022D48BF00F8012D30BC7047C91818BFC7
:1022600000F8012DCB0728BF00F8012D70472E0084
:102270002DE9F84F04005FF00008FEF751FEDFF88B
:102280005C92D9F80000002801D100F0C6F8DFF810
:1022900050A2DAF8000004426DD1002C15D091480C
:1022A0000068041914F0070F0FD014F1080014F09F
:1022B0000704041B14F0070F07D0502080F3118887
:1022C000BFF34F8FBFF36F8FFEE7002C53D0DFF8C3
:1022D00018B2DBF80000A0424DD384480600006825
:1022E00005006868A04205D22868002802D02E00A8
:1022F0002D68F6E7D9F8000085423CD0794831686E
:1023000002681144884629683160006840006968A5
:10231000091B884215D205EB0400070017F00700DF
:10232000002807D0502080F31188BFF34F8FBFF3F0
:102330006F8FFEE76868001B78606C60380000F003
:102340009DF8DBF800106868091ACBF8001068489F
:10235000DBF800100268914202D2DBF80010016045
:102360006968DAF80000014369600020286061486C
:102370000168491C0160FEF7FCFD18F00700002809
:1023800007D0502080F31188BFF34F8FBFF36F8FBA
:10239000FEE74046BDE8F28F70B504002600002C31
:1023A00037D0504800684042064435004C496868C0
:1023B0000A68104207D1502080F31188BFF34F8F75
:1023C000BFF36F8FFEE72868002807D0502080F306
:1023D0001188BFF34F8FBFF36F8FFEE768680A68FD
:1023E000104216D02868002813D16A680868824312
:1023F0006A60FEF795FD3C490A68686882180A60C1
:10240000280000F03BF83C480168491C0160FEF7D9
:10241000B0FD70BD34480068704770B440F6B83203
:102420003648010011F0070F04D0C91DC908C900C2
:10243000521A82180B002D48036000244460D418FF
:1024400028480068241AE408E400244D2C60002089
:102450002E68706000202E6830601800261A4660D2
:102460002D6805604568224E356045681E4E356012
:102470005FF000451A4E356070BC704730B41B4A9F
:102480001168814201D21268FAE7140051682144B0
:10249000814204D153684168CB1853601000030097
:1024A000416819441568A94210D10C4914680D6897
:1024B000AC4208D04468116849680C19446011683E
:1024C0000968016004E00968016001E011680160C9
:1024D000824200D0106030BC70470000C43200203F
:1024E000D83200207C030008C8320020403200208F
:1024F000CC320020D0320020D4320020180100203D
:1025000010F1080141605FF0FF31816010F10801B6
:10251000C16010F1080101610021016070470021D4
:102520000161704742684A6093688B6093685960A4
:102530009160086103685B1C0360704710B40B680E
:1025400013F1010F01D1026907E010F1080254688C
:102550002468A34201D35268F9E754684C604C6880
:10256000A1608A60516008610468641C046010BC4A
:102570007047010008698A684B689A604A688B68EE
:102580005A6042688A4201D18A68426000220A6128
:102590000268521E0260006870474300001F5FF02F
:1025A00080730360001F4B085B000360001F0FF285
:1025B0001503036014380260001F7FF002030360FC
:1025C000203870477348006810F1010F07D0502081
:1025D00080F31188BFF34F8FBFF36F8FFEE750205A
:1025E00080F31188BFF34F8FBFF36F8FFEE7E0B525
:1025F00069480168694A914207D1502080F31188E7
:10260000BFF34F8FBFF36F8FFEE7006864498842C6
:1026100007D1502080F31188BFF34F8FBFF36F8F26
:10262000FEE7604801780191FF21017001788DF883
:1026300000109DF8001011F050015B4A11705B49C9
:1026400007220A609DF80020120608D50A68521E6B
:102650000A609DF8002052008DF80020F2E70A6819
:10266000D2F10702042A07D0502181F31188BFF369
:102670004F8FBFF36F8FFEE70A6812020A600A6885
:1026800012F4E0620A60019901704948016851F44E
:1026900070010160016851F07041016000F0DEFFDF
:1026A00000203C49086001F05BF84248016851F0A5
:1026B0004041016001F044F800200EBD502080F33D
:1026C0001188BFF34F8FBFF36F8F32490A68521CD6
:1026D0000A60096801290AD137490968090606D044
:1026E00080F31188BFF34F8FBFF36F8FFEE7704702
:1026F00028490868002807D1502080F31188BFF3CB
:102700004F8FBFF36F8FFEE70868401E08600868B0
:10271000002802D1002080F31188704780B5502036
:1027200080F31188BFF34F8FBFF36F8FFEF704FD67
:10273000002803D05FF080501F490860002080F31C
:10274000118801BDEFF30580102811D31B4A1268D0
:10275000125C11000A00144B1B78D2B29A4207D2C5
:10276000502282F31188BFF34F8FBFF36F8FFEE7C4
:102770000E4A1268124B1B6813F4E0639A4207D2A8
:10278000502282F31188BFF34F8FBFF36F8FFEE7A4
:10279000704700007800002000ED00E071C20F419A
:1027A00070C20F4100E400E08B330020EC320020C7
:1027B00020ED00E034EF00E004ED00E0D00500087B
:1027C0000CED00E0034B0360034B0B6080231360B0
:1027D000704700BF0C2B00203022002038B586B097
:1027E000002400F027FADFF89804006800281ED0C3
:1027F000002004900020039005AA03A904A800F07B
:10280000BDFFDFF8805404980290039801900220E5
:1028100000900023059ADFF870140FF21D10FEF7E8
:102820007DF928602868002801D001200400002CD0
:1028300007D1502080F31188BFF34F8FBFF36F8F04
:10284000FEE7200007B030BD2DE9FF4704000D0072
:1028500016001F00DDF830805FF00009002C07D162
:10286000502080F31188BFF34F8FBFF36F8FFEE7C7
:10287000DFF80CA4DAF80000002822D000950196B9
:102880000294062D15DAFEF730FF022808D1002346
:1028900042466946DAF8000001F08CF8814610E003
:1028A000002300226946DAF8000001F083F881462F
:1028B00007E000233A006946DAF8000001F04DF91C
:1028C0008146484604B0BDE8F087F8B505000E0023
:1028D000DFF8B8030068C068C768381DFFF749FE15
:1028E00097F8280040071CD52B003200B969491918
:1028F000380000F090F8002819D000200090002344
:102900002A0000213800FFF79FFF0400002C07D1A8
:10291000502080F31188BFF34F8FBFF36F8FFEE716
:1029200005E097F8280010F0FE0087F8280038002E
:10293000396A8847F1BD000038B50400684600F0E8
:1029400042F805000099280000F003F800F08CF828
:10295000F4E77CB505000C00FEF7E2FA684600F0EB
:1029600046F80600009800282AD1002C08D1AE4273
:1029700006D3FEF7FEFA31002800FFF7A6FF21E09C
:10298000002C08D0DFF8080300680068002801D197
:10299000012400E000242200A91BDFF8E402006803
:1029A00001F0B4FBFEF7E5FA00280BD15FF0805090
:1029B000DFF8E0120860BFF34F8FBFF36F8F01E0C5
:1029C000FEF7D7FA73BD0100DFF8C0221068006877
:1029D000002801D1012000E00020086008680028DC
:1029E00003D11068C068006800E00020704770B52F
:1029F0000400FEF731FB0500DFF89C623068854279
:102A000004D200F0D0F80120206001E00020206016
:102A10003560280070BD2DE9F04104000D0016005E
:102A20001F005FF0000865602461AE420DD3F01B0B
:102A3000A169884202D30120804612E0211DDFF8FF
:102A400050020068FFF77AFD0BE0BE4204D2BD429F
:102A500002D30120804604E0211D8C480068FFF766
:102A60006DFD4046BDE8F081F8B586B0002201A9B1
:102A70008348006801F0E3F8002800F09280019894
:102A800000280ED502AD002D07D1502080F311880B
:102A9000BFF34F8FBFF36F8FFEE7A96868682A689E
:102AA000904701980028E1D4039806007069002837
:102AB00002D0301DFFF75DFD05A8FFF798FF070066
:102AC000019800280ED002280CD00BD304283DD04A
:102AD00035D3062806D054D3082830D002D309288D
:102AE00034D05DE096F8280050F0010086F8280008
:102AF000029B3A000299B06941183000FFF78BFF42
:102B000000281BD03000316A884796F8280040071B
:102B100014D5002000900023029AB0698218002189
:102B20003000FFF791FE0400002C07D1502080F305
:102B30001188BFF34F8FBFF36F8FFEE796E796F8CC
:102B4000280010F0FE0086F828008FE796F828008D
:102B500050F0010086F828000298B061B0690028A2
:102B600007D1502080F31188BFF34F8FBFF36F8FD1
:102B7000FEE73B003A00B169C9193000FFF74BFF8F
:102B800074E796F82800800703D43000FFF704FCB0
:102B900005E096F8280010F0FE0086F8280065E7AA
:102BA00064E707B0F0BD2DE9FC41DFF8E080D8F81C
:102BB00000000068002834D0D8F80000C068006821
:102BC0000500D8F80000C068C0680700381DFFF78E
:102BD000D0FC3800396A884797F828004007E4D5C8
:102BE000B86940190600B54207D27E603F61391DC1
:102BF000D8F80000FFF7A2FCD7E7002000900023E0
:102C00002A0000213800FFF71FFE0400002C07D126
:102C1000502080F31188BFF34F8FBFF36F8FFEE713
:102C2000C3E7D8F800001A490A68C8F8002008600D
:102C3000BDE8F3817CB5FFF741FD114C2068002809
:102C40001BD1164D2800FFF75BFC154E3000FFF737
:102C500057FC0E4805600E48066000200090114B9E
:102C6000114A10210A2000F0DFFD206020680028B2
:102C700003D00E49206801F033FAFFF739FD73BD28
:102C80005C330020603300207808000854330020B3
:102C90005833002004ED00E064330020543100205C
:102CA00068310020742D002094270020800800083F
:102CB0002DE9FE4F040050480168A14201D200688E
:102CC00004004E4F3868400840003860DFF830811B
:102CD000DFF83091D9F80010D8F80060601E00FBD2
:102CE0000616DFF824A1DAF80000B04202D2DAF8C2
:102CF0000000361A72B6BFF34F8FBFF36F8FFEF727
:102D0000F2FB00280DD14148D9F800100160396864
:102D100051F001013960D8F80010491E016062B617
:102D200068E0DFF8E8B0CBF800600020C9F80000E8
:102D3000386850F00100386000940020009000983E
:102D4000FDF74FFE0098002804D0BFF34F8F30BF2F
:102D5000BFF36F8F2000FDF750FE62B6BFF34F8FB9
:102D6000BFF36F8F72B6BFF34F8FBFF36F8F062025
:102D700038603868C00317D5D8F80010491E891B81
:102D8000D9F800004118DAF80000814203D3D8F8DE
:102D90000000884203D2D8F80000401E0100CBF8A2
:102DA0000010601E050015E0D8F8001001FB04F1CA
:102DB000D9F80000091A01910198D8F80010B0FB69
:102DC000F1F00500691CD8F8000041430198091A88
:102DD000CBF800100020C9F80000386850F001005E
:102DE00038602800FEF73EF9D8F80000401ECBF806
:102DF000000062B6BDE8F78FE432002010E000E08A
:102E0000E032002018E000E0E832002014E000E0AA
:102E100070B5050040F6AC5352227D49012001F007
:102E20009BF9012001F01EFC00263400E4B2794831
:102E300000F024F80443002C01D0012600E0002615
:102E40003400E4B2744800F019F80443002C01D0B7
:102E5000012600E000263400E4B200F0AEF804439E
:102E6000002C01D0012400E000242000C0B2002882
:102E7000DAD16A49012001F0A6F9D5E778B587B023
:102E8000050003AB06AA05A9280001F0EEFB002807
:102E900001D1002087E00698002810D101212800E8
:102EA00001F01FFC00220021280001F094FC05988D
:102EB000002802D0059801F029FD012073E00120CF
:102EC00001F0CFFD002002905248854201D101203F
:102ED00000E0002004A9019102A900919DF80C30A6
:102EE000069A0599C0B201F0CFFD04000121280027
:102EF00001F0F7FB002C30D00298002802D0029895
:102F000001F004FD200001F07FFF060030782B283F
:102F100008D1300002F02AF802003100280001F048
:102F20005AFC25E004AA02A9200001F0B1FF040028
:102F3000002C1DD1049A0299280001F04CFC32A00B
:102F400002F062F80499029802F068F82FA002F0EB
:102F50005BF8029801F0DAFC0AE00298002807D03A
:102F6000049A0299280001F036FC029801F0CEFC88
:102F7000002001F076FD2A4E3068002812D040F281
:102F8000DC50FFF74CF83068012802D0022804D04A
:102F900008E0244802F06FF804E002F0F6F8224856
:102FA00002F069F8012008B070BD80B501201F490A
:102FB0000870012001F056F901BD70B51B49087871
:102FC000002801D100201EE0002008700224002506
:102FD000A54217DA164E01224FF400513000FEF7D9
:102FE000C8FF6420FFF71BF800224FF400513000A7
:102FF000FEF7BFFF601E854202D06420FFF70FF886
:103000006D1CE5E7012070BD3C3C20000A0000007B
:1030100070060008BC28002034280020005C26052B
:10302000F032002078060008800600088C3300206B
:10303000000C0048806A80B2704770B50024994D3A
:103040002878002813D102F03FF900F038F8964EA6
:103050004FF48071300002F0EFFC300002F099FE76
:10306000002000F0D4F800F03CF801202870200087
:10307000C0B270BD78B58BB0050000242C210022B1
:103080006E463000FFF7C0F800F019F88748006876
:1030900045195FF0FF30401B0190002005904FF470
:1030A00080700A90012269467F4802F0D2FB002816
:1030B00001D002F0D7FE2000C0B20CB070BD10B538
:1030C000002479480168C96811F0800171F4C07169
:1030D0000268D1604FF4807102F0AEFC2000C0B2F3
:1030E00010BD10B5714C00F0A0F82060206810BD34
:1030F0006E480068704710B5002400F096F8010093
:103100006A480068081A10BD10B5002465480078A8
:10311000002802D000F089F80400200010BD002132
:103120000320704730B504000025200000218902EB
:1031300041EA905180024FF47A72002302F09CFF22
:1031400030BD020000234FF47A70A0FB0201800A18
:1031500040EA8150890A704770B504002000FFF7EB
:10316000E1FF050000F061F8060000F05EF8801B4A
:10317000A84201D200BFF8E770BD10B5040003F00B
:10318000EBF810BD2DE9F84F07005FF0000800F0E4
:103190004CF8824600F043F80600300000210100A0
:1031A00000205FF0000B10EB0A0051EB0B01020056
:1031B0000B00920A42EA83529B0A91468005800DD9
:1031C000040000252000FFF7BCFF38804846BDE81A
:1031D000F28F10B5040022000021334802F004FEF3
:1031E00010BD10B50400220001212F4802F0FCFDA3
:1031F00010BD10B5002400212B4802F001FE10BDC7
:1032000010B500240121284802F0FAFD10BD10B5C8
:10321000040022000221244802F0E6FD10BD80B522
:103220000221214802F0ECFD02BDF8B5204E5FF00E
:10323000FF353000FFF7FEFE04002C1B1D4D2868F3
:10324000002818D02868844215D22868001BB0F5E1
:103250007A7F10D25FF0FF373000FFF7EBFE3F1AA6
:103260003C002868844206D22868001BB0F57A7FAB
:1032700001D2286804002C602000F2BD80B5094806
:103280000078002801D1012001E0FFF7CEFF02BD48
:1032900001B504480078002802D00098FFF75CFFD1
:1032A00001BD00008F3300208C3000204C33002003
:1032B00000280040503300200EB482B0DFF89C108C
:1032C000D1E90023CDE90023029A04998A180092DB
:1032D000BDF80C20BDF814108A18ADF80420BDF913
:1032E0000410B1F57A7F08DB0099491C0091BDF804
:1032F0000410B1F57A71ADF80410DDE90023C0E9DE
:10330000002305B0704730B587B004001548D0E9F8
:103310000023CDE901231448D0E90023CDE905239A
:103320000F4D02A8296988470190E8688047ADF8E9
:103330001000686880470390DDE9010100910300F7
:10334000DDE903010A00010005A8FFF7B5FFDDE98B
:103350000501C4E9000107B030BD0000E406000823
:1033600064080008EC060008F406000870B40400C5
:1033700025000E001300002B09D05B1E002B06D089
:103380003078761C28706D1CC0B20028F5D1002B57
:1033900008D1002A01D0002028703000461C007897
:1033A0000028FAD1711A491E080070BC7047826863
:1033B000521C8260426832B10268531C0360117073
:1033C0004168491E416070472DE9F843060014002A
:1033D0001D0028275FF00008B146424639004846E4
:1033E000FEF712FFC6E90045BDE8F1832DE9F84F6D
:1033F000E6B080460C00150000F0CFFE0600884FB6
:10340000387A00280BD1012000F0C4FAF860F8687F
:10341000002802D1834801F02EFE01203872287A5C
:1034200000281CD15FF0FF31F86800F0BDFC287A5D
:1034300000280ED1012000F0ADFAE860E86800280D
:1034400002D1794801F017FE5FF0FF3028620120B9
:103450002872002300220021F86800F0ABFA286AE5
:10346000B0420DD1286901F00EFE0300686900909A
:103470006E4A802146A803F01BF846A801F0FBFD28
:103480005FF0FF31E86800F08FFC2E62FEF7BAFDB6
:10349000C5E90601D5E90001002901D1002864D061
:1034A0005E4F07EBC600D0E90023D5E900011040CC
:1034B0001940002901D100281CD0404601F0E3FD4D
:1034C0008146300000F05FFE03000594CDF81090B7
:1034D00007EBC600D0E90001CDE90201D5E9000102
:1034E000CDE90001524A802126A802F0E1FF26A87A
:1034F00001F0C1FDD5E90001B0F1010A71F1000B45
:1035000007EBC600D0E9000110EA0A0011EA0B013E
:10351000002901D100281CD0404601F0B4FD8146AD
:10352000300000F030FE03000594CDF8109007EB5A
:10353000C600D0E90001CDE90201D5E90001CDE9DD
:1035400000013C4A802106A802F0B2FF06A801F063
:1035500084FD07EBC600D0E90023D5E90001104344
:10356000194307EBC602C2E90001C5F810806C617F
:1035700067B0BDE8F08FF0B5C3B00400206A10F169
:10358000010F0DD1206901F07EFD030060690090FC
:10359000294A802123A802F08BFF23A801F06BFDAC
:1035A00000F0FBFD216A814213D0206901F06BFD20
:1035B000050000F0F2FD616902910195216A009118
:1035C00003001E4A802103A802F072FF03A801F045
:1035D00052FD5FF0FF30206200200021C4E90601A7
:1035E00000F0DBFD0D4901EBC002D2E90023D4E974
:1035F0000067B243BB4301EBC000C0E9002306A053
:10360000206100206061002300220021E06800F0BA
:10361000D1F943B0F0BD000000000000B831002037
:1036200028000020540400087004000888040008E2
:10363000A8040008E40400082C0500085805000848
:1036400080B500210091D0E90023002002F052FF54
:1036500002BD0268531C036011707047144915487D
:1036600002684FF47A73B2FBF3F20A607FF07F4294
:103670000968B2FBF1F1104A116001680268B1FB00
:10368000F2F12D22B2FBF1F10C4A11600C4900223B
:103690000A6000220B4B1A6000684FF47A72B0FB8C
:1036A000F2F0401E084A106007200860704700BF13
:1036B000E032002090000020E4320020E8320020B8
:1036C00010E000E018E000E014E000E0EFF3098013
:1036D000BFF36F8F264B1A681EF0100F08BF20ED46
:1036E000108A20E9F04F106009B44FF0500080F3C9
:1036F0001188BFF34F8FBFF36F8FFDF7A9FD4FF018
:10370000000080F3118809BC19680868B0E8F04F20
:103710001EF0100F08BFB0EC108A80F30988BFF3C9
:103720006F8F7047124B19680868B0E8F04F80F34C
:103730000988BFF36F8F4FF0000080F31188704746
:103740000C480068006880F308884FF0000080F3A0
:10375000148862B661B6BFF34F8FBFF36F8F00DF7F
:10376000DFF81400016841F4700101607047000047
:103770001033002008ED00E088ED00E0034B03600B
:10378000034B0B604FF4807313607047682B00206D
:103790003011002070B506000C003500002D07D157
:1037A000502080F31188BFF34F8FBFF36F8FFEE778
:1037B000FEF784FF2968EA6B286C424301EB0200A4
:1037C000A8600020A863286868602968EA6B521E18
:1037D000286C424301EB0200E8605FF0FF3085F89F
:1037E000440085F84500002C12D12869002817D024
:1037F00015F11000FDF7AAFD002811D05FF08050F0
:10380000DFF848170860BFF34F8FBFF36F8F07E0F3
:1038100015F11000FEF774FE15F12400FEF770FE9E
:10382000FEF766FF012070BD2DE9F84306000C008D
:1038300015001F00DDF82090002E07D1502080F3E6
:103840001188BFF34F8FBFF36F8FFEE7002F07D1B3
:10385000502080F31188BFF34F8FBFF36F8FFEE7C7
:10386000002D01D0002C01D0012000E00020C0B2CA
:10387000002807D1502080F31188BFF34F8FBFF38A
:103880006F8FFEE7002D01D1002C01D1012000E057
:103890000020C0B2002807D1502080F31188BFF368
:1038A0004F8FBFF36F8FFEE7502000900098502895
:1038B00007D0502080F31188BFF34F8FBFF36F8F75
:1038C000FEE70098B846B8F1000F0BD0012088F849
:1038D0004600CDF800804B46DBB22A0021003000C4
:1038E00000F02CF84046BDE8F2832DE9F8430400CF
:1038F0000E001700002C07D1502080F31188BFF371
:103900004F8FBFF36F8FFEE706FB04F919F15000EC
:10391000FEF7AEFC0500002D0DD02800503080468B
:10392000002085F8460000953B00DBB2424631009E
:10393000200000F003F82800BDE8F2832DE9F041F3
:1039400005000C0016001F00DDF81880002C02D1C5
:10395000C8F8008001E0C8F80060C8F83C50C8F81A
:10396000404001214046FFF715FF88F84C70BDE844
:10397000F08110B50400002C0BD00020A0600020C6
:1039800020600020E060002300220021200000F0E1
:1039900011F810BDF8B50400012600272200D2B2AC
:1039A00039003000FFF7A1FF05002800FFF7E1FF15
:1039B0002800F2BD2DE9F74380460D00994600240A
:1039C0004646002E07D1502080F31188BFF34F8F59
:1039D000BFF36F8FFEE7002D02D1306C002801D1BC
:1039E000012000E00020C0B2002807D1502080F361
:1039F0001188BFF34F8FBFF36F8FFEE7B9F1020F4E
:103A000002D1F06B012801D1012000E00020C0B2FA
:103A1000002807D1502080F31188BFF34F8FBFF3E8
:103A20006F8FFEE7FDF761FE002802D102980028A3
:103A300001D1012000E00020C0B2002807D15020B1
:103A400080F31188BFF34F8FBFF36F8FFEE7FEF750
:103A500035FEB06BF16B884202D3B9F1020F27D16A
:103A60004A462900300000F07EFA0700706A0028FC
:103A70000FD016F12400FDF769FC002814D05FF088
:103A80008050DFF8C8140860BFF34F8FBFF36F8F0B
:103A90000AE0002F08D05FF08050DFF8B014086013
:103AA000BFF34F8FBFF36F8FFEF722FE012052E06E
:103AB0000298002803D1FEF71BFE00204BE0002CEB
:103AC00004D16846FDF785FC01200400FEF710FED6
:103AD000FDF726FAFEF7F2FD96F9440010F1010F0A
:103AE00002D1002086F8440096F9450010F1010F3C
:103AF00002D1002086F84500FEF7FAFD02A96846CB
:103B0000FDF770FC002820D1300000F0DAFA002820
:103B100015D0029916F11000FDF7D7FB300000F028
:103B20008BFAFDF726FA002891D15FF08050DFF87C
:103B30001C140860BFF34F8FBFF36F8F87E730000F
:103B400000F07AFAFDF715FA81E7300000F074FA18
:103B5000FDF70FFA0020BDE8FE832DE9F84F0700BE
:103B60000C00150098463E00002E07D1502080F32F
:103B70001188BFF34F8FBFF36F8FFEE7002C02D188
:103B8000306C002801D1012000E00020C0B20028E4
:103B900007D1502080F31188BFF34F8FBFF36F8F91
:103BA000FEE7B8F1020F02D1F06B012801D101202C
:103BB00000E00020C0B2002807D1502080F3118817
:103BC000BFF34F8FBFF36F8FFEE7FEF7BBFDEFF341
:103BD0001189502080F31188BFF34F8FBFF36F8F8F
:103BE000B06BF16B884202D3B8F1020F22D196F983
:103BF00045A0D6F838B042462100300000F0B3F9B5
:103C000050465FF0FF3140B288420DD1706A002803
:103C100009D016F12400FDF799FB002803D0002DF0
:103C200001D00120286003E01AF1010086F8450068
:103C3000012000E0002089F31188BDE8F28F2DE912
:103C4000F64182B080460E0000244746002F07D17F
:103C5000502080F31188BFF34F8FBFF36F8FFEE7C3
:103C6000002E02D1386C002801D1012000E0002094
:103C7000C0B2002807D1502080F31188BFF34F8FC6
:103C8000BFF36F8FFEE7FDF730FD002802D10398E8
:103C9000002801D1012000E00020C0B2002807D197
:103CA000502080F31188BFF34F8FBFF36F8FFEE773
:103CB000FEF704FDBD6B002D1BD03100380000F075
:103CC000A0F9681EB863386900280ED017F11000FB
:103CD000FDF73CFB002808D05FF08050DFF86C1245
:103CE0000860BFF34F8FBFF36F8FFEF701FD012018
:103CF00057E00398002803D1FEF7FAFC002050E0BB
:103D0000002C04D16846FDF764FB01200400FEF797
:103D1000EFFCFDF705F9FEF7D1FC97F9440010F12F
:103D2000010F02D1002087F8440097F9450010F1F7
:103D3000010F02D1002087F84500FEF7D9FC03A946
:103D40006846FDF74FFB002820D1380000F0ABF9A2
:103D5000002815D0039917F12400FDF7B6FA3800B2
:103D600000F06AF9FDF705F90028A1D15FF0805055
:103D7000DFF8D8110860BFF34F8FBFF36F8F97E75D
:103D8000380000F059F9FDF7F4F891E7380000F039
:103D900053F9FDF7EEF8380000F085F9002887D0D8
:103DA000002004B0BDE8F0812DE9F34182B08046E7
:103DB000002447460025002F07D1502080F31188AA
:103DC000BFF34F8FBFF36F8FFEE7386C002807D02B
:103DD000502080F31188BFF34F8FBFF36F8FFEE742
:103DE000FDF783FC002802D10398002801D10120AF
:103DF00000E00020C0B2002807D1502080F31188D5
:103E0000BFF34F8FBFF36F8FFEE7FEF757FCBE6B1C
:103E1000002E1CD0701EB8633868002802D1FDF750
:103E20006BFDB860386900280DD017F11000FDF760
:103E30008DFA002807D05FF0805044490860BFF336
:103E40004F8FBFF36F8FFEF753FC01207AE003988A
:103E500000280DD1002D07D0502080F31188BFF32A
:103E60004F8FBFF36F8FFEE7FEF742FC002069E043
:103E7000002C04D16846FDF7ACFA01200400FEF7DF
:103E800037FCFDF74DF8FEF719FC97F9440010F1E7
:103E9000010F02D1002087F8440097F9450010F186
:103EA000010F02D1002087F84500FEF721FC03A98D
:103EB0006846FDF797FA00282AD1380000F0F3F899
:103EC00000281FD03868002807D1FEF7F7FBB86834
:103ED000FDF71EFC0500FEF70BFC039917F124000B
:103EE000FDF7F3F9380000F0A7F8FDF742F80028D5
:103EF0008BD15FF0805015490860BFF34F8FBFF33F
:103F00006F8F82E7380000F097F8FDF732F87CE712
:103F1000380000F091F8FDF72CF8380000F0C3F8F5
:103F200000283FF472AF002D0BD0FEF7C7FB38001E
:103F300000F00EF806003100B868FDF779FCFEF7D6
:103F4000D7FB002004B0BDE8F081000004ED00E0E4
:103F50000100486A002804D0086B0068D0F13800DE
:103F600000E0002070472DE9F84F06000F00140014
:103F70005FF00008B56B306C002809D1306800286C
:103F80003AD1B068FDF70CFC80460020B06033E009
:103F9000002C14D1D6F84090BA46D6F804B04A4660
:103FA0005146584602F058FB7068316C0844706006
:103FB0007068B16888421FD3306870601CE0D6F822
:103FC0004090BA46D6F80CB04A465146584602F0E0
:103FD00043FBF068316C49420844F060F068316896
:103FE000884204D2B068316C49420844F060022C27
:103FF00002D1002D00D06D1E681CB0634046BDE8A4
:10400000F28F2DE9F04104000D00206C002811D042
:10401000E068216C0844E060E068A168884201D350
:104020002068E060266CE768A84632003900404608
:1040300002F012FBBDE8F081F8B50400FEF73EFB8C
:1040400094F94550280040B201280CDB606A002832
:1040500009D014F12400FDF779F9002801D0FDF70B
:1040600008FA6D1EEEE75FF0FF3684F84560FEF754
:104070003FFBFEF723FB94F94470380040B201285F
:104080000CDB2069002809D014F11000FDF75EF95F
:10409000002801D0FDF7EDF97F1EEEE784F84460BB
:1040A000FEF726FBF1BD38B50400FEF707FBA06B59
:1040B000002801D1012500E00025FEF719FB2800AA
:1040C00032BD38B50400FEF7F9FAA06BE16B884207
:1040D00001D1012500E00025FEF70AFB280032BDD2
:1040E00010B40023082B0CD2074C54F83320002ABC
:1040F00005D144F8331004EBC302506001E05B1CAF
:10410000F0E710BC70470000C02F0020F8B5040095
:104110000D0016002700FEF7D1FA97F9440010F1C0
:10412000010F02D1002087F8440097F9450010F1F3
:10413000010F02D1002087F84500FEF7D9FAB86BCD
:10414000002805D13200290017F12400FDF7DEF820
:104150003800FFF771FFF1BDF8B504000D0016003F
:104160001F00FDF7BEFADFF8E01141F82400DFF888
:10417000DC0140F82450DFF8D8010655DFF8D401FF
:1041800040F82470F1BD0100DFF8C00150F82100B3
:10419000002801D13BA0FFE7704738B50024FDF7A8
:1041A000A0FA05000020022807DADFF89C1151F878
:1041B0002010A94206D0401CF5E7DFF89C0100F072
:1041C0005AFF200032BDF8B506000C00002C01D1CA
:1041D0000120040014F1010F02D15FF0FF30040050
:1041E000DFF8640150F82600002801D1012023E007
:1041F000300002F085FADFF86471FDF703FF002557
:104200000019694107EBC602C2E900012100002044
:10421000FDF77DFB002801D1012500E000250020ED
:10422000002107EBC602C2E90001300002F093FA58
:1042300095F001052800C0B2F2BD38B50400DFF8E2
:10424000081151F8240000280BD051F82450FDF734
:1042500048FA854205D00023022200212800FDF7FC
:104260009BFB31BD10B50400DFF8DC2052F82400C0
:10427000002804D0002152F82400FDF721FC10BDD5
:1042800000000000000000002DE9F0412DED028B40
:104290008CB0DFF8CC0000F0A0FE0027022F48DA37
:1042A000DFF8A40050F82760002E40D0052301223B
:1042B00002A93000FDF786F9DFF89880BDF82800E4
:1042C000800002F08DFA04000D0058F8270002F07B
:1042D00087FA02000B002000290002F08FFA41EC5F
:1042E000180B53EC182B0020DFF8781002F0AAFB13
:1042F000CDE9000158F82730BDF828008200039965
:10430000DFF8640000F069FEBDF828007D280ED2B9
:104310000024082C0BDADFF8540000F087FE042C90
:1043200003D1DFF84C0000F081FE641CF1E77F1C34
:10433000B4E704A000F051FE0CB0BDEC028BBDE868
:10434000F08100000A000000583200206032002096
:10435000883300206832002044070008D83100204C
:104360005407000800005940640700088807000847
:10437000C00700082DE9F0410400DFF8F8040460EC
:10438000DFF8F4548022002315F10800FFF71CF831
:104390004022002315F13000FFF716F8DFF8DC5457
:1043A0008022002315F10800FFF70EF840220023B9
:1043B00015F13000FFF708F8DFF8C454802200231D
:1043C00015F10800FFF700F84022002315F1300036
:1043D000FEF7FAFFDFF8AC540FF2411843464FF4F2
:1043E0001672DFF8A414280002F0C1FC4FF4165135
:1043F000002002F0D0FDDFF8946443464FF41672BB
:10440000DFF88C14300002F0B2FC5FF4E13002F00F
:1044100018FE0FF22131300000F07DFEDFF87474D9
:1044200043464FF41672DFF87014380002F09FFC18
:104430004FF41651002002F067FE5FF00008B8F15B
:104440000A0F11DADFF85414280000F066F9DFF8DB
:104450005014300000F061F9DFF84814380000F023
:104460005CF918F10108EAE7BDE8F081F8B5DFF87A
:104470000014087800280FD000200870DFF8280406
:104480000078800608D503F0F5F8002802D002F085
:10449000E0FD01E002F00CFE00250027DFF8EC63F0
:1044A0003C00E4B2300000F057F80443002C01D087
:1044B000012700E000273C00E4B2DFF8C80300F069
:1044C0004BF80443002C01D0012400E00024DFF865
:1044D000DC030068002806D001200400002200212F
:1044E000300000F027F925432000C0B20028D4D1C5
:1044F000DFF8BC632800C0B2002807D00120060006
:10450000FDF780FDDFF8AC23C2E900013100DFF8E0
:1045100064030068FFF757FEF1BD000038B50400E2
:104520000D00DFF8500301684FF6FF72914202D090
:104530000068FFF797FE31BD0100DFF850038142AC
:1045400002D1DFF8380306E0DFF83803814201D1F9
:10455000C94800E0002070477CB505002800FFF73F
:10456000EBFF0400002C01D100207AE0280002F0CB
:10457000CEFC002801D1002073E014F10802AA212A
:10458000CD48FEF733FF207900280CD014F1080045
:10459000FEF7F1FFC9480068FFF74FFE3220FDF734
:1045A0003EFD01205DE0280002F0CFFC06002068FF
:1045B00000280ED122000021002003F06BF9002812
:1045C00005D014F10800FEF7D6FF002049E00020D6
:1045D00020713000C0B20A280AD16079002807D0C3
:1045E0000020607114F10800FEF7C5FF012038E0DB
:1045F0003000C0B20D2803D03000C0B20A2818D154
:104600003000C0B20D2801D1012000E0002060710F
:10461000AA4801684FF6FF72914204D0012121712E
:104620000068FFF70AFE14F10800FEF7A4FF01205E
:1046300017E0002060718DF8006000208DF8010007
:104640006946206803F028F8002805D014F1080016
:10465000FEF791FF002004E014F10800FEF78BFF45
:10466000012076BD9549086070472DE9F0410500AD
:104670000E00170098462800FFF75EFF0400002C8C
:1046800001D100202BE02068002801D1002026E085
:1046900014F10802F4218848FEF7A8FE20680028DB
:1046A00005D114F10800FEF766FF002017E020791D
:1046B000002805D114F10800FEF75DFF00200EE090
:1046C0002068006930602068806838606F488542E3
:1046D00001D1012000E0002088F800000120BDE8A1
:1046E000F08170B505000E002800FFF725FF0400DB
:1046F000002C11D03000C0B2002809D0206800285A
:1047000004D0206803F0DBF8002020600020207136
:1047100014F10800FEF72FFF70BD38B504000D003E
:10472000280000F023FC02002900200000F002F81D
:1047300031BD00002DE9F84F06000F00140000F015
:10474000CAFC00281AD0594DD5F80080D8F1780855
:10475000A04500D24446A146BA465948296800EB14
:10476000010B4A465146584601F076FF286820184A
:10477000286040480068FFF775FD2AE03000FFF729
:10478000DBFE0500002D24D015F1300240F23B1174
:104790004948FEF72BFEDFF81481D8F80000002806
:1047A0000AD04FF4FA73D8F800204549300002F0DF
:1047B0003EFA0020C8F80000002C06D04FF4FA732F
:1047C00022003900300002F032FA15F13000FEF715
:1047D000D2FEBDE8F18F2DE9FC41070088461600A6
:1047E0003800FFF7A9FE0400002C3DD014F1300280
:1047F00040F24D113048FEF7F9FD002E07D14FF47D
:10480000FA73022219A1380002F011FA28E06A4670
:10481000B11C404600F0A9F80500002D0ED04FF461
:10482000FA7332004146380002F001FA4FF4FA738D
:1048300002220EA1380002F0FAF911E00D200099D1
:104840008855761C0A2000998855761C4FF4FA7317
:1048500032000099380002F0EAF9009800F056F8AA
:1048600014F13000FEF787FEBDE8F3810D0A000069
:104870008D33002084000020C82C0020182C00203C
:10488000702C002034280020281B0020BC28002089
:10489000801D002044290020D81F00208806000821
:1048A000940600089C060008DC320020F832002044
:1048B00080EE360050320020A40600088800002058
:1048C000CC2900202DE9F84305000E002800FDF753
:1048D000CFFC0400002C08D139480168491C016054
:1048E0002900384800F0ECF90EE037480168491C0F
:1048F00001602F005FF00008A1464246390048469B
:10490000FDF782FC34600020BDE8F28310B504009E
:104910002D480168491E01602000FDF73DFD10BDD6
:104920002DE9F84F05000E00170069463000FFF72B
:10493000C9FF0400002C01D0200014E0D7F800804B
:10494000AE4201D2B14600E0A946C246DDF800B051
:104950004A465146584601F07FFE0098386040466E
:10496000FFF7D4FF0020BDE8F28F2DE9FC470400DB
:104970000D00170000203860002C05D1002D03D059
:10498000124800F09DF918E0002C01D1002014E03D
:1049900069462800FFF796FF0600002E01D0300080
:1049A0000BE0A846A146DDF800A042464946504625
:1049B00001F052FE009838600020BDE8F687000044
:1049C000B83200204C030008B43200207003000805
:1049D0003EB50A2414F1090F42DB2A4D01224FF49F
:1049E00000512800FDF7C5FA002001900198012C24
:1049F00001DB210000E00021091D88420EDA0020C1
:104A00000090009849F64041884203DA0098401C23
:104A10000090F6E70198401C0190E7E700224FF470
:104A200000512800FDF7A5FA002001900198012C03
:104A300001DB210000E00021091D88420EDA002080
:104A40000090009847F23051884203DA0098401CE9
:104A50000090F6E70198401C0190E7E7641EB9E773
:104A600037BD10B504002000C0B2002801D00122DB
:104A700000E00022D2B24FF400510248FDF779FA6B
:104A800010BD0000000C00482DE9FD4F82B00F0062
:104A9000DDF838A00024BAF1000F05D00020CAF8D4
:104AA000000000200F99086038787B281AD09DF804
:104AB0001000002803D17A4800F002F9DEE0380047
:104AC00002F006FF0500002D0AD09DF8080000281E
:104AD00006D1280000F098F901006AA000F0A6FABB
:104AE0000020CBE0380003F051FD0500002D0BD174
:104AF0006C49380004F0D5FA002801D00020BDE050
:104B0000694800F0DDF8B9E000208DF800005EA1F2
:104B1000280004F0DDFA804698F80000002812D141
:104B20005AA1280004F0D4FA804698F80000002822
:104B300006D1280003F057F85C4800F0C1F89DE06A
:104B400001208DF8000004F069FA0600002E06D15D
:104B5000280003F048F8564800F0B2F88EE00FF253
:104B600030194946280004F0D9FA51EC100B04F032
:104B7000B9FB01900198002808D0019801F030FE9F
:104B800041EC100B4946300004F0ECF9002000F035
:104B9000C7FA81464749280004F0E0FA002803D00C
:104BA0004846C0B200F0BCFA9DF8080000280CD1BD
:104BB0004846C0B200F0B4FA36A000F025FA38003A
:104BC00000F022FA34A000F01FFA98F80400002840
:104BD00001D0002009E005223749404604F094FB4B
:104BE000002801D1012000E00020002803D030007F
:104BF0002E00050004E04146304800F061F8040052
:104C00009DF80800002803D14846C0B200F088FA99
:104C1000280002F0E8FF9DF80000002804D03000D2
:104C200002F0E1FF002029E0002C04D0300002F067
:104C3000DAFF200022E0BAF1000F03D1300002F0C9
:104C4000D2FF1AE0300003F00FFD8346300002F07F
:104C5000CAFFCAF800B0584600F088F90F990860FA
:104C60009DF80800002808D10CA000F0CDF95846A6
:104C700000F0CAF908A000F0C7F9002005B0BDE8AF
:104C8000F08F000025730A0072657100636D640087
:104C9000696400003E3E20000A0000003C3C200009
:104CA000D4050008EC050008F4050008100600080B
:104CB0002C060008440600084C06000854060008AC
:104CC0000FB42DE9F84FC4B004A802904FF48077D8
:104CD0000020029908704E98002801D100208EE033
:104CE0004FA80390039B4E9A3900029804F040FBB2
:104CF000944C220036219448FEF778FB04A800F07B
:104D000035F905006D1C914E3088D0F54070A842F1
:104D100001DA00203080002104AA505C002805D070
:104D200040F2FF2330881B1A99420FD1DFF820820E
:104D30000020328811FA82F208F802003788DFF882
:104D40001492B9F80000002815D13DE0505C2028ED
:104D500009DB505C7F2806DA505C7D4A338811FA03
:104D600083F3D05405E03F20794A338811FA83F366
:104D7000D054491CD0E7B9F80000B0F1010A38005E
:104D800080B240440190019800F0F0F883467248E8
:104D9000514689B230F8110040440090009800F06C
:104DA000E5F88046C3450FD15A460099019804F0B2
:104DB000ABFA002808D12000FEF7DDFB1FFA8AFAC3
:104DC0001AF1010A50461AE0308828183080B9F8E4
:104DD00000000F2802DB0020A9F80000B9F80060ED
:104DE000761C5D48B9F8001020F81170B9F8000081
:104DF000401CA9F800002000FEF7BDFB300045B0C4
:104E0000BDE8F00F5DF814FB2DE9F0410400002C23
:104E100001D14AA03AE02000451E280080B20F28A8
:104E200001DB4E4832E0474E320079214648FEF71A
:104E3000DDFA494F280080B237F81000B0F5407F06
:104E400004DB3000FEF797FB45481FE0DFF80081E8
:104E5000002088F8FF02280080B237F810000028F0
:104E60000DD0280080B237F81000404410F8010C33
:104E7000002804D03000FEF77EFB3A4806E0300000
:104E8000FEF779FBADB237F815004044BDE8F0817C
:104E90002DE9F74F84B034480190019800F066F88E
:104EA000050027A6300000F061F807000498FFF71E
:104EB000ABFF8046404600F059F8814619EB050AE1
:104EC00017EB0A0A69465046FFF7FCFC0400002C69
:104ED00001D020002FE0039501980290DDF800B08A
:104EE000039A0299584601F0B7FB002048450FD2BB
:104EF00018F80010222904D12721009A4319D1540F
:104F000004E018F80010009A4319D154401CEDE752
:104F100003970296009819EB050100EB010B039A29
:104F20000299584601F098FB009805990860069888
:104F3000C0F800A0002007B0BDE8F08F000000001E
:104F4000227D000000000020B80200088633002007
:104F50003015002084330020B0300020E802000823
:104F6000FC020008140300084003000800F10103DC
:104F7000810704D010F8011B820781B1FAD10268C1
:104F8000A2F10131914311F0803104BF50F8042F98
:104F9000F6E709BAB1FA81F100EBD100401CC01A62
:104FA000704703681AB95A1E02600846704719789C
:104FB00011B94FF0FF307047591C016018787047E5
:104FC000BFF34F8F3C490A6812F4E0623B4802434A
:104FD0000A60BFF34F8F00BFFDE70EB430B5C0B01D
:104FE000040043AD2B0022004FF48071684604F0AA
:104FF000BFF96846FFF7BAFF0100684600F079F88C
:1050000040B030BC5DF810FB10B504002000FFF785
:10501000ADFF0100200000F06CF810BD38B50400B1
:105020000D002900200000F064F831BD0EB430B549
:10503000C0B0040043AD2B0022004FF480716846DD
:1050400004F096F96846FFF791FF0100684600F00A
:1050500050F840B030BC5DF810FB10B504001848A3
:10506000FFF7D2FF2000FFF7CFFF1648FFF7CCFF76
:1050700000F02AF810BD10B504002000FFF7EDFF86
:10508000FFF79EFF10BD0100002901D109A010E02B
:1050900008000A78491C1300DBB2002B09D013006A
:1050A000DBB22F2B03D01300DBB25C2BF1D1080055
:1050B000EFE77047000000000CED00E00400FA0587
:1050C000E0010008E801000880B500F00DF80028B4
:1050D00000D000BE01BD55480068C00501D00120C8
:1050E00000E00020C0B270475148006810F0010095
:1050F000704738B504000D004E480078002809D0EC
:105100004D4B1868002805D02A0021004B48006844
:105110001B68984731BD494A1060474A1160704783
:105120000100444A10781170C0B2704718B585B0BC
:10513000FFF7DAFF002806D004F04AF904F054F92A
:1051400004F05EF91FE0142100226C462000FDF7F8
:105150005BF803200190002002904FF48040009003
:1051600069465FF09040FCF765FD4FF400500090F9
:1051700069465FF09040FCF75DFD04F02FF904F004
:1051800039F904F043F906B010BD10B500202C49E0
:10519000086000202B49086000202B490860234844
:1051A000016851F00071016072B60020082806D233
:1051B0005FF0FF31254A42F82010401CF6E700203E
:1051C000082806D25FF0FF31214A42F82010401C27
:1051D000F6E72048016831F4E0210160BFF34F8F0A
:1051E000BFF36F8F1C480121026861F30202026065
:1051F000BFF34F8FBFF36F8FEFF31480800709D594
:10520000EFF3098080F30888EFF3148030F0020098
:1052100080F314881148124908601048006880F330
:10522000088810480468A04710BD000004ED00E0A5
:10523000F0ED00E08A330020B0320020AC320020D4
:1052400014E000E018E000E010E000E080E100E0A1
:1052500080E200E024ED00E0000001400000FF1FBC
:1052600008ED00E00400FF1F10B586B000208DF8A7
:10527000040000208DF8050000208DF806000020B5
:10528000049000200590524C002201A9200000F05B
:1052900018F9002801D000F0E5FD01208DF800008C
:1052A00001208DF8010001208DF8020014208DF8F6
:1052B000030000226946200000F07EF9002801D09A
:1052C00000F0D0FD06B010BD18B58BB02C21002227
:1052D0006C462000FCF798FF3D4C3E4820600020C3
:1052E00060601F20A06040F2FF30E060002020617D
:1052F000002060610020A0610020E061200000F03B
:105300007BF8002801D000F0ADFD002001900020C6
:1053100005904FF480700A9000226946200000F04A
:10532000B1F9002801D000F09DFDFFF79DFF00F0CE
:105330003DF80CB010BD30B599B0040060210022DA
:1053400001AD2800FCF760FF2068224988422BD17C
:105350005FF4003001904FF48070189001A804F0C1
:105360005DF8002801D000F07DFD1B48016851F474
:10537000004101601948016851F4806101600068D2
:1053800010F480600090009800220521292004F08C
:1053900037FB292004F049FB00220521032004F0FB
:1053A0002FFB032004F041FB19B030BD80B50C4841
:1053B0000C49096889000C4A1268B1FBF2F1491ED8
:1053C000016000220168024800F05CFC01BD0000A1
:1053D0008C300020002800409010024058100240FD
:1053E000F43200207C0000208000002010B5040072
:1053F000FBF702FB10BD000070B504000125002C76
:105400005CD094F82100002805D1002084F8200009
:105410002000FFF790FF022084F821002068C06878
:10542000C00642D4CA2021684862532021684862DD
:10543000200000F0B5FB06003000C0B200281AD1F1
:1054400020688168DFF8FC070140206881602068DF
:1054500081686068014320690143A06901432068B5
:105460008160E0682168086120680069A16850EAED
:10547000014021680861200000F0B8FB0500280009
:10548000C0B200280DD12068C06C8008800021685F
:10549000C8642068C16CE069014360690143206809
:1054A000C164FF202168486201E000200500280057
:1054B000C0B2002802D1012084F821002800C0B227
:1054C00070BD2DE9F04705000E00140095F820008E
:1054D000012801D102206DE0012085F82000022082
:1054E00085F82100CA20296848625320296848624B
:1054F000280000F055FB80464046C0B200284AD143
:10550000002C20D128688068400601D40020F0706B
:10551000307800F0A9FB8246707800F0A5FB814648
:10552000B07800F0A1FB5FFA8AFA5FFA89F95FEAC6
:10553000092959EA0A49C0B250EA0909F07859EA3A
:1055400080594F4610E028688068400601D400204A
:10555000F07030787178090251EA0041B078014367
:10556000F07851EA80510F00DFF8DC0638402968F6
:1055700008602868806830F480202968886028687E
:105580008168F06801433069014328688160280020
:1055900000F02CFB8046FF20296848624046C0B2DC
:1055A000002802D1012085F82100002085F8200084
:1055B0004046C0B2BDE8F0872DE9F04105000E007D
:1055C000140095F82000012801D1022058E00120A4
:1055D00085F82000022085F82100002C07D1707882
:1055E000C00604D5707810F0EF000A307070002CFF
:1055F00016D1F07800F038FB8046707800F034FB6C
:105600000700B07800F030FB5FFA88F8FFB23F0285
:1056100057EA0847C0B20743307857EA403709E0F5
:10562000F07877783F0257EA0047B0780743307840
:1056300057EA4037CA2029684862532029684862DF
:10564000280000F0ADFA80464046C0B2002808D1DC
:10565000DFF8F805384029684860280000F0C6FAED
:105660008046FF20296848624046C0B2002802D127
:10567000012085F82100002085F820004046C0B2B6
:10568000BDE8F0812DE9F84305000E00140095F8FF
:105690002000012801D10220D9E0012085F8200056
:1056A000022085F82100002C2DD128688068400652
:1056B00001D40020F070306A0028FFD0307800F06C
:1056C000D3FA8046707800F0CFFA0700B07800F087
:1056D000CBFA814696F8240000F0C6FA5FFA88F803
:1056E000FFB23F0257EA08475FFA89F959EA07070C
:1056F000F17857EA8157C0B257EA0067306A07432A
:105700007069074317E028688068400601D40020CC
:10571000F070307877783F0257EA0047B078074357
:10572000F07857EA805796F8240057EA0067306A05
:10573000074370690743D6F80480F06950EA080807
:10574000CA2029684862532029684862B06AB0F5C7
:10575000807F39D12868806830F48070296888603B
:105760002868C06810F0800070F4C0702968C860B4
:105770002868806830F4805029688860FDF77EFDD5
:1057800081462868C068C00712D4FDF777FDB0EBEA
:10579000090040F2E9318842F3D3FF2029684862CA
:1057A000032085F82100002085F8200003204EE02A
:1057B0002868C7612868C0F844802868806850F469
:1057C00080702968886038E02868806830F400704C
:1057D000296888602868C06810F0800070F4207024
:1057E0002968C8602868806830F40050296888609B
:1057F000FDF744FD81462868C068800712D4FDF794
:105800003DFDB0EB090040F2E9318842F3D3FF20BF
:1058100029684862032085F82100002085F82000CF
:10582000032014E0286807622868C0F848802868C8
:10583000806850F4007029688860FF2029684862F9
:10584000012085F82100002085F820000020BDE817
:10585000F2832DE9F84305000E00140095F82000AE
:10586000012801D10220E5E0012085F82000022076
:1058700085F82100002C2DD128688068400601D4CD
:105880000020F070306A0028FFD0307800F0ECF98A
:105890008046707800F0E8F90700B07800F0E4F98D
:1058A000814696F8240000F0DFF95FFA88F8FFB22D
:1058B0003F0257EA08475FFA89F959EA0707F17882
:1058C00057EA8157C0B257EA0067306A07437069E8
:1058D000074317E028688068400601D40020F07074
:1058E000307877783F0257EA0047B0780743F0787E
:1058F00057EA805796F8240057EA0067306A074352
:1059000070690743D6F80480F06950EA0808CA2095
:1059100029684862532029684862B06AB0F5807FE0
:1059200039D12868806830F48070296888602868D8
:10593000C06810F0800070F4C0702968C860FDF77E
:105940009DFC81462868C068C00712D4FDF796FC0C
:10595000B0EB090040F2E9318842F3D3FF20296817
:105960004862032085F82100002085F820000320EC
:1059700060E02868C7612868C0F8448028688068AB
:1059800050F48070296888602868806850F48050DE
:105990002968886038E02868806830F400702968D9
:1059A00088602868C06810F0800070F42070296852
:1059B000C860FDF763FC81462868C068800712D480
:1059C000FDF75CFCB0EB090040F2E9318842F3D30B
:1059D000FF2029684862032085F82100002085F80F
:1059E0002000032026E0286807622868C0F8488065
:1059F0002868806850F4007029688860286880688A
:105A000050F4005029688860DFF84402016851F4BE
:105A100080210160DFF83C02016851F480210160BF
:105A2000FF2029684862012085F82100002085F8C0
:105A300020000020BDE8F28370B504000D0094F84A
:105A40002000012801D1022062E0012084F820001A
:105A5000022084F82100CA2021684862532021686E
:105A60004862B5F5807F24D12068806830F480706A
:105A7000216888602068806830F4805021688860E0
:105A8000FDF7FCFB06002068C068C00736D4FDF7B0
:105A9000F5FB801B40F2E9318842F4D3FF202168F6
:105AA0004862032084F82100002084F820000320AD
:105AB0002EE02068806830F40070216888602068DB
:105AC000806830F4005021688860FDF7D7FB06003D
:105AD0002068C068800711D4FDF7D0FB801B40F21E
