:020000040800F2
:10000000381D0020397700083F3F00084B3F0008AB
:10001000573F0008633F00086F3F000800000000E2
:10002000000000000000000000000000A918000807
:10003000773F000800000000511800085102000836
:10004000617800086578000869780008993F000821
:100050006D78000871780008FD400008074100082D
:10006000114100081B41000825410008757800086F
:10007000797800087D78000839400008434000087E
:100080004D4000085740000881780008B73F00083D
:10009000C13F0008CB3F0008D53F00082F410008B2
:1000A00085780008897800088D7800089178000824
:1000B000853F00080000000000000000DF3F00084E
:1000C000E93F000895780008997800082540000865
:1000D0002F400008114000081B4000089D780008D0
:1000E0003B4100088F3F00080000000000000000B6
:1000F0000000000000000000000000000000000000
:1001000000000000A178000800000000A5780008A9
:100110000000000000000000A9780008AD78000889
:10012000B1780008B5780008B9780008BD780008F3
:10013000C17800080000000000000000000000007E
:10014000C5780008A33F0008C9780008AD3F000843
:10015000614000086B40000807400008CD780008A7
:10016000F33F0008FD3F0008D178000800000000C0
:10017000D5780008D9780008DD7800080000000074
:10018000E1780008E5780008E97800080800000038
:10019000F0E300E0000000000000000001020304A2
:1001A000060708090000000001020304A086010000
:1001B000400D0300801A060000350C0040420F007D
:1001C00080841E0000093D0000127A000024F40023
:1001D00000366E010048E801006CDC0249444C45E1
:1001E000000000006B33000800000000A533000889
:1001F000EF330008133400082134000827340008C6
:10020000393400084F3400085534000873340008AE
:10021000546D722053766300546D725100000000DB
:1002200010B4020052B2002A06D40A01DFF89C3052
:10023000040064B21A5509E00A01DFF894300400A2
:1002400064B214F00F04234403F8042C10BC70476C
:1002500080B5DFF88000006800F0D5FC012801D0EF
:1002600000F04AFE01BD80B500217FF00400FFF7D9
:10027000D7FF01BDEFF30580002802D07FF0050015
:100280000AE0DFF854100868002803D10120086054
:10029000002001E05FF0FF30704710B5EFF30580FC
:1002A000002802D07FF005000EE0DFF82C40206827
:1002B000012807D1FFF7D7FF0220206000F01DF9C9
:1002C000002001E05FF0FF3010BD000000E400E01E
:1002D00018ED00E010E000E0E01700202DE9F847FD
:1002E00085B006000F00904699460F9C109D002C8B
:1002F00007D1502080F31188BFF34F8FBFF36F8F6A
:10030000FEE7002D07D1502080F31188BFF34F8FF7
:10031000BFF36F8FFEE75C20009000985C2807D049
:10032000502080F31188BFF34F8FBFF36F8FFEE72C
:100330000098002D19D0002C17D0AA46CAF83040DA
:1003400002208AF8590000200390CDF808A004A8E4
:1003500001900E9800904B4642463900300000F064
:100360000AF8504600F07AF801E000200490049862
:1003700006B0BDE8F0872DE9F94F81B00C001600FA
:100380000C9F0D9DDDF83880B00000905FF0A50B4C
:10039000D8F830A05A460099504600F001FED8F82F
:1003A000300000EB8600B0F1040A5FEADA0A5FEA87
:1003B000CA0A1AF00700002807D0502080F31188DD
:1003C000BFF34F8FBFF36F8FFEE7002C15D00020D7
:1003D0008146B9F1100F0CD214F8090008EB09019D
:1003E00081F8340014F80900002802D019F101093D
:1003F000EFE7002088F8430002E0002088F834008E
:10040000382F01D337200700C8F82C70C8F84C707B
:100410000020C8F8500018F1040000F003FE18F1A5
:10042000180000F0FFFDC8F81080D7F13800C8F8B8
:100430001800C8F824800020C8F85400002088F86C
:100440005800029A0199504600F096FCC8F8000046
:10045000002D01D0C5F80080BDE8F78F38B5040045
:1004600000F01AFDDFF890120868401C0860DFF801
:100470008C522868002806D12C60086801280DD10C
:1004800000F039FB0AE0DFF878020068002805D1A7
:10049000E06A2968C96A884200D32C60DFF86402E8
:1004A0000168491C016000686064DFF85C02016853
:1004B000E26A914201D2E16A0160211DDFF84C221B
:1004C000E36A1420434302EB030000F0AEFD00F0AA
:1004D000FDFCDFF82C02006800280DD02868C06AF7
:1004E000E16A884208D25FF08050DFF8E4130860C8
:1004F000BFF34F8FBFF36F8F31BD10B586B00020B3
:1005000004900020039005AA03A904A800F0C8FDE8
:10051000DFF878460498029003980190002000903C
:100520000023059ADFF868160FF22950FFF7D6FE70
:1005300020602068002801D0012400E00024012C64
:1005400002D100F0B9FD0400012C16D1502080F337
:100550001188BFF34F8FBFF36F8F5FF0FF30DFF86D
:10056000341608600120DFF8981108600020DFF8D9
:100570006413086000F029FC0AE014F1010F07D1B0
:10058000502080F31188BFF34F8FBFF36F8FFEE7CA
:1005900006B010BDDFF884020168491C0160704795
:1005A0000021DFF864010068002801D0012001006B
:1005B000DFF848010068C06A002801D0002011E07F
:1005C000DFF848010068022801D300200AE0002972
:1005D00001D0002006E0DFF8BC050268DFF8F40275
:1005E0000068101A7047F8B500250026DFF82C4285
:1005F0002068002807D1502080F31188BFF34F8F67
:10060000BFF36F8FFEE700F047FC2068401E2060BC
:100610002068002853D13848006800284FD0DFF800
:1006200068150868002824D0C868C068050015F15E
:10063000180000F021FD281D00F01EFD3248016861
:10064000EA6A914201D2E96A0160291D2F4AEB6AE8
:100650001420434302EB030000F0E7FCE86A27495B
:100660000968C96A8842DAD30120DFF8BC1508603E
:10067000D5E7002D01D000F0B1FADFF83C763C68F8
:10068000002C0CD000F044F8002803D00120DFF843
:1006900098150860641E002CF4D100203860DFF843
:1006A0008805006800280AD0012006005FF080500D
:1006B000DFF81C120860BFF34F8FBFF36F8F00F09D
:1006C00005FC3000F2BDDFF80C0200687047DFF86F
:1006D000C4140A687F490B68C3189A4207D2502194
:1006E00081F31188BFF34F8FBFF36F8FFEE70A6866
:1006F00082180A607047000020180020101800209F
:100700002C1800203C180020281800201800002079
:100710002DE9F041002741480068002876D16D4856
:100720000468641C0460002C1AD17B4908680068C6
:10073000002807D0502080F31188BFF34F8FBFF3FC
:100740006F8FFEE7D1F80080744802680A60C0F835
:100750000080DFF868050168491C016000F03EFA7E
:10076000DFF83084D8F8000084423AD36A49086838
:100770000068002804D15FF0FF30C8F8000030E0C6
:100780000868C068C068050068680600B44202D204
:10079000C8F8006025E0281D00F06EFCA86A00285B
:1007A00003D015F1180000F067FCDFF814050168AC
:1007B000EA6A914201D2E96A0160291DDFF8042545
:1007C000EB6A1420434302EB030000F02EFCE86ABE
:1007D000DFF8F4140968C96A8842C7D3012007000A
:1007E000C4E7DFF8E4040068DFF8D814C26A142014
:1007F00042438858022801D301200700DFF828046B
:100800000068002807D00120070004E0DFF8A804F2
:100810000168491C01603800BDE8F08148180020DB
:1008200010B4DFF8A8040068002804D00120DFF825
:10083000F81308602FE00020DFF8EC130860DFF801
:10084000802410681423DFF87C4403FB00F1615816
:1008500000290BD1002807D1502181F31188BFF363
:100860004F8FBFF36F8FFEE7401EEBE703FB00F3F4
:1008700004EB03014B685B684B604B6811F10804A3
:10088000A34202D14B685B684B604968C968DFF8D6
:1008900038341960106010BC704738B504000D0082
:1008A000002C07D1502080F31188BFF34F8FBFF386
:1008B0006F8FFEE7DFF81004006810F118012000C8
:1008C00000F0BFFB0121280000F002FA31BD00005A
:1008D00004ED00E02418002070B505000E0014009F
:1008E000002D07D1502080F31188BFF34F8FBFF345
:1008F0006F8FFEE7DFF8D003006810F118012800C1
:1009000000F093FB002C02D05FF0FF3006002100C6
:10091000300000F0DDF970BD141800201818002018
:1009200038B50500E868C468002C07D1502080F372
:100930001188BFF34F8FBFF36F8FFEE714F11800DC
:1009400000F09AFBDFF884030068002817D1201D0F
:1009500000F092FBDFF868030168E26A914201D27D
:10096000E16A0160211DDFF85C23E36A1420434340
:1009700002EB030000F059FB00F030F905E014F140
:100980001801DFF8040200F050FBDFF83C030068B8
:10099000C06AE16A884205D201200121DFF888227D
:1009A000116000E0002032BDDFF81013096801601B
:1009B000DFF88C130968416070472DE9F0410400AD
:1009C0000D00002C07D1502080F31188BFF34F8F0A
:1009D000BFF36F8FFEE7002D07D1502080F3118801
:1009E000BFF34F8FBFF36F8FFEE700F055FADFF8CC
:1009F000500306686768F71B286810F1010F02D1E1
:100A00005FF000081BE0DFF8B4020068216888424C
:100A100005D06068864202D35FF001080FE02868C5
:100A2000874208D22868C01B28602000FFF7BCFF5F
:100A30005FF0000803E0002028605FF0010800F08C
:100A400045FA4046BDE8F0810120DFF8DC1108607E
:100A50007047000070B5040000F077F8DFF864021A
:100A60000068022807D35FF0805013490860BFF385
:100A70004F8FBFF36F8FFFF793FD0500022DEBD370
:100A8000FFF788FD43480068DFF8B4120968884220
:100A900007D2502080F31188BFF34F8FBFF36F8FC1
:100AA000FEE7FFF77DFD0600022E02D3300000F0C6
:100AB0006DFDFFF798FDCFE704ED00E00122012076
:100AC00031490968002902D00021080011E0564987
:100AD0000968002902D0002108000AE0DFF864124A
:100AE0000968DFF864321B689B1A994201D1022120
:100AF0000800C0B2704770B50024382C09D2DFF866
:100B0000C401142101FB04F1084400F07CFA641CC8
:100B1000F3E7DFF83852280000F075FADFF83062AA
:100B2000300000F070FA184800F06DFADFF8240287
:100B300000F069FADFF80C0200F065FADFF818023D
:100B40000560DFF81802066070BD38B5DFF8105296
:100B50002868002817D000F09FF9DFF8F801C06876
:100B6000C0680400201D00F087FADFF8DC0101688E
:100B7000491E01602868401E286000F0A7F9200087
:100B800000F00AF8E2E731BD4C17002044180020BD
:100B9000DC0100084018002010B5040094F859004A
:100BA000002806D1206B00F0A1FD200000F09EFD82
:100BB00013E094F85900012803D1200000F096FDBD
:100BC0000BE094F85900022807D0502080F31188D8
:100BD000BFF34F8FBFF36F8FFEE710BDDFF87821B3
:100BE00010680068002805D15FF0FF30DFF8782139
:100BF000106007E01068C068C06801004868DFF84E
:100C0000682110607047DFF864010068002801D196
:100C1000012007E0DFF858010068002801D1022018
:100C200000E00020704700003418002070B5040078
:100C300025000026002C3DD0DFF88C00006885429E
:100C400007D0502080F31188BFF34F8FBFF36F8F11
:100C5000FEE7286D002807D1502080F31188BFF3EC
:100C60004F8FBFF36F8FFEE7286D401E2865E86A3F
:100C7000E96C88421ED0286D00281BD1281D00F089
:100C8000FBF9E86CE862E86AD0F13800A8610C482A
:100C90000168EA6A914201D2E96A0160291DDFF820
:100CA000D420EB6A1420434302EB030000F0BDF9AB
:100CB00001200600300070BD3018002038180020D8
:100CC00028180020180000201018002048180020C4
:100CD0002DE9F04105000C0019480768DFF8848011
:100CE000D8F80000001D00F0C7F915F1010F08D178
:100CF000002C06D0D8F80000011D124800F095F92C
:100D00001AE0E8190600D8F800004660BE4207D293
:100D1000D8F80000011D1148006800F092F90BE0BE
:100D2000D8F80000011D0C48006800F08AF90E4850
:100D300001688E4200D20660BDE8F081000000002C
:100D400024180020741700202018002024170020E9
:100D500038170020601700201418002018180020F1
:100D60001C18002010180020401800202C1800200B
:100D70004818002018000020001F5FF080730360F7
:100D8000001F4B085B000360001F0FF21503036098
:100D900014380260001F7FF00203036020387047A0
:100DA0007348006810F1010F07D0502080F31188BC
:100DB000BFF34F8FBFF36F8FFEE7502080F3118892
:100DC000BFF34F8FBFF36F8FFEE7E0B5694801684F
:100DD000694A914207D1502080F31188BFF34F8FA9
:100DE000BFF36F8FFEE700686449884207D1502047
:100DF00080F31188BFF34F8FBFF36F8FFEE760481A
:100E000001780191FF21017001788DF800109DF8A3
:100E1000001011F050015B4A11705B4907220A6013
:100E20009DF80020120608D50A68521E0A609DF837
:100E3000002052008DF80020F2E70A68D2F1070284
:100E4000042A07D0502181F31188BFF34F8FBFF3DD
:100E50006F8FFEE70A6812020A600A6812F4E06205
:100E60000A60019901704948016851F470010160FC
:100E7000016851F07041016000F0B2FC00203C4973
:100E8000086000F02FFD4248016851F040410160C8
:100E900000F018FD00200EBD502080F31188BFF334
:100EA0004F8FBFF36F8F32490A68521C0A6009687E
:100EB00001290AD137490968090606D080F311884B
:100EC000BFF34F8FBFF36F8FFEE770472849086865
:100ED000002807D1502080F31188BFF34F8FBFF354
:100EE0006F8FFEE70868401E08600868002802D17E
:100EF000002080F31188704780B5502080F311885E
:100F0000BFF34F8FBFF36F8FFFF702FC002803D0B2
:100F10005FF080501F490860002080F3118801BDF8
:100F2000EFF30580102811D31B4A1268125C1100E0
:100F30000A00144B1B78D2B29A4207D2502282F395
:100F40001188BFF34F8FBFF36F8FFEE70E4A126811
:100F5000124B1B6813F4E0639A4207D2502282F3CB
:100F60001188BFF34F8FBFF36F8FFEE7704700000C
:100F70000000002000ED00E071C20F4170C20F417F
:100F800000E400E0741800200018002020ED00E0CC
:100F900034EF00E004ED00E0900100080CED00E00B
:100FA00062F30F2262F31F42401810F0030308D0CF
:100FB000C91A1FD3DB0748BF00F8012D28BF20F84E
:100FC000022D130030B414461546103928BF20E90D
:100FD0003C00FAD8490728BF20E90C0048BF40F878
:100FE000042D890028BF20F8022D48BF00F8012DEC
:100FF00030BC7047C91818BF00F8012DCB0728BFB7
:1010000000F8012D704710F1080141605FF0FF31D9
:10101000816010F10801C16010F108010161002137
:101020000160704700210161704742684A6093681F
:101030008B60936859609160086103685B1C036072
:10104000704710B40B6813F1010F01D1026907E07A
:1010500010F1080254682468A34201D35268F9E7EA
:1010600054684C604C68A1608A60516008610468F3
:10107000641C046010BC7047010008698A684B68F2
:101080009A604A688B685A6042688A4201D18A68CD
:10109000426000220A610268521E026000687047C6
:1010A000034B0360034B0B6080231360704700BF4A
:1010B00094120020700B002038B586B0002400F098
:1010C00027FADFF89804006800281ED0002004905A
:1010D0000020039005AA03A904A800F011FCDFF882
:1010E00080540498029003980190022000900023FD
:1010F000059ADFF870140FF21D10FFF7EFF8286063
:101100002868002801D001200400002C07D15020BD
:1011100080F31188BFF34F8FBFF36F8FFEE720007E
:1011200007B030BD2DE9FF4704000D0016001F0079
:10113000DDF830805FF00009002C07D1502080F3EB
:101140001188BFF34F8FBFF36F8FFEE7DFF80CA45A
:10115000DAF80000002822D0009501960294062DAE
:1011600015DAFFF750FD022808D1002342466946F0
:10117000DAF8000000F096FC814610E0002300221F
:101180006946DAF8000000F08DFC814607E0002394
:101190003A006946DAF8000000F057FD81464846FB
:1011A00004B0BDE8F087F8B505000E00DFF8B8031D
:1011B0000068C068C768381DFFF75EFF97F8280011
:1011C00040071CD52B003200B9694919380000F0DE
:1011D00090F8002819D00020009000232A00002158
:1011E0003800FFF79FFF0400002C07D1502080F348
:1011F0001188BFF34F8FBFF36F8FFEE705E097F8BD
:10120000280010F0FE0087F828003800396A884767
:10121000F1BD000038B50400684600F042F8050052
:101220000099280000F003F800F08CF8F4E77CB592
:1012300005000C00FFF7AEF9684600F046F806001E
:10124000009800282AD1002C08D1AE4206D3FFF71F
:10125000CAF931002800FFF7A6FF21E0002C08D0D2
:10126000DFF8080300680068002801D1012400E0CD
:1012700000242200A91BDFF8E402006800F0E0FE71
:10128000FFF7B1F900280BD15FF08050DFF8E012D2
:101290000860BFF34F8FBFF36F8F01E0FFF7A3F933
:1012A00073BD0100DFF8C02210680068002801D17A
:1012B000012000E0002008600868002803D11068C1
:1012C000C068006800E00020704770B50400FFF7B8
:1012D000FAF90500DFF89C623068854204D200F01C
:1012E000D0F80120206001E0002020603560280057
:1012F00070BD2DE9F04104000D0016001F005FF0E5
:10130000000865602461AE420DD3F01BA1698842DC
:1013100002D30120804612E0211DDFF85002006850
:10132000FFF78FFE0BE0BE4204D2BD4202D3012084
:10133000804604E0211D8C480068FFF782FE40468D
:10134000BDE8F081F8B586B0002201A983480068A5
:1013500000F0EDFC002800F09280019800280ED5E6
:1013600002AD002D07D1502080F31188BFF34F8FBD
:10137000BFF36F8FFEE7A96868682A6890470198F5
:101380000028E1D4039806007069002802D0301DBF
:10139000FFF772FE05A8FFF798FF070001980028E5
:1013A0000ED002280CD00BD304283DD035D306280C
:1013B00006D054D3082830D002D3092834D05DE0B9
:1013C00096F8280050F0010086F82800029B3A00A9
:1013D0000299B06941183000FFF78BFF00281BD03D
:1013E0003000316A884796F82800400714D500205D
:1013F00000900023029AB069821800213000FFF7A4
:1014000091FE0400002C07D1502080F31188BFF317
:101410004F8FBFF36F8FFEE796E796F8280010F026
:10142000FE0086F828008FE796F8280050F00100AB
:1014300086F828000298B061B069002807D15020D2
:1014400080F31188BFF34F8FBFF36F8FFEE73B0030
:101450003A00B169C9193000FFF74BFF74E796F8FD
:101460002800800703D4300000F040F905E096F82A
:10147000280010F0FE0086F8280065E764E707B052
:10148000F0BD2DE9FC41DFF8E080D8F800000068ED
:10149000002834D0D8F80000C06800680500D8F8EB
:1014A0000000C068C0680700381DFFF7E5FD380080
:1014B000396A884797F828004007E4D5B869401989
:1014C0000600B54207D27E603F61391DD8F80000A2
:1014D000FFF7B7FDD7E70020009000232A00002186
:1014E0003800FFF71FFE0400002C07D1502080F3C6
:1014F0001188BFF34F8FBFF36F8FFEE7C3E7D8F8B4
:1015000000001A490A68C8F800200860BDE8F381A5
:101510007CB5FFF7C1FC114C206800281BD1164D8B
:101520002800FFF770FD154E3000FFF76CFD0E48E8
:1015300005600E48066000200090114B114A1021F2
:101540000A2000F033FA20602068002803D00E49FA
:10155000206800F060FDFFF7B9FC73BD5C18002047
:1015600060180020100200085418002058180020AD
:1015700004ED00E064180020881700209C1700206C
:10158000F4130020940F0020180200082DE9FE4FEC
:10159000040050480168A14201D2006804004E4F87
:1015A0003868400840003860DFF83081DFF830915B
:1015B000D9F80010D8F80060601E00FB0616DFF8AE
:1015C00024A1DAF80000B04202D2DAF80000361A9C
:1015D00072B6BFF34F8FBFF36F8FFFF76FFA00281C
:1015E0000DD14148D9F800100160396851F001016E
:1015F0003960D8F80010491E016062B668E0DFF873
:10160000E8B0CBF800600020C9F80000386850F05E
:1016100001003860009400200090009800F036FD32
:101620000098002804D0BFF34F8F30BFBFF36F8FF7
:10163000200000F02CFD62B6BFF34F8FBFF36F8F19
:1016400072B6BFF34F8FBFF36F8F062038603868D4
:10165000C00317D5D8F80010491E891BD9F800001F
:101660004118DAF80000814203D3D8F8000088421C
:1016700003D2D8F80000401E0100CBF80010601E15
:10168000050015E0D8F8001001FB04F1D9F80000BE
:10169000091A01910198D8F80010B0FBF1F005008B
:1016A000691CD8F8000041430198091ACBF80010D2
:1016B0000020C9F80000386850F0010038602800A8
:1016C000FFF705F8D8F80000401ECBF8000062B61E
:1016D000BDE8F78FF817002010E000E0F4170020B5
:1016E00018E000E0FC17002014E000E070B50400F2
:1016F0002600002C37D036480068404206443500AA
:10170000324968680A68104207D1502080F3118876
:10171000BFF34F8FBFF36F8FFEE72868002807D015
:10172000502080F31188BFF34F8FBFF36F8FFEE718
:1017300068680A68104216D02868002813D16A68C1
:10174000086882436A60FEF725FF22490A686868D4
:1017500082180A60280000F007F820480168491C38
:101760000160FEF740FF70BD30B41B4A1168814232
:1017700001D21268FAE7140051682144814204D171
:1017800053684168CB185360100003004168194446
:101790001568A94210D10C4914680D68AC4208D0F4
:1017A0004468116849680C1944601168096801604F
:1017B00004E00968016001E011680160824200D024
:1017C000106030BC70470000E4170020F0170020C4
:1017D0008C010008E8170020D8170020EC17002023
:1017E0001449154802684FF47A73B2FBF3F20A60A9
:1017F0007FF07F420968B2FBF1F1104A1160016885
:101800000268B1FBF2F12D22B2FBF1F10C4A11603A
:101810000C4900220A6000220B4B1A6000684FF44A
:101820007A72B0FBF2F0401E084A10600720086090
:10183000704700BFF417002010000020F8170020A8
:10184000FC17002010E000E018E000E014E000E0E9
:10185000EFF30980BFF36F8F264B1A681EF0100F4D
:1018600008BF20ED108A20E9F04F106009B44FF056
:10187000500080F31188BFF34F8FBFF36F8FFEF7D7
:10188000CFFF4FF0000080F3118809BC1968086889
:10189000B0E8F04F1EF0100F08BFB0EC108A80F3D4
:1018A0000988BFF36F8F7047124B19680868B0E85A
:1018B000F04F80F30988BFF36F8F4FF0000080F383
:1018C000118870470C480068006880F308884FF062
:1018D000000080F3148862B661B6BFF34F8FBFF388
:1018E0006F8F00DFDFF81400016841F470010160C0
:1018F000704700001018002008ED00E088ED00E0BF
:10190000034B0360034B0B604FF48073136070470D
:10191000F01200207804002070B506000C0035009D
:10192000002D07D1502080F31188BFF34F8FBFF3F4
:101930006F8FFEE7FFF7B0FA2968EA6B286C424325
:1019400001EB0200A8600020A8632868686029688D
:10195000EA6B521E286C424301EB0200E8605FF024
:10196000FF3085F8440085F84500002C12D1286925
:10197000002817D015F11000FEF7D2FF002811D073
:101980005FF08050DFF810150860BFF34F8FBFF392
:101990006F8F07E015F11000FFF735FB15F12400FC
:1019A000FFF731FBFFF792FA012070BD2DE9F843F4
:1019B00006000C0015001F00DDF82090002E07D156
:1019C000502080F31188BFF34F8FBFF36F8FFEE776
:1019D000002F07D1502080F31188BFF34F8FBFF342
:1019E0006F8FFEE7002D01D0002C01D0012000E018
:1019F0000020C0B2002807D1502080F31188BFF327
:101A00004F8FBFF36F8FFEE7002D01D1002C01D166
:101A1000012000E00020C0B2002807D1502080F350
:101A20001188BFF34F8FBFF36F8FFEE750200090F8
:101A30000098502807D0502080F31188BFF34F8FB3
:101A4000BFF36F8FFEE70098B846B8F1000F0BD0D8
:101A5000012088F84600CDF800804B46DBB22A0012
:101A60002100300000F003F84046BDE8F2832DE984
:101A7000F04105000C0016001F00DDF81880002C56
:101A800002D1C8F8008001E0C8F80060C8F83C50F6
:101A9000C8F8404001214046FFF73EFF88F84C70EF
:101AA000BDE8F0812DE9F74380460D0099460024FA
:101AB0004646002E07D1502080F31188BFF34F8F88
:101AC000BFF36F8FFEE7002D02D1306C002801D1EB
:101AD000012000E00020C0B2002807D1502080F390
:101AE0001188BFF34F8FBFF36F8FFEE7B9F1020F7D
:101AF00002D1F06B012801D1012000E00020C0B22A
:101B0000002807D1502080F31188BFF34F8FBFF317
:101B10006F8FFEE7FFF777F8002802D102980028C0
:101B200001D1012000E00020C0B2002807D15020E0
:101B300080F31188BFF34F8FBFF36F8FFEE7FFF77E
:101B4000ABF9B06BF16B884202D3B9F1020F27D128
:101B50004A462900300000F0A1F90700706A002809
:101B60000FD016F12400FEF7DBFE002814D05FF042
:101B70008050DFF824130860BFF34F8FBFF36F8FDF
:101B80000AE0002F08D05FF08050DFF80C130860E7
:101B9000BFF34F8FBFF36F8FFFF798F9012052E02B
:101BA0000298002803D1FFF791F900204BE0002CA8
:101BB00004D16846FEF7F8FE01200400FFF786F91D
:101BC000FEF7E8FCFFF768F996F9440010F1010F01
:101BD00002D1002086F8440096F9450010F1010F6B
:101BE00002D1002086F84500FFF770F902A9684687
:101BF000FEF7E3FE002820D1300000F0FDF90028B8
:101C000015D0029916F11000FEF747FE300000F0E3
:101C1000AEF9FEF7E8FC002891D15FF08050DFF8C4
:101C200078120860BFF34F8FBFF36F8F87E73000E4
:101C300000F09DF9FEF7D7FC81E7300000F097F93E
:101C4000FEF7D1FC0020BDE8FE832DE9F84F070028
:101C50000C00150098463E00002E07D1502080F35E
:101C60001188BFF34F8FBFF36F8FFEE7002C02D1B7
:101C7000306C002801D1012000E00020C0B2002813
:101C800007D1502080F31188BFF34F8FBFF36F8FC0
:101C9000FEE7B8F1020F02D1F06B012801D101205B
:101CA00000E00020C0B2002807D1502080F3118846
:101CB000BFF34F8FBFF36F8FFEE7FFF731F9EFF3FD
:101CC0001189502080F31188BFF34F8FBFF36F8FBE
:101CD000B06BF16B884202D3B8F1020F22D196F9B2
:101CE00045A0D6F838B042462100300000F0D6F8C2
:101CF00050465FF0FF3140B288420DD1706A002833
:101D000009D016F12400FEF70BFE002803D0002DA9
:101D100001D00120286003E01AF1010086F8450097
:101D2000012000E0002089F31188BDE8F28F2DE941
:101D3000F64182B080460E0000244746002F07D1AE
:101D4000502080F31188BFF34F8FBFF36F8FFEE7F2
:101D5000002E02D1386C002801D1012000E00020C3
:101D6000C0B2002807D1502080F31188BFF34F8FF5
:101D7000BFF36F8FFEE7FEF746FF002802D10398FE
:101D8000002801D1012000E00020C0B2002807D1C6
:101D9000502080F31188BFF34F8FBFF36F8FFEE7A2
:101DA000FFF77AF8BD6B002D1BD03100380000F032
:101DB000C3F8681EB863386900280ED017F1100008
:101DC000FEF7AEFD002808D05FF08050DFF8C810A5
:101DD0000860BFF34F8FBFF36F8FFFF777F80120D5
:101DE00057E00398002803D1FFF770F8002050E077
:101DF000002C04D16846FEF7D7FD01200400FFF750
:101E000065F8FEF7C7FBFFF747F897F9440010F1B4
:101E1000010F02D1002087F8440097F9450010F126
:101E2000010F02D1002087F84500FFF74FF803A902
:101E30006846FEF7C2FD002820D1380000F0CEF839
:101E4000002815D0039917F12400FEF726FD38006D
:101E500000F08DF8FEF7C7FB0028A1D15FF080509D
:101E6000DFF834100860BFF34F8FBFF36F8F97E731
:101E7000380000F07CF8FEF7B6FB91E7380000F080
:101E800076F8FEF7B0FB380000F0A8F8002887D0FD
:101E9000002004B0BDE8F08104ED00E02DE9F84F2A
:101EA00006000F0014005FF00008B56B306C0028CE
:101EB00009D1306800283AD1B068FEF7B7FE8046F5
:101EC0000020B06033E0002C14D1D6F84090BA4620
:101ED000D6F804B04A465146584600F0D9F8706822
:101EE000316C084470607068B16888421FD33068F4
:101EF00070601CE0D6F84090BA46D6F80CB04A465E
:101F00005146584600F0C4F8F068316C4942084424
:101F1000F060F0683168884204D2B068316C4942A0
:101F20000844F060022C02D1002D00D06D1E681C08
:101F3000B0634046BDE8F28F2DE9F04104000D008A
:101F4000206C002811D0E068216C0844E060E06853
:101F5000A168884201D32068E060266CE768A84643
:101F600032003900404600F093F8BDE8F081F8B542
:101F70000400FEF791FF94F94550280040B2012873
:101F80000CDB606A002809D014F12400FEF7C8FCBD
:101F9000002801D0FEF758FD6D1EEEE75FF0FF361A
:101FA00084F84560FEF792FFFEF776FF94F94470DF
:101FB000380040B201280CDB2069002809D014F158
:101FC0001000FEF7ADFC002801D0FEF73DFD7F1E9E
:101FD000EEE784F84460FEF779FFF1BD38B5040000
:101FE000FEF75AFFA06B002801D1012500E0002573
:101FF000FEF76CFF280032BD38B50400FEF74CFF39
:10200000A06BE16B884201D1012500E00025FEF7BD
:102010005DFF280032BD10B40023082B0CD2074C02
:1020200054F83320002A05D144F8331004EBC302DE
:10203000506001E05B1CF0E710BC704740160020C8
:10204000F8B504000D0016002700FEF725FF97F9EC
:10205000440010F1010F02D1002087F8440097F9E5
:10206000450010F1010F02D1002087F84500FEF76E
:102070002DFFB86B002805D13200290017F124008C
:10208000FEF72AFC3800FFF772FFF1BD704770477A
:1020900062B38B0708D0521E11F8013B00F8013BD8
:1020A00000F024808B07F6D1830740F0208000BF2A
:1020B000103A07D330B4B1E83810103AA0E838101D
:1020C000F9D230BC530724BFB1E80810A0E80810CB
:1020D00044BF51F8043B40F8043BD20724BF31F819
:1020E000022B20F8022B44BF0B7803707047121F9D
:1020F00017D35B0009D151F8043B20F8023B1B0CBD
:10210000121F20F8023BF6D20BE051F8043B00F816
:10211000013B1B0A20F8023B1B0C121F00F8013B7D
:10212000F3D238BF121D521E24BF11F8013B00F834
:10213000013BF8D870470EE002684368024408305B
:102140005FEAC37C44BF4B445B1E52F804CB43F8A8
:1021500004CB091FF9D150F8041B0029ECD17047BA
:1021600080B500F004F8002800D000BE01BD1A4878
:10217000006810F00100704718B585B0FFF7F7FF51
:10218000002806D000F03CF800F046F800F050F8C7
:102190001FE0142100226C462000FEF701FF0320FF
:1021A0000190002002904FF48040009069465FF05B
:1021B000904000F04BF84FF40050009069465FF0FB
:1021C000904000F043F800F021F800F02BF800F008
:1021D00035F806B010BD0000F0ED00E010B50024A9
:1021E000032000F092F90F2000F0BCF9002802D083
:1021F0000120040001E000F023FA2000C0B210BD6D
:102200001148016851F00101016070470E480168F2
:1022100049084900016070470B48016851F002010C
:10222000016070470848016831F0020101607047A1
:102230000548016851F004010160704702480168D7
:1022400031F0040101607047042004E0F8B4030099
:1022500000250868E840002800F0D78001260F68B4
:1022600016FA05F007403A00002A00F0CC80087901
:1022700010F00300012804D0087910F003000228B0
:102280001DD19F685FF0030C2800C0B240001CFA0B
:1022900000FC37EA0C07D1F80CC02800C0B240009F
:1022A0001CFA00FC5CEA07079F605868AE40B04328
:1022B0004E68C6F30016AE40304304005C600879F7
:1022C00010F0030003280ED0DE6803272800C0B2F8
:1022D00040008740BE438F682800C0B2400087405E
:1022E0003E433400DC60087910F00300022818D166
:1022F0002800C00803EB8000066A0F2715F00700CE
:10230000C0B280008740BE430F6915F00700C0B21D
:10231000800087403E4334002800C00803EB800063
:1023200004621E6803272800C0B240008740BE43F5
:102330000F7917F003072800C0B2400087403E43E2
:1023400034001C60486810F4403F5CD03648066892
:1023500056F001060660006810F001000090009839
:10236000324F2800800857F820605FF00F0C15F0FE
:102370000300C0B280001CFA00FC36EA0C06B3F180
:10238000904F01D1002414E02948834201D1012457
:102390000FE02848834201D102240AE02648834204
:1023A00001D1032405E02548834201D1042400E043
:1023B000072415F00300C0B28000844026432800A3
:1023C000800847F820601E4C206890434F68FF0249
:1023D00000D5104320601B4E346894434F68BF0201
:1023E00000D514433460184E306890434F68BF03E3
:1023F00000D510433060154E346894434F68FF0396
:1024000000D5144334606D1C23E7F1BC7047130002
:10241000DBB2002B03D00B009BB2836102E00B0008
:102420009BB28362704700006010024008000140C8
:102430000004004800080048000C00480010004854
:10244000080401400C040140040401400004014060
:1024500010B410F00703DFF8F84022684FF6FF01D0
:102460000A4052EA0322DFF8EC100A43226010BC53
:102470007047DFF8DC000068C0F3022070470000FE
:10248000010049B2002909D4012210F01F018A403D
:10249000314903005BB25B0941F82320704710B457
:1024A000020052B2002A05D40A012C4B040064B287
:1024B0001A5508E00A012A4B040064B214F00F0414
:1024C000234403F8042C10BC704770B4030013F0CD
:1024D0000704D4F10700052801D3042001E0D4F15A
:1024E0000700251D072D01D2002500E0E51E01266D
:1024F00016FA00F0401E0140A94016FA05F56D1EBF
:102500002A401143080070BC704710B50400200039
:10251000FFF79EFF10BD2DE9F04104000D001600ED
:102520000027FFF7A6FF8046320029004046FFF74C
:10253000CCFF0100200040B2FFF7B1FFBDE8F08101
:1025400010B50400200040B2FFF79AFF10BD000054
:102550000CED00E00000FA0500E100E000E400E01E
:1025600018ED00E02DE9F84787B0050000262B485C
:10257000016851F001010160006810F00100009055
:10258000009801A902A800F0F6FC059C002C03D1DC
:1025900000F0E4FC070002E000F0E0FC4700204807
:1025A000B7FBF0F8B8F10108DFF878905FF08040F1
:1025B000C9F8000040F2E730C9F80C00C9F80480FF
:1025C0000020C9F810000020C9F808000020C9F850
:1025D0001800484600F056FD82465046C0B200281A
:1025E00016D1484600F08BFD82465046C0B2002806
:1025F0000ED11C20FFF7A4FF102D07D200222900C6
:102600001C20FFF788FF0848056001E00120824692
:102610005046C0B208B0BDE8F08700005810024034
:1026200040420F00441400200C00002010B50400AC
:102630002068B0F1804F01D100F088FE10BD00008D
:1026400080B50D48016851F001010160006810F08B
:102650000100009000980948016851F08051016024
:10266000006810F080500090009800220F217FF049
:102670000100FFF750FF01BD6010024058100240FA
:102680002DE9FE4F0500002D01D101203AE3DFF8CE
:102690002099D9F8004014F00C04DFF82089D8F80C
:1026A000007017F003072878C00640F1C680002CA0
:1026B00003D00C2C7AD1012F78D1DFF8F0A8DAF80A
:1026C0000000800704D5A869002801D1012019E382
:1026D000DAF80000000704D5DAF8000010F0F00086
:1026E00005E0DFF868090068000910F0F000296AC9
:1026F00088421ED2286A00F063FC002801D0012025
:1027000000E3DAF8000050F00800CAF80000DAF838
:10271000001031F0F001286A0143CAF80010DFF818
:102720003009016831F47F41EA6951EA0221016010
:102730001FE0DAF8000050F00800CAF80000DAF8EC
:10274000001031F0F001286A0143CAF80010DFF8E8
:102750000009016831F47F41EA6951EA0221016010
:10276000002C06D1286A00F02BFC002801D00120A3
:10277000C8E200F086FBDFF8DC18D9F80020C2F3CD
:102780000312895C11F01F01C840DFF828180860A7
:10279000DFF824080068FFF7E5FE8DF800009DF8DB
:1027A0000000002849D09DF80000ABE2A86900288D
:1027B0002DD0DFF8F897D9F8000050F00100C9F8E3
:1027C000000000F097FE0600D9F80000800706D44C
:1027D00000F090FE801B0328F6D3032092E2D9F884
:1027E000000050F00800C9F80000D9F8001031F0DE
:1027F000F001286A0143C9F80010DFF854080168A5
:1028000031F47F41EA6951EA0221016015E0DFF805
:102810009C97D9F8000040084000C9F8000000F07B
:1028200069FE0600D9F80000800706D500F062FEB8
:10283000801B0328F6D3032064E22878C00754D510
:10284000082C03D00C2C0BD1032F09D1DFF85C0727
:102850000068800349D56868002846D1012051E20C
:102860006868B0F5803F06D1DFF84007016851F491
:102870008031016018E06868B0F5A02F0AD1DFF858
:102880002C07016851F480210160016851F4803106
:10289000016009E0DFF81407016831F4803101605C
:1028A000016831F480210160686800280ED000F0D2
:1028B00021FE0600DFF8F4060068800315D400F05E
:1028C00019FE801B6528F5D303201BE200F012FEE1
:1028D0000600DFF8D8060068800306D500F00AFE7F
:1028E000801B6528F5D303200CE22878800752D599
:1028F000042C03D00C2C15D1022F13D1DFF8AC0619
:102900000068400504D5E868002801D10120F9E1FC
:10291000DFF83C07016831F0F8512A6951EA026199
:10292000016038E0E86800281FD0DFF88096D9F809
:10293000000050F48070C9F8000000F0DBFD0600D4
:10294000D9F80000400506D400F0D4FD801B032810
:10295000F6D30320D6E1DFF8F806016831F0F8512C
:102960002A6951EA0261016015E0DFF84096D9F862
:10297000000030F48070C9F8000000F0BBFD0600D4
:10298000D9F80000400506D500F0B4FD801B0328EF
:10299000F6D30320B6E1287800072ED56869002811
:1029A00015D0DFF8A896D9F8000050F00100C9F85A
:1029B000000000F09FFD0600D9F8000080071CD43D
:1029C00000F098FD801B0328F6D303209AE1DFF87E
:1029D0007C96D9F8000040084000C9F8000000F0DB
:1029E00089FD0600D9F80000800706D500F082FDB9
:1029F000801B0328F6D3032084E12878400740F1A8
:102A000081805FF00009DFF850A6DAF80000C0000E
:102A10000DD4DAF8000050F08050CAF80000DAF85F
:102A2000000010F080500190019801208146DFF8ED
:102A30002CB6DBF80000C00513D4DBF8000050F41E
:102A40008070CBF8000000F055FD0600DBF80000B8
:102A5000C00506D400F04EFD801B0328F6D30320EA
:102A600050E1A868012806D1DFF8F405016851F0AB
:102A70000101016017E0A86805280AD1DFF8E00528
:102A8000016851F004010160016851F00101016029
:102A900009E0DFF8CC0501684908490001600168D8
:102AA00031F004010160A868002810D000F022FD78
:102AB0000600DFF8AC050068800719D400F01AFDA5
:102AC000801B41F289318842F3D303201AE100F0E0
:102AD00011FD0600DFF888050068800708D500F0C2
:102AE00009FD801B41F289318842F3D3032009E1BB
:102AF0004846C0B2012805D1DAF8000030F0805015
:102B0000CAF80000287880062ED5686A002815D0FB
:102B1000DFF85095D9F8000050F00100C9F8000026
:102B200000F0E8FC0600D9F8000080071CD400F093
:102B3000E1FC801B0328F6D30320E3E0DFF82495B3
:102B4000D9F8000040084000C9F8000000F0D2FCAD
:102B50000600D9F80000800706D500F0CBFC801BEA
:102B60000328F6D30320CDE0A86A002800F0C9802E
:102B7000A86A022840F0A380D8F80000070017F0E8
:102B80000300E96A884222D117F07000296B491EC0
:102B9000B0EB011F1BD117F4FE40696BB0EB012FA6
:102BA00015D117F07840A96BB0EBC16F0FD117F4B6
:102BB000C000E96B4908491EB0EB415F07D117F02F
:102BC000C060296C4908491EB0EB416F57D00C2CEE
:102BD00053D0DFF8D8A3DAF80000400101D5012076
:102BE00090E0DAF8000030F08070CAF8000000F0E1
:102BF00081FC8146DAF80000800107D500F07AFCFC
:102C0000B0EB09000328F5D303207BE0D8F80010CF
:102C1000DFF854040140E86A0143286B401E51EA82
:102C20000011686B51EA0021E86B4008401E51EA30
:102C30004051286C4008401E51EA4061A86B51EA9F
:102C4000C061C8F80010DAF8000050F08070CAF8CF
:102C50000000D8F8000050F08070C8F8000000F0C4
:102C600049FC0600DAF8000080014AD400F042FC7A
:102C7000801B0328F6D3032044E0012042E0DFF864
:102C80002C93D9F8000080013BD4D9F8000050F013
:102C90008070C9F80000D8F8000050F08070C8F8C3
:102CA000000000F027FC0600D9F80000800128D4BD
:102CB00000F020FC801B0328F6D3032022E00C2C1C
:102CC0001DD0DFF8E892D9F8000030F08070C9F824
:102CD000000000F00FFC0600D9F80000800106D5C6
:102CE00000F008FC801B0328F6D303200AE0D8F884
:102CF0000010DFF878030140C8F8001001E001205F
:102D000000E00020BDE8FE8F2DE9F04104000D0039
:102D1000002C01D10120B2E0DFF85473386810F0C4
:102D20000700A8420BD23868C008C00028433860AA
:102D3000386810F00700A84201D001209FE02078F9
:102D400080070DD5DFF86812086810F0F000A2685F
:102D5000904205D20A6832F0F002A06802430A608D
:102D60002078C00742D56068032806D1DFF83C020E
:102D7000006880011CD4012081E06068022806D12F
:102D8000DFF828020068800312D4012077E0606831
:102D9000002806D1DFF814020068800708D401205B
:102DA0006DE0DFF808020068400501D4012066E00C
:102DB000DFF8FC81D8F800108908890060680143B9
:102DC000C8F8001000F096FB0600D8F8000010F0DC
:102DD0000C006168B0EB810F08D000F08BFB801B0A
:102DE00041F289318842F0D3032048E020788007FF
:102DF0000CD56F49A0680A6812F0F002904205D223
:102E00000A6832F0F002A06802430A60386810F0E5
:102E1000070085420BD23868C008C00028433860DC
:102E2000386810F00700A84201D0012027E0207880
:102E3000400706D55E490A6832F4E062E068024362
:102E40000A602078000707D55948016831F46051BD
:102E5000226951EAC201016000F013F8DFF8F411B1
:102E6000534A1268C2F30312895C11F01F01C84073
:102E70005049086050480068FFF774FBC0B2BDE8D5
:102E8000F0812DE9F041002600204949096811F040
:102E90000C01DFF828C1DCF8007017F003070029E7
:102EA00003D00C291AD1012F18D1DFF800E1DEF888
:102EB00000805FEA087806D4DFF890E1DEF800E0F1
:102EC000CEF3032E03E0DEF800E0CEF3031E694EDE
:102ED00056F82E6000290CD130000AE0042903D1F5
:102EE000DFF894E1704604E0082902D1DFF88CE1B4
:102EF00070460C292DD1DCF800E01EF0030E73465D
:102F00009E46BEF1020F03D0BEF1030F03D005E0D1
:102F1000DFF864E103E0DFF864E100E0B646DCF8E6
:102F20000020C2F30212521C1500DCF80020C2F38C
:102F3000062202FB0EFEBEFBF5F2DCF800C0CCF36D
:102F4000416C1CF1010C5FEA4C0C6446B2FBF4FCD2
:102F50006046BDE8F08117480068704780B5FFF70C
:102F6000FAFF4749124A1268C2F30222895C11F043
:102F70001F01C84002BD0F2202600D4A136813F002
:102F800003034360136813F0F0038360136813F4C2
:102F9000E063C3601268D20812F4E0620261344A4E
:102FA000126812F007020A60704700000010024029
:102FB00008100240100000200C0000200C100240FD
:102FC0007CB504000025244E3068C00003D500F015
:102FD000A5FA01000FE0306850F080503060306892
:102FE00010F080500090009800F098FA01003068CE
:102FF00030F080503060B1F5007F09D1812C15D3BD
:10300000A12C02D30220050010E0012005000DE0F4
:10301000812C02D30320050008E0802C02D102207D
:10302000050003E0702C01D1012005001048026862
:10303000D208D2002A430260006810F00700A842BC
:1030400001D0012000E0002076BD00009410024075
:103050000410024094010008581002400070004023
:1030600090100240981002408C809D01FCFFEEFE03
:1030700000200240AC0100080024F40000127A0095
:10308000A401000810B50400002C01D1012035E096
:1030900094F83D00002805D1002084F83C00200071
:1030A00000F086FA022084F83D00211D206800F01F
:1030B0000FF9012084F84800012084F83E00012027
:1030C00084F83F00012084F84000012084F841008A
:1030D000012084F84200012084F84300012084F894
:1030E0004400012084F84500012084F846000120B6
:1030F00084F84700012084F83D00002010BD010045
:1031000091F83D00012801D001202FE0022081F834
:103110003D000868C06850F001000B68D86008687E
:10312000DFF84C30984208D00868B0F1804F04D0E6
:103130000868DFF84030984211D108688368DFF8EA
:10314000380003401A00062A0FD0B2F5803F0CD099
:103150000868006850F001000B68186005E0086816
:10316000006850F001000B681860002070470000F4
:10317000002C0140004001400700010070B5040030
:103180002068C56820680669B00718D5A80716D555
:103190007FF00200216808610120207720688069A3
:1031A00010F0030F03D0200000F003FA05E0200028
:1031B00000F000FA200000F0FEF9002020777007F0
:1031C00018D5680716D57FF0040021680861022031
:1031D00020772068806910F4407F03D0200000F041
:1031E000E8F905E0200000F0E5F9200000F0E3F93F
:1031F00000202077300718D5280716D57FF0080063
:1032000021680861042020772068C06910F0030F4E
:1032100003D0200000F0CDF905E0200000F0CAF94D
:10322000200000F0C8F900202077F00618D5E80645
:1032300016D57FF0100021680861082020772068EB
:10324000C06910F4407F03D0200000F0B2F905E01F
:10325000200000F0AFF9200000F0ADF90020207749
:10326000F00708D5E80706D57FF00100216808615E
:103270002000FFF7DBF9300608D5280606D57FF0D9
:10328000800021680861200000F096F9F00508D55B
:10329000280606D57FF4807021680861200000F0C0
:1032A0008CF9700608D5680606D57FF040002168C5
:1032B0000861200000F082F9B00608D5A80606D5FE
:1032C0007FF0200021680861200000F078F970BDCF
:1032D00010B40368DFF86840A04202D0B0F1804F1C
:1032E00003D133F070034A681343A0420AD0B0F10F
:1032F000804F07D0DFF84C20904203D0DFF8482001
:10330000904203D133F44073CA68134333F080030F
:103310004A69134303608A68C2620A688262A042F3
:1033200007D0DFF82020904203D0DFF81C20904225
:1033300001D10A6902630122426110BC704700009A
:10334000002C014000400140004401400348016856
:10335000034A127889180160704700BF0C180020DA
:1033600014000020806A80B2704770B50024664D5A
:103370002878002813D100F023F900F038F8634EC4
:103380004FF48071300000F0ECFB300000F093FD52
:10339000002000F07EF800F03CF8012028702000AA
:1033A000C0B270BD78B58BB0050000242C2100227E
:1033B0006E463000FDF7F4FD00F019F8544800683F
:1033C00045195FF0FF30401B0190002005904FF43D
:1033D00080700A90012269464C4800F0CFFA00281C
:1033E00001D000F0C9FD2000C0B20CB070BD10B516
:1033F000002446480168C96811F0800171F4C07169
:103400000268D1604FF4807100F0ABFB2000C0B2C5
:1034100010BD10B53E4C00F044F82060206810BD8F
:103420003B480068704710B5002400F03AF80100EE
:1034300037480068081A10BD10B5002432480078DB
:10344000002802D000F02DF80400200010BD00215B
:103450000320704730B504000025200000218902B8
:1034600041EA905180024FF47A72002300F06CFE22
:1034700030BD020000234FF47A70A0FB0201800AE5
:1034800040EA8150890A704710B5040000F0C2FF7D
:1034900010BD10B50400220002211C4800F036FDCA
:1034A00010BDF8B51B4E5FF0FF353000FFF75AFF37
:1034B00004002C1B184D2868002818D02868844266
:1034C00015D22868001BB0F57A7F10D25FF0FF3765
:1034D0003000FFF747FF3F1A3C002868844206D2BD
:1034E0002868001BB0F57A7F01D2286804002C60A0
:1034F0002000F2BD80B504480078002801D10120E9
:1035000001E0FFF7CEFF02BD75180020E016002095
:103510004C1800200028004050180020DFF88000E0
:10352000006810F4C060704710B40200B2F5007F6C
:1035300025D1DFF86C00036813F4C063B3F5007F96
:103540002AD00123046863F34A240460DFF854009E
:10355000036832204343DFF85000B3FBF0F0401C17
:103560000100DFF8480003685B0503D5002901D09E
:10357000491EF6E7006840050ED503200DE0DFF890
:103580002000036813F4C063B3F5806F04D00223F6
:10359000046863F34A240460002010BC70470000F4
:1035A000007000401000002040420F0014700040E6
:1035B0007047704770477047704770477047704753
:1035C00018B58BB02C2100226C462000FDF7E8FCDA
:1035D0003A4C3B4820601F20A06000202061002062
:1035E00060610020A0610020E061200000F07AF816
:1035F000002801D000F0C0FC0020019000200590C0
:103600004FF480700A9000226946200000F0CFF845
:10361000002801D000F0B0FC00F03DF80CB010BD67
:1036200030B599B004006021002201AD2800FDF7FB
:10363000B7FC2068224988422BD15FF4003001900A
:103640004FF48070189001A800F090FF002801D07E
:1036500000F092FC1B48016851F4004101601A48D7
:10366000016851F480610160006810F4806000908E
:103670000098002205212920FEF74DFF2920FEF7A2
:103680005FFF002205210320FEF745FF0320FEF720
:1036900057FF19B030BD80B50C480D490968890045
:1036A0000C4A1268B1FBF2F1491E01600022016868
:1036B000024800F079FB01BD00000000E016002088
:1036C00000280040901002405810024004180020CA
:1036D000040000200800002010B5040001F0C2F929
:1036E00010BD000070B504000125002C5CD094F8DA
:1036F0002100002805D1002084F820002000FFF7D9
:103700008FFF022084F821002068C068C00642D4E0
:10371000CA2021684862532021684862200000F0D6
:10372000D4FA06003000C0B200281AD1206881689F
:10373000DFF83C060140206881602068816860688D
:10374000014320690143A069014320688160E0686A
:103750002168086120680069A16850EA0140216879
:103760000861200000F0D7FA05002800C0B2002848
:103770000DD12068C06C800880002168C864206872
:10378000C16CE0690143606901432068C164FF20A6
:103790002168486201E0002005002800C0B200282E
:1037A00002D1012084F821002800C0B270BD2DE9AB
:1037B000F84305000E00140095F82000012801D1FF
:1037C0000220D9E0012085F82000022085F82100A0
:1037D000002C2DD128688068400601D40020F070AC
:1037E000306A0028FFD0307800F0D0FA8046707838
:1037F00000F0CCFA0700B07800F0C8FA814696F8DD
:10380000240000F0C3FA5FFA88F8FFB23F0257EADB
:1038100008475FFA89F959EA0707F17857EA8157AB
:10382000C0B257EA0067306A07437069074317E080
:1038300028688068400601D40020F07030787778DE
:103840003F0257EA0047B0780743F07857EA8057BD
:1038500096F8240057EA0067306A07437069074307
:10386000D6F80480F06950EA0808CA20296848623E
:10387000532029684862B06AB0F5807F39D1286842
:10388000806830F48070296888602868C06810F00B
:10389000800070F4C0702968C8602868806830F4BF
:1038A000805029688860FFF725FE81462868C06837
:1038B000C00712D4FFF71EFEB0EB090040F2E93159
:1038C0008842F3D3FF2029684862032085F821004D
:1038D000002085F8200003204EE02868C761286892
:1038E000C0F844802868806850F480702968886037
:1038F00038E02868806830F400702968886028689B
:10390000C06810F0800070F420702968C8602868D2
:10391000806830F4005029688860FFF7EBFD81462D
:103920002868C068800712D4FFF7E4FDB0EB0900F7
:1039300040F2E9318842F3D3FF202968486203202E
:1039400085F82100002085F82000032014E0286875
:1039500007622868C0F848802868806850F40070C2
:1039600029688860FF2029684862012085F82100C5
:10397000002085F820000020BDE8F2832DE9F843FF
:1039800005000E00140095F82000012801D1022046
:10399000E5E0012085F82000022085F82100002CB8
:1039A0002DD128688068400601D40020F070306A6C
:1039B0000028FFD0307800F0E9F98046707800F0F8
:1039C000E5F90700B07800F0E1F9814696F82400A7
:1039D00000F0DCF95FFA88F8FFB23F0257EA0847C7
:1039E0005FFA89F959EA0707F17857EA8157C0B2B7
:1039F00057EA0067306A07437069074317E0286891
:103A00008068400601D40020F070307877783F025B
:103A100057EA0047B0780743F07857EA805796F89E
:103A2000240057EA0067306A074370690743D6F8F5
:103A30000480F06950EA0808CA20296848625320C7
:103A400029684862B06AB0F5807F39D128688068FB
:103A500030F48070296888602868C06810F08000A1
:103A600070F4C0702968C860FFF744FD814628687B
:103A7000C068C00712D4FFF73DFDB0EB090040F26B
:103A8000E9318842F3D3FF2029684862032085F892
:103A90002100002085F82000032060E02868C7612D
:103AA0002868C0F844802868806850F480702968CD
:103AB00088602868806850F480502968886038E001
:103AC0002868806830F40070296888602868C068B9
:103AD00010F0800070F420702968C860FFF70AFDBC
:103AE00081462868C068800712D4FFF703FDB0EB59
:103AF000090040F2E9318842F3D3FF202968486287
:103B0000032085F82100002085F82000032026E00E
:103B1000286807622868C0F848802868806850F4E0
:103B20000070296888602868806850F4005029680F
:103B30008860DFF84002016851F480210160DFF8FD
:103B40003802016851F480210160FF202968486231
:103B5000012085F82100002085F820000020BDE824
:103B6000F28370B504000D0094F82000012801D103
:103B7000022062E0012084F82000022084F8210065
:103B8000CA2021684862532021684862B5F5807FC9
:103B900024D12068806830F48070216888602068B3
:103BA000806830F4805021688860FFF7A3FC06002D
:103BB0002068C068C00736D4FFF79CFC801B40F229
:103BC000E9318842F4D3FF2021684862032084F859
:103BD0002100002084F8200003202EE02068806867
:103BE00030F40070216888602068806830F40050EC
:103BF00021688860FFF77EFC06002068C0688007A7
:103C000011D4FFF777FC801B40F2E9318842F4D3EE
:103C1000FF2021684862032084F82100002084F8F6
:103C20002000032009E0FF2021684862012084F879
:103C30002100002084F82000002070BD10B5040091
:103C40005FF480204D49086020688068C0040ED56C
:103C50002068C068C0050AD52068C06810F08000E0
:103C600070F4C0702168C8602000FFF70DFC206868
:103C7000806880040ED52068C06880050AD5206859
:103C8000C06810F0800070F420702168C8602000C7
:103C900000F0E9FE012084F8210010BD38B50400D1
:103CA00037482168C860FFF725FC05002068C06818
:103CB000800608D4FFF71EFC401B40F2E931884221
:103CC000F4D3032000E0002032BD70B504000026CC
:103CD0002068C06840061BD45FF0FF302168C860D0
:103CE000FFF708FC05002068C068400610D43000CB
:103CF000C0B203280CD0FFF7FDFB401B40F2E931B6
:103D00008842F0D303200600032084F82100EAE76C
:103D10003000C0B270BD70B50400002519480168BC
:103D200031F080010160184E306880060AD420000E
:103D3000FFF7B4FF002817D0032084F821000320E8
:103D4000050011E0306830F0200030602000FFF7FF
:103D5000A5FF002804D0032084F8210003200500DB
:103D6000306850F0200030602800C0B270BD000004
:103D7000BFFF8FFF0004014008040140140401400C
:103D80005FFF03000C2800400828004001000022CB
:103D900008000300DBB20A2B02D3521C0A38F8E7F2
:103DA00050EA0210C0B27047F8B504000D001600CA
:103DB00094F82000012801D1022061E0012084F85C
:103DC0002000022084F82100CA2021684862532084
:103DD000216848622068806830F4806021688860CB
:103DE0002068C06810F0800070F490602168C8609E
:103DF0002068C068400618D4FFF77CFB07002068E5
:103E0000C068400711D4FFF775FBC01B40F2E931D1
:103E10008842F4D3FF2021684862032084F82100FF
:103E2000002084F8200003202AE0206845612068F3
:103E30008068C008C000304321688860DFF8C00097
:103E4000016851F480110160DFF8B800016851F495
:103E5000801101602068806850F48040216888608B
:103E60002068806850F4806021688860FF202168A5
:103E70004862012084F82100002084F820000020FE
:103E8000F2BD10B504005FF48010DFF87C1008600C
:103E90002068C06840050AD52068C06810F080001E
:103EA00070F490602168C8602000FFF715FC0120C5
:103EB00084F8210010BD010091F82000012801D1F3
:103EC00002201BE0012081F82000022081F821005F
:103ED000CA200A68506253200A68506208688068E5
:103EE00050F020000A689060FF200A6850620120AC
:103EF00081F82100002081F8200000207047000098
:103F000000040140080401401404014081B003682A
:103F100050330093009B13EB81030093009B1A60C6
:103F200001B07047BFF34F8F5F490A6812F4E06237
:103F30005E4802430A60BFF34F8F00BFFDE780B5C4
:103F4000FEF70EF9FFF7EEFF01BD80B5FEF708F9A9
:103F5000FFF7E8FF01BD80B5FEF702F9FFF7E2FFCA
:103F600001BD80B5FEF7FCF8FFF7DCFF01BD80B5B1
:103F7000FEF7F6F801BD704780B5FEF7F1F8FFF7E0
:103F8000D1FF01BD80B54A48FFF7F8F801BD80B503
:103F90004848FFF753FE01BD80B54648FFF771FF63
:103FA00001BD80B5444800F05FFD01BD80B54348C8
:103FB00000F0BFFD01BD80B5414801F0F7FB01BD38
:103FC00080B53F4801F0F2FB01BD80B53C4801F0EF
:103FD000EDFB01BD80B53A4801F0E8FB01BD80B5BD
:103FE000384801F0F5FC01BD80B5364801F0FFFC12
:103FF00001BD80B5344801F0EBFC01BD80B532480D
:1040000001F0F5FC01BD80B5304802F09FF801BD1C
:1040100080B52F4802F09AF801BD80B52D4802F016
:1040200095F801BD80B52C4802F082FA01BD80B53B
:104030002A4802F07DFA01BD80B5294802F071FBE3
:1040400001BD80B5274802F06CFB01BD80B5264854
:1040500002F067FB01BD80B5244802F062FB01BDA0
:1040600080B5234802F05DFB01BD80B5214802F018
:1040700058FB01BD10B50400200080B202F0CDFB5A
:1040800010BD38B504001C480168220092B21142EC
:1040900008D005682540210089B20160280080B25F
:1040A000FFF7E8FF31BD00000CED00E00400FA0569
:1040B00044140020E016002080160020780800201C
:1040C000B81600204C130020A0130020341000204C
:1040D000BC10002044110020CC1100203012002020
:1040E00090140020D8140020B0150020F8150020EE
:1040F00068150020201500201404014080B501201F
:10410000FFF7BFFF01BD80B50220FFF7BAFF01BD79
:1041100080B50420FFF7B5FF01BD80B50820FFF78B
:10412000B0FF01BD80B51020FFF7ABFF01BD80B52A
:104130004FF47870FFF7A5FF01BD80B54FF47C40C8
:10414000FFF79FFF01BD0000BBBBE1B1B2F5803FAF
:1041500080F07E80022A1ED98C46B1FBF2F102FB70
:1041600011C31B0443EA1043B3FBF2FC02FB1C33F4
:1041700080B240EA0343B3FBF2F002FB103240EAA4
:104180000C4000237047022A05D98446B0FBF2F0A8
:1041900002FB10C270474AB105D100F00102490884
:1041A0005FEA3000704700220023704702F036BB00
:1041B0000B000200002100207047904271EB030CBD
:1041C000F6D3B3F5803F2FD2F0B5B3FA83F7B1FA47
:1041D00081F4A7F10F0E3D1B5340CEF1200602FAE9
:1041E0000EF2F3415340B5F10F0746D80F3C2C4473
:1041F0004140C4F12006A040F1414140B1FBF3F63B
:1042000003FB1611A2FB0645001BA94102D2761E34
:104210008018594180EA010221FA0EF362FA0EF287
:1042200000215A403046F0BD30B4B1FBF3FC03FB33
:104230001C11A2FB0C45001BA94103D2ACF1010CDF
:104240008018594130BC02460B4660460021704739
:10425000B2F1807F65D3F0B5B2FA82F7B1FA81F49A
:10426000C7F10F063D1B22FA06F307F1110EF241CA
:1042700020355A40B5F10F07B8D94140C4F12006A6
:10428000A040F1414140B1FBF3FC03FB1C11A2FB38
:104290000C45001BA94103D2BCF1010C8018594107
:1042A0000F2F12D30F3FC90341EA5041B1FBF3F680
:1042B00003FB1611A2FB0645D4EBC030A94102D284
:1042C000761E8018594146EACC3C07B34140C7F1FD
:1042D0002006B840F1414140B1FBF3F603FB161153
:1042E000A2FB0645001BA94102D2761E8018594147
:1042F00080EA010221FA0EF3C7F1200462FA0EF2FD
:104300000CFA07F05A402CFA04F13043F0BD80EA71
:10431000010221FA0EF3002162FA0EF260465A40C1
:10432000F0BD8C46B1FBF2F102FB11C31B0243EA64
:104330001063B3FBF2FC02FB1C331B024CEA0020AF
:1043400043EA1063B3FBF2FC02FB1C331B024CEA92
:10435000002043EA1063B3FBF2FC02FB1C331B0298
:104360004CEA002043EA1063B3FBF2FC02FB1C3270
:104370004CEA0020002370472DE9F84F04005FF05D
:104380000008002C40D0200000F0A2F800283BD10B
:10439000607A002838D1EFF3108972B660680700A0
:1043A000DFF8C4A1DAF8200080470600B74200D247
:1043B0003700276000202072012060720020A07268
:1043C000DFF8A0B1DBF80000002806D1DAF8100011
:1043D0008047200000F0B6F813E0DAF818008047B4
:1043E00005002068281820602068DBF800100968A4
:1043F000884203D2200000F0A5F802E0200000F07F
:104400008AF889F3108801E0012080464046C0B256
:10441000BDE8F28F2DE9F047EFF3108572B6524EEA
:10442000706980470700306980478046B8EB07090C
:10443000DFF830A1DAF8000000280FD0DAF8000029
:1044400004002068814504D22068B0EB0900206098
:1044500001E0002020606469002CF2D1DAF800004D
:10446000002824D0DAF800000068002806D0B069DF
:104470008047DAF800100968814218D2DAF80000A3
:104480000400DAF800004069CAF800000020207239
:10449000002060722069E1688847E07A0128DDD158
:1044A000A07A0028DAD12000FFF766FFD6E7DAF815
:1044B0000000002808D0DAF80000007A002803D1B4
:1044C000DAF8000000F011F885F31088BDE8F087F5
:1044D000020024480168002905D0914201D1012041
:1044E00002E04969F7E70020704770B504001E4DEF
:1044F000286A8047060001202072A8698047216849
:104500003018814203D2A8698047301820602068A3
:10451000A968884770BD10B412490A6809684B69D8
:104520005169002909D019680468A14202D21A0011
:104530005B69F5E75061436102E050610021416130
:1045400010BC704738B5050006480468002C01D03F
:10455000002121726C6105600068FFF7C6FF31BD64
:104560000000000008180020E40100082DE9F84FC1
:1045700005005FF0000800272868000527D5686C53
:1045800000280DD0B0F5000F03D0B0F5400F0DD0CE
:104590000DE0DFF82403016851F48031016008E088
:1045A0000021281D00F099F9804602E001E0012079
:1045B00080464046C0B2002808D1DFF80C130A68D4
:1045C00032F44002686C02430A6000E04746286803
:1045D00080037AD55FF00009DFF8E0A2DAF8000086
:1045E000C0000DD4DAF8000050F08050CAF8000086
:1045F000DAF8000010F08050009000980120814609
:10460000DFF8BCB2DBF8000050F48070CBF800009B
:10461000FEF770FF0600DBF80000C00506D4FEF7C9
:1046200069FF801B0328F6D3032080464046C0B2B2
:1046300000283FD1DFF88CB2DBF8000010F44070A6
:104640000400002C15D0E86D844212D0DBF8000085
:1046500030F440700400DBF8000050F48030CBF8F8
:104660000000DBF8000030F48030CBF80000CBF81D
:104670000040E0070FD5FEF73DFF0600DBF8000025
:10468000800708D4FEF736FF801B41F2893188424B
:10469000F4D3032080464046C0B2002808D1DBF89E
:1046A000001031F44071E86D0143CBF8001002E0D6
:1046B000474600E047464846C0B2012805D1DAF82F
:1046C000000030F08050CAF800002878C00707D5F5
:1046D000DFF8F4110A6892089200286A02430A601F
:1046E0002878800707D5DFF8E0110A6832F00C025D
:1046F000686A02430A602878400707D5DFF8C811C6
:104700000A6832F03002A86A02430A6028788006FC
:1047100007D5DFF8B4110A6832F44062E86A024350
:104720000A602868800507D5DFF89C110A6832F412
:104730004022E86B02430A602868400507D5DFF88D
:1047400088110A6832F44012286C02430A60287803
:10475000400607D5DFF870110A6832F44052286B22
:1047600002430A602878000607D5DFF85C110A6862
:1047700032F44042686B02430A602868C00507D5DE
:10478000DFF844110A6832F44032A86B02430A6031
:104790002868800420D5DFF830110A6832F04062C2
:1047A000A86C02430A60A86CB0F1006F06D1DFF874
:1047B0000801016851F4801101600DE0A86CB0F1AE
:1047C000806F09D10121281D00F087F880464046FE
:1047D000C0B2002800D047462868000320D5DFF883
:1047E000E8100A6832F04062E86C02430A60E86C44
:1047F000B0F1006F06D1DFF8C000016851F48011FC
:1048000001600DE0E86CB0F1806F09D10121281D35
:1048100000F063F880464046C0B2002800D047460A
:104820002868400320D5DFF8A0100A6832F0406203
:10483000286D02430A60286DB0F1006F06D1DFF8E1
:104840007800016851F4801101600DE0286DB0F12D
:10485000806F09D10121281D00F03FF880464046B5
:10486000C0B2002800D047462868400415D5DFF8BC
:1048700058100A6832F04052686D02430A60686D51
:10488000B0F1805F09D10221281D00F026F8804692
:104890004046C0B2002800D047462868000407D52B
:1048A000DFF824100A6832F08042A86D02430A60E3
:1048B0003800C0B2BDE8F28F0C1002405810024020
:1048C000007000409010024088100240DFF8800124
:1048D000016851F00401016070472DE9F0410500C5
:1048E0000C0000275949086810F0030F12D008681F
:1048F00010F003002A68904209D12868002806D0E9
:104900000868C0F30210401C6968884232D0012058
:1049100007002FE02868012804D01BD303280FD0FC
:1049200007D317E04A480068800701D40120070038
:1049300012E047480068400501D4012007000BE061
:1049400043480268920304D40068400301D4012064
:10495000070001E0012007003800C0B2002809D19B
:104960000A6832F07302286802436868401E52EAFF
:1049700000120A603800C0B2002861D1DFF8D08090
:10498000D8F8000030F08060C8F80000FEF7B2FDF3
:104990000600D8F80000000106D5FEF7ABFD801B2D
:1049A0000328F6D3032007003800C0B2002847D1FF
:1049B000002C0BD127490A6827480240A86852EA10
:1049C0000022E86852EAC0620A601CE0012C0DD1A6
:1049D00020490A6821480240A86852EA0022286952
:1049E0004008401E52EA40520A600CE019490A6829
:1049F0001B480240A86852EA002268694008401E2D
:104A000052EA40620A60D8F8000050F08060C8F8AE
:104A10000000FEF76FFD0600D8F80000000106D484
:104A2000FEF768FD801B0328F6D30320070038003B
:104A3000C0B2002804D107490A68A86902430A6085
:104A40003800C0B2BDE8F081000000000C10024048
:104A50000010024010100240FF80FF07FF809FFF00
:104A6000FF80FFF97047704710B5040020680068A8
:104A7000C00709D520688068C00705D501202168D6
:104A80004860200001F0CBFE20680068800709D54F
:104A900020688068800705D50220216848602000D2
:104AA00001F0BEFE20680068400709D520688068D4
:104AB000400705D5042021684860200001F0B1FEC0
:104AC00020680068000709D520688068000705D5C0
:104AD000082021684860200001F0A4FE20680068DA
:104AE000C00609D520688068C00605D51020216859
:104AF0004860200001F097FE20680068800609D514
:104B000020688068800605D5202021684860200044
:104B100001F08AFE20680068400609D52068806898
:104B2000400605D5402021684860200001F07DFE48
:104B300010BD38B50400206802F08CFA0500280486
:104B400003D5200000F0DEF8C3E0680510D520682A
:104B5000B0F844104FF6FF3001402068A0F8441030
:104B6000200002F0CAFA0021200000F0B3F8B0E003
:104B7000680409D52068B0F844104BF6FF70014076
:104B80002068A0F84410A4E0A80409D52068B0F873
:104B900044104DF6FF7001402068A0F8441098E0E2
:104BA000E80429D52068B0F840104FF6FB700140AA
:104BB0002068A0F840102068B0F840104FF6F77059
:104BC00001402068A0F8401094F8E002012806D1C6
:104BD000002084F8E0020021200002F08FFA20007B
:104BE00002F08DFA2068B0F844104EF6FF700140D4
:104BF0002068A0F844106CE028051CD52068B0F8A7
:104C0000400050F008002168A1F840002068B0F88A
:104C100044104FF2FF7001402068A0F84410206853
:104C2000B0F8400050F004002168A1F840002000D6
:104C300002F066FA4DE0280630D52068B0F844103E
:104C40004FF67F7001402068A0F8441094F8E0020D
:104C500000281FD12068B0F8400050F004002168FF
:104C6000A1F840002068B0F8400050F0080021682A
:104C7000A1F84000012084F8E0022068B0F8540058
:104C8000800810F03C00C4F8E4020121200002F08A
:104C900035FA02E0200002F033FA1AE0A8050CD53C
:104CA0002068B0F844104FF6FF5001402068A0F88B
:104CB0004410200002F025FA0BE0E80509D5206831
:104CC000B0F844104FF6FF6001402068A0F844108F
:104CD000FFE731BD38B504000D0094F8A8020128A3
:104CE00001D102200DE0012084F8A80284F82450AC
:104CF0002900C9B2206802F0A3F9002084F8A802B4
:104D0000002032BD2DE9FE4F04002068B0F84400B9
:104D1000000440F171822068B0F84400ADF8020050
:104D2000BDF8020010F00F0080464046C0B20028D7
:104D300040F0F080BDF80200C00634D4206801883D
:104D400048F60F70014051F400412068018014F1D1
:104D5000280005002068B0F850002978C90009181B
:104D60002068411801F20241088880B28005800D58
:104D7000E8616869E969084468610021200002F07F
:104D8000C1F994F824000028BFD0A8690028BCD13C
:104D900094F8240050F080002168A1F84C00002015
:104DA00084F82400B1E714F5B47005002068008889
:104DB0000700380080B2000523D52068B0F8500005
:104DC0002978C90009182068411801F206410888AD
:104DD00080B28005800DE861EB699BB2EA8814F52A
:104DE0002C71206802F05EF92068018840F68F700F
:104DF000014051F0800120680180200002F083F919
:104E000083E7380080B200047FF57FAF2068018817
:104E100040F68F70014051F08001206801802068C9
:104E2000B0F850002978C90009182068411801F22B
:104E30000641088880B28005800DE861E869002895
:104E400011D0686900280ED0EB699BB2EA886969C5
:104E5000206802F027F96869E9690844686100215F
:104E6000200002F051F9206800880700380080B265
:104E700000053FF54AAF380080B210F44050B0F55D
:104E8000405F3FF442AF20682168B1F850104118EC
:104E900001F206408146B9F800008005800DA9F8AE
:104EA000000028693F280FD3286940092A7C12F0A6
:104EB0001F0F00D1401EB9F80020830253F40043B5
:104EC0001A43A9F8002015E02869002806D1B9F88E
:104ED000000050F40040A9F800000BE028694008E9
:104EE0002A7CD20700D5401CB9F8002052EA802263
:104EF000A9F80020206802884BF68F70024092F4D7
:104F0000805292F4005242F4004252F08002206833
:104F10000280FAE620684146C9B230F82100070055
:104F2000380080B2000440F1A28020684146C9B236
:104F300030F8211040F68F70014051F08001206858
:104F40004246D2B220F822104146C9B2282041433D
:104F500004EB010010F5B4700500287B002819D17E
:104F60002068B0F850002978C90009182068411855
:104F700001F2064108888005800D0600300080B2ED
:104F800000285AD033009BB2EA886969206802F091
:104F900089F852E0E878022807D13A0092B2290055
:104FA000200000F02CF9060047E02068297830F84E
:104FB000211048F68F70014041F4004151F0C001CA
:104FC00020682A7820F822102068297830F82100FB
:104FD000400419D52068B0F850002978C900091894
:104FE0002068411801F2024108888005800D060002
:104FF000300080B2002820D033009BB22A89696932
:10500000206802F04FF818E02068B0F850002978C6
:10501000C90009182068411801F206410888800576
:10502000800D0600300080B2002806D033009BB20D
:105030006A896969206802F035F8E86910FA86F033
:10504000E8616869310089B208446861A86900288C
:1050500004D0300080B22969884204D22978200027
:1050600002F052F803E02900206801F0DFFB38006D
:1050700080B200067FF549AE4146C9B228204143BF
:1050800004EB01002830050020684146C9B230F821
:10509000211048F60F70014051F40041206842464B
:1050A000D2B220F82210E878012866D10020A86149
:1050B000287B00285CD0380080B240062CD5687868
:1050C000002817D120682168B1F8501040182978BD
:1050D00010EBC10101F202418A46BAF800108905BD
:1050E000890DAAF80010BAF8001051F40041AAF88E
:1050F000001010E0687801280DD120682168B1F80F
:1051000050104018297810EBC10101F202410291C0
:105110000021029A11802BE021686878002817D1BD
:1051200020682268B2F8502080182A7810EBC2025A
:1051300002F206429346BBF800209205920DABF8AE
:105140000020BBF8002052F40042ABF800200FE032
:10515000687801280CD12068B0F850000818297828
:1051600010EBC10101F2064101910021019A118069
:105170002978200001F0C6FFC7E5380080B2C005DD
:1051800033D42068B0F850002978C9000918206885
:10519000411801F2024108888005800DADF8000039
:1051A000BDF80000A969884205D2A969BDF80000D0
:1051B000091AA96101E00020A861A869002804D1AA
:1051C0002978200001F09EFF9FE56869BDF8001076
:1051D00008446861E869BDF8001010FA81F0E861E0
:1051E0002900206801F022FB8FE53A0092B22900E5
:1051F000200000F0A8F888E50020BDE8FE8FF8B593
:1052000004000D001600300080B240044CD5206828
:10521000B0F850002978C90009182068411801F237
:1052200002410F88BF05BF0DA869390089B28842C5
:1052300005D3A969380080B2091AA96101E00020EC
:10524000A861A869002810D12068297830F82110B9
:105250004BF68F70014091F4005141F4004151F040
:10526000800120682A7820F82210300080B24006A1
:105270000ED52068297830F8211048F68F7001404B
:1052800041F4004151F0C00120682A7820F8221032
:10529000380080B2002853D03B009BB22A8969694C
:1052A000206801F0FFFE4BE02068B0F8500029783C
:1052B000C90009182068411801F206410F88BF058E
:1052C000BF0DA869390089B2884205D3A9693800A1
:1052D00080B2091AA96101E00020A861A86900282C
:1052E00010D12068297830F821104BF68F700140DA
:1052F00091F4005141F4004151F0800120682A7876
:1053000020F82210300080B240060ED420682978A0
:1053100030F8211048F68F70014041F4004151F0FF
:10532000C00120682A7820F82210380080B20028B6
:1053300006D03B009BB26A896969206801F0B2FE21
:10534000380080B2F2BD2DE9F04105000E001700D3
:10535000380080B2400640F108812868B0F850005B
:105360003178C90009182868411801F20241B1F8E2
:1053700000805FEA88585FEA9858404680B2B16979
:10538000884205D2B169404680B2091AB16101E094
:105390000020B061B069002862D17078002812D175
:1053A00028682968B1F850104018317810EBC10115
:1053B00001F202410A889205920D0A800A8852F48D
:1053C00000420A800EE0707801280BD12868296815
:1053D000B1F850104018317810EBC10101F20241D0
:1053E00000220A8029687078002812D128682A686B
:1053F000B2F850208018327810EBC20202F2064256
:1054000013889B059B0D1380138853F4004313806E
:105410000DE0707801280AD12868B0F8500008180B
:10542000317810EBC10101F2064100220A80317887
:10543000280001F067FE380080B2400440F1A081EE
:105440002868317830F8211048F68F70014041F417
:10545000404151F080012868327820F822108FE115
:10546000380080B240040ED52868317830F8211019
:1054700048F68F70014041F4404151F080012868A6
:10548000327820F8221096F82400012840F0788124
:105490007069414689B208447061F06910FA88F079
:1054A000F061306A3169884205D330690400306A9E
:1054B000001B306210E0306A002806D1404680B2FE
:1054C0000400002086F8240006E0002086F824006E
:1054D000306A040000203062707800282FD12868DC
:1054E0002968B1F850104018317810EBC10101F271
:1054F00002410A889205920D0A803F2C0ED32200A9
:10550000520914F01F0F00D1521E0B885FEA822C43
:105510005CF4004C5CEA03030B800FE0002C04D128
:105520000A8852F400420A8008E022005208E30789
:1055300000D5521C0B8853EA82230B800DE0707853
:1055400001280AD128682968B1F85010401831782C
:1055500010EBC10101F202410C8023009BB23289A1
:105560007169286801F07AFD0AE12868B0F85000F6
:105570003178C90009182868411801F20641B1F8CC
:1055800000805FEA88585FEA9858B069414689B25E
:10559000884205D3B169404680B2091AB16101E081
:1055A0000020B061B069002862D17078002812D163
:1055B00028682968B1F850104018317810EBC10103
:1055C00001F202410A889205920D0A800A8852F47B
:1055D00000420A800EE0707801280BD12868296803
:1055E000B1F850104018317810EBC10101F20241BE
:1055F00000220A8029687078002812D128682A6859
:10560000B2F850208018327810EBC20202F2064243
:1056100013889B059B0D1380138853F4004313805C
:105620000DE0707801280AD12868B0F850000818F9
:10563000317810EBC10101F2064100220A80317875
:10564000280001F05FFD380080B2400400F198802E
:105650002868317830F8211048F68F70014041F405
:10566000404151F080012868327820F8221087E00C
:10567000380080B240040ED42868317830F8211008
:1056800048F68F70014041F4404151F08001286894
:10569000327820F8221096F82400012870D1706921
:1056A000414689B208447061F06910FA88F0F061EF
:1056B000306A3169884205D330690400306A001BC2
:1056C000306210E0306A002806D1404680B2040003
:1056D000002086F8240006E0306A040000203062D2
:1056E000002086F8240029687078002834D12868C2
:1056F0002A68B2F850208018327810EBC20202F209
:10570000064213889B059B0D13803F2C10D323006A
:105710005B0914F01F0F00D15B1EB2F800C05FEAF6
:10572000832E5EF4004E5EEA0C0CA2F800C012E07C
:10573000002C04D1138853F4004313800BE02300A2
:105740005B085FEAC47C00D55B1CB2F800C05CEA71
:10575000832CA2F800C00CE07078012809D12868D9
:10576000B0F850000818317810EBC10101F2064181
:105770000C8023009BB272897169286801F06EFC6D
:105780002868317830F8211048F6BF70014091F058
:10579000100191F0200141F4004151F0800128688E
:1057A000327820F822100020BDE8F0812DE9F84F72
:1057B0000500002428684669286847682868D0F8EA
:1057C00008802868D0F80C902868D0F810A02868C5
:1057D000D0F818B0F00755D55FEAC87018D5012089
:1057E000296888605FEA887003D5280001F08DFC85
:1057F0000EE05FEA487002D554F4006408E05FEA06
:10580000087002D554F4805402E0280001F07EFCB8
:105810005FEAC85019D54FF48070296888605FEA44
:10582000885003D5280001F072FC0EE05FEA485072
:1058300002D554F4005408E05FEA085002D554F44D
:10584000804402E0280001F063FC5FEAC83019D50B
:105850005FF48030296888605FEA883003D52800CB
:1058600001F057FC0EE05FEA483002D554F40044E2
:1058700008E05FEA083002D554F4803402E02800E2
:1058800001F048FC300707D55FEAC96004D554F43D
:10589000007410202968C860700708D55FEA097095
:1058A00005D508202968C860280001F034FCB0073D
:1058B00007D52868C06810F0030F02D0280001F057
:1058C0002BFC700607D55FEACA6004D554F48064E7
:1058D000102029680861B00608D55FEA0A7005D56E
:1058E000082029680861280001F017FCF00607D598
:1058F0002868006910F0030F02D0280001F00EFCA8
:10590000B00307D5F80605D510202968486028009F
:1059100001F005FCF00307D5380705D508202968F4
:105920004860280001F0FCFB300447D5780742D5D9
:10593000F00506D51BF00100C0B2002801D054F0DC
:105940000104B00504D55FEA8B7001D554F0020460
:10595000700504D55FEA4B7001D554F0040430059E
:1059600029D51BF0700F26D01BF0700010280AD02C
:1059700020280BD030280CD040280DD050280ED035
:1059800060280FD011E054F008040EE054F0100429
:105990000BE054F0200408E054F0400405E054F01B
:1059A000800402E054F48074FFE72868806930F0D6
:1059B000700029688861042029684860002C05D09F
:1059C000686A20436862280001F0ABFBBDE8F18FF4
:1059D00070B504002068856920680668606B00283F
:1059E00004D0320029002000636B984770BDF8B5E1
:1059F00004002068856920680668E80509D5300636
:105A000007D5606C50F0010060644FF4807021682D
:105A1000C861680509D5300607D5606C50F00800EC
:105A200060644FF480602168C861A80509D530061C
:105A300007D5606C50F0020060644FF4007021687C
:105A4000C861676C17F00B0F03D03900200000F01D
:105A500052FAF1BD2DE9F04105000E001700EC6A85
:105A6000B04695F84000012801D1022092E00120C3
:105A700085F840005FEA886005D5B80603D5414641
:105A8000280000F039F95FEAC86037D5F80635D547
:105A9000688D002821D195F84100282807D1B4F15C
:105AA000007F04D14146280000F0F0F96EE095F83F
:105AB000410029280DD1DFF83C02844209D0102092
:105AC0002968C861280000F0D6FA280000F0D2F852
:105AD0005CE010202968C86158E010202968C8617E
