:020000040800F2
:10000000402A00207D580008BB2F0008BD2F0008A3
:10001000C92F0008CB2F0008CD2F000800000000DA
:100020000000000000000000000000003112000885
:10003000D12F000800000000D9110008F1010008CC
:100040009D590008A1590008A5590008E12F000892
:10005000A9590008AD590008C5300008C93000088A
:10006000CD300008D1300008D5300008B159000863
:10007000B5590008B9590008373000083D3000086C
:100080004330000849300008BD590008F32F00082C
:10009000F52F0008FD2F0008FF2F0008D9300008B9
:1000A000C1590008C5590008C9590008CD590008B0
:1000B000D52F0008000000000000000001300008FB
:1000C00007300008D1590008D55900082B30000826
:1000D000313000081F30000825300008D9590008C9
:1000E000DF300008DB2F00080000000000000000E7
:1000F0000000000000000000000000000000000000
:1001000000000000DD59000800000000E15900086F
:100110000000000000000000E5590008E95900084F
:10012000ED590008F1590008F5590008F95900087F
:10013000FD59000800000000000000000000000061
:10014000015A0008E72F0008055A0008ED2F0008A3
:100150004F3000085530000819300008095A0008CF
:100160000D300008133000080D5A00080000000090
:10017000115A0008155A0008195A0008000000001A
:100180001D5A0008215A0008255A000800000000E6
:1001900001020304A0860100400D0300801A06003E
:1001A00000350C0040420F0080841E0000093D0015
:1001B00000127A000024F40000366E010048E801C5
:1001C000006CDC024F2600080000000085260008B5
:1001D000C5260008E3260008EF260008F5260008DB
:1001E0000327000813270008172700082527000801
:1001F00080B5DFF87000016800F067FB012803D0CC
:10020000BDE8014000F082BC01BDEFF3058000B104
:1002100025E0DFF85410086810B901220A60704721
:100220004FF0FF307047000080B5EFF3058000B15C
:100230000FE0DFF834000168012909D1DFF82C1044
:1002400000220A700223036000F0ECF8002002BDD7
:1002500002E06FF0050002BD4FF0FF3002BD6FF00D
:100260000500704710E000E0702500201FED00E061
:10027000F0B585B050260B9D25B986F3118800F0A6
:1002800063FBFEE70C9C24B986F3118800F05CFB4D
:10029000FEE75C270097DDF800E0BEF15C0F04D0BC
:1002A00086F3118800F050FBFEE7009E25630026D0
:1002B000022584F8595004AF0A9D039602940197D1
:1002C000009500F006F8204600F04AF8049805B0C2
:1002D000F0BD2DE9F0470A9F81460C461546386B64
:1002E0009A46A522A90000F075FC396B01EB850246
:1002F000101FC0084FEAC00808F0070007F13405D6
:1003000054B10021625C6A54605C10B1491C102930
:10031000F8D30020E87300E02870089E372E88BFCD
:100320003726099CFE62AE61E861C6F13806381DC9
:1003300000F07AFC07F1180000F076FC3F61BE6126
:100340007F6200202862002187F8581052464946F3
:10035000404600F03FFB386004B12760BDE8F087FD
:100360002DE9F04100F054F8DFF81055DFF8108562
:10037000E86C401CE8641426A86A28BBAC62E86CF0
:10038000012829D1002706FB07F0404400F03FFC7C
:100390007F1C382FF7D305F1740000F038FC05F10D
:1003A0008807384600F033FC284600F030FC05F1A1
:1003B000140000F02CFC05F1380000F028FC05F1D9
:1003C0007400E8622F6307E0A86D28B9E06AA96AA3
:1003D000CA6A904228BFAC62A86EE26A401C6064A0
:1003E000696D914238BF6A65A8665643211D08EBC6
:1003F000060000F01CFC00F078FBA86D30B100F0A6
:10040000B4F903D200F0AFFA00F09EFABDE8F08133
:10041000044600F051BBDFF844154FF080500860EF
:100420007047000080B586B000210591049103AAB1
:1004300004A905A800F034FC059804990290002254
:10044000009201910023039A11A10FF2A130FFF74E
:100450000FFF98B100F02EFC5021012810D181F33C
:10046000118800F071FADFF814044FF0FF31C16613
:10047000012282650021016500F0CEFA07B000BDBF
:1004800010F1010FFAD181F3118800F05DFAFEE757
:1004900049444C4500000000DFF8E003016F491CAF
:1004A00001677047DFF8D423506D002100B10121AE
:1004B000936AD86A28B9DFF8C8030368012B00D80B
:1004C00009B100207047D16E106D081A704770B5E1
:1004D000DFF8A863306F0024002520B900F045F84C
:1004E00000F032FAFEE700F0E7FA306F401E3067A6
:1004F000306F002837D1F06CD0B934E0F068C468B0
:1005000000F037F800F0EDF9E06A716D814238BF14
:1005100070651423DFF868235843211D104400F050
:1005200086FBE06AB16ACA6A904224BF0121316643
:1005300030680028E2D10CB100F0B9F9F46D44B193
:1005400000F032F808B101203066641EF8D10020B6
:10055000F065306E38B1DFF804144FF0805001259B
:10056000086000F0F1F900F0F4B9502181F311882E
:10057000704704F1180000F080BBDFF84404006D00
:100580007047DFF83C14CA6E0B6DC3189A4207D24D
:10059000502080F31188BFF34F8FBFF36F8FFEE7BA
:1005A0000A6D8018086570472DE9F843DFF8CC72B2
:1005B000386F0026002852D13C6D641C3C6510D178
:1005C000F86A006820B1FFF7D0FF00F0BDF9FEE740
:1005D000F86A396BF9623863786E401C786600F00F
:1005E00066F9F86EDFF8989284424FF0140827D32A
:1005F0001FE0F96AC868C568686884422DD3281D61
:1006000000F03BFBA86A18B105F1180000F035FBBB
:10061000E86A796D814238BF786508FB00F0291DD2
:10062000484400F004FBE86AB96ACA6A904228BFED
:100630000126F86A00680028DBD14FF0FF31F96627
:10064000B86AC06A08FB00F859F80810022928BFE8
:100650000126386E30B1012604E0F866F0E7F86D47
:10066000401CF8657CE110B5DFF81022106F10B166
:100670000121116610BD1066516DDFF8483300E0AE
:10068000491E14244C43185920B90029F8D100F010
:1006900058F9FEE7181900F1080443685B684360E5
:1006A000A34204BF5B6843604068C36893625165BE
:1006B00010BD10B50C4610B900F043F9FEE700F08C
:1006C0001DF800F0C1FA2046BDE81040FFE7012107
:1006D00000F04FB938B50D46144610B900F031F9A5
:1006E000FEE700F00BF800F0A2FA0CB14FF0FF3576
:1006F00021462846BDE8344000F03BB9DFF8C0226F
:10070000936A03F11801704738B5C068C46814B91A
:1007100000F017F9FEE7FFF72CFF584D286F50B98E
:1007200000F0DFF800F015F838BF6A6500F015F842
:1007300000F0BDF804E004F11801284600F077FA53
:1007400000F013F803D201212966012032BD0020F8
:1007500032BDE26A686D904270471420DFF864325F
:100760004243211D981800F062BAA86AC16AE06A83
:1007700081427047DFF848124A6E0260096D41609D
:100780007047F8B504460D46502014B900F0DAF869
:10079000FEE715B900F0D6F8FEE700F08DF9DFF8B6
:1007A0002002016D62682E688B1A16F1010F0ED0BF
:1007B000476ED4F800C0674501D091420BD2B342D6
:1007C00007D2F31A2B60416E2160006D6060002437
:1007D00002E000202860012400F087F92046F2BDE5
:1007E000DFF8DC11012008667047000070B5244C6A
:1007F000224D11E000F060F9286AC668301D00F053
:100800003CFAE86C401EE864686B401E686300F0C8
:100810006CF9304600F036F8686B0028EAD12168A0
:10082000022903D3FFF7F7FD00F08EF8FFF73AFE39
:100830000228F1D3FFF730FEE86E296D884208D315
:10084000FFF730FE022828BF00F0DEFBFFF73FFE77
:10085000E2E700F076F8FEE7DFF864211168012096
:10086000002904BF116E002901D000207047916B50
:10087000D26C521E914208BF02207047E01F002038
:10088000240C002010B5044694F8590040B9206BA0
:1008900000F02DFC2046BDE8104000F028BC10BD43
:1008A0000128F7D00228FAD000F04BF8FEE7DFF875
:1008B0001011C86A006810B94FF0FF3203E0C86A2F
:1008C000C268D0684268CA667047DFF8F410886D65
:1008D00008B901207047086F08B90220704700204E
:1008E0007047201D00F0C9B938B50446002134B363
:1008F000DFF8CC50A86A5022844204D082F31188D9
:1009000000F022F8FEE7206D20B982F3118800F094
:100910001BF8FEE7E26AE36C401E9A4220650ED0A7
:1009200068B9FFF7DEFFE26CE262C2F13800A06155
:10093000696D914238BF6A65FFF70FFF01210846D4
:1009400032BD502080F31188BFF34F8FBFF36F8FFC
:10095000704700F0CAF8284670BD000004ED00E0C2
:100960003046BDE8F283184A4FF08051116070475D
:100970000000F8B5124D2F6D0C46A96A0646081DF9
:1009800000F07BF916F1010F05D124B1A86A011D11
:1009900005F138001AE0A86AF6194660BE42A86A56
:1009A00005D2011D286BBDE8F44000F04DB9011DD2
:1009B000E86A00F049F9E86E864238BFEE66F1BD9C
:1009C000E01F0020240C002004ED00E0BDE8F4400E
:1009D00000F02DB9490810B54900A0F120034FF0EF
:1009E000807499611A60DC616FF002020FF20D01F0
:1009F000596140F8242D203810BD00005A494A683A
:100A0000502012F1010F80F31188BFF34F8FBFF315
:100A10006F8F00D0FEE7FEE77CB5544A544B106858
:100A20005021984202D100F0B1F8FEE71068514B16
:100A3000984202D100F0AAF8FEE74F4B1C780194CF
:100A4000FF251D701E78484C8DF800609DF8000051
:100A500000F050002070072005E09DF800506D0068
:100A6000401E8DF800509DF800502E06F5D44542EA
:100A700015F1030F03D0A06000F088F8FEE7000234
:100A800000F4E060A06001981870116A41F47001F0
:100A90001162106A40F07040106200F077FB002095
:100AA000606000F0E3FB3548016841F040410160BF
:100AB00000F0CCFB002076BD502080F31188BFF3FE
:100AC0004F8FBFF36F8F28494A68521C012A4A6032
:100AD0000AD12B490A68130606D080F31188BFF3A8
:100AE0004F8FBFF36F8FFEE770471F49486838B9D3
:100AF000502080F31188BFF34F8FBFF36F8FFEE755
:100B0000401E486008BF80F31188704780B55020B0
:100B100080F31188BFF34F8FBFF36F8FFFF744FD52
:100B200018B117494FF080500860002282F31188F5
:100B300001BD000010B5EFF30580502110280A4ACE
:100B400007D3104B185C1478A04202D200F01EF8B4
:100B5000FEE790680C4A136803F4E063984202D2FF
:100B600000F014F8FEE710BD0000002000ED00E0EA
:100B700071C20F4170C20F4100E400E034EF00E0A9
:100B800004ED00E0F0E300E00CED00E081F31188FB
:100B9000BFF34F8FBFF36F8F704730B50168846824
:100BA0004218416802EB5103C90703D54C4401E0E8
:100BB000491C08D19A4218BF12F9011B01D10C300F
:100BC00030BD12F8015B002904F8015BF0D4491E26
:100BD000F7D5EFE762F30F2262F31F4200B500BFC3
:100BE000130096469446103928BFA0E80C50FAD856
:100BF0005FEA417C28BF0CC048BF40F8042BC907FE
:100C000028BF20F8022B48BF00F8012B00BD4FF091
:100C1000FF3200F1080182604160C16000F108020A
:100C2000026100210160704700210161704710B529
:100C300042684A6093688B60946861609160086163
:100C40000168491C016010BD30B50A6812F1010F3E
:100C500008BF036907D000F1080300E023465C6881
:100C60002568AA42FAD25A684A6091608B6059603E
:100C700008610168491C016030BD436801698268F0
:100C80009A60836842685A604A68824204BF8368F7
:100C90004B60002202610868401E086008687047C7
:100CA000034B036003F15C00086080211160704712
:100CB000D817002010B586B000F072F9DFF8304385
:100CC000A068C0B100210591049103AA04A905A858
:100CD00000F0DAFA0598049902900222009201913C
:100CE0000023039A0FF210310FF28100FFF7C0FAD0
:100CF0000028E06005D1502181F3118800F00AF846
:100D0000FEE7012006B010BD2046BDE8F681502068
:100D100080F31188BFF34F8FBFF36F8F7047F8B523
:100D2000044684B01E46002014B9FFF7F0FFFEE72A
:100D3000DFF8BC72BD68BDB1062900910192029432
:100D40000CDAFFF7C2FD022807BF0A9A002300232E
:100D50000022B868694600F025FB05E00023324612
:100D60006946284600F0B5FB05B0F0BDF8B586B081
:100D70009F4D2968086810B90124002602E0C86860
:100D800006680024FFF788FB01A800F0B4F80746C6
:100D9000019800283FD154BBB7422DD3FFF797FBF2
:100DA0002868C168CC68201DFFF767FF94F8280009
:100DB000410717D5A16933463A468919204600F004
:100DC000D5F840B100200090002332460021204693
:100DD000FFF7A5FF18B1216A2046884725E0FFF7F5
:100DE00096FFFEE700F0FE0084F82800F3E768684D
:100DF00001684C1EA441E40FA8682246F11B00F0D4
:100E0000F1FCFFF764FB80B97A494FF0805008602D
:100E1000FFF780FF09E0FFF75AFB06E094F828008F
:100E200081073BD4204600F062F9A868002202A99D
:100E300000F09FFB00289CD00298002803D505995C
:100E40000498039A904702980028EED4049C6069A5
:100E500010B1201DFFF711FF01A800F04CF8029916
:100E60000929E2D8DFE801F02121211A0706212112
:100E70001A07DAE7D2E794F8282042F0010284F852
:100E800028200399A16131B1034602460918204682
:100E900000F06CF8C9E7FFF73AFFFEE794F8280086
:100EA00000F0FE0084F82800BFE794F8281041F015
:100EB000010184F8281002460399A0690B464118E5
:100EC000204600F053F80028AFD0216A204688471A
:100ED00094F828004107A8D5002000900023039A29
:100EE000A069821800212046FFF719FF00289CD135
:100EF000FFF70DFFFEE72DE9FC410646FFF73DFB3E
:100F00003B4D04462869844209D3002131602C619D
:100F1000FAE678603F61391D2868FFF795FE296879
:100F20000868F0B1C868D0F80080C768381DFFF7BE
:100F3000A4FE396A3846884797F828004107EED55D
:100F4000B86940448045E4D3002000900023424625
:100F500000213846FFF7E3FE0028E0D1FFF7D7FE77
:100F6000FEE76868696028600121CFE738B5002492
:100F70008A42416000611E4D06D38169D21A8A42BD
:100F800006D2011D686807E09A4203D2994201D354
:100F9000012403E0011D2868FFF756FE204632BDFC
:100FA0001CB5FFF789FD124CA068E0B904F11400EC
:100FB000FFF72DFE04F12800FFF729FE04F11400CD
:100FC00004F12801002220606160009204F13C03DA
:100FD00004F18C0210210A2000F09BF9A06010B1EE
:100FE00007A100F0EAFBBDE81340FFF77EBD00005B
:100FF000941D002004ED00E0546D722053766300D0
:10100000546D7251000000002DE9F04732494F68DD
:10101000874288BF0746314C206840084000206066
:10102000A7F101080D68D4F80890D1F808A008FBD2
:101030000599CA4538BFA9EB0A0972B6BFF34F8FAD
:10104000BFF36F8FFFF708FC6E1E30B9A0686060B9
:10105000216841F00101216039E0C4F804900020CA
:10106000A060216841F00101216000F0DFFB3846FB
:1010700000F0DDFB62B6BFF34F8FBFF36F8F72B628
:10108000BFF34F8FBFF36F8F062020602168CA0324
:101090000AD5A068A6EB09098144D1452CBF4D456E
:1010A000B146C4F8049009E0A0686F433F1AB7FB4B
:1010B000F5F808F101014D43ED1B65600020A060CB
:1010C0004046216841F001012160FFF75AFA66604D
:1010D00062B6BDE8F08700BF5025002010E000E0B8
:1010E00088F31188BFF34F8FBFF36F8F70470028CD
:1010F00000D1704738B5A0F10805234C6968E26952
:101100005023114204D183F31188FFF7EBFFFEE770
:10111000286820B183F31188FFF7E4FFFEE79143CD
:101120006960FFF7B9F9E16868684118E16028462D
:1011300000F007F8A069401CA061BDE83140FFF74E
:10114000C6B930B510490A4600E01A461368834212
:10115000FBD35368D418844203D14068C31853604A
:10116000104643681468C518A54208D189688C42A6
:1011700004D06168CB184360246800E00C4604602A
:10118000824218BF106030BD4C00002030B50F48BF
:1011900001684FF47A72B1FBF2F10D4A6FF07F43B0
:1011A000B3FBF1F353602D240A4B946000251D60BE
:1011B00000249C604FF47A750068B0FBF5F56D1E55
:1011C0005D6007201860116030BD00BF480000203E
:1011D0005025002010E000E0EFF30980BFF36F8F8F
:1011E000264B1A681EF0100F08BF20ED108A20E968
:1011F000F04F106009B44FF0500080F31188BFF336
:101200004F8FBFF36F8FFFF72EFA4FF0000080F380
:10121000118809BC19680868B0E8F04F1EF0100F7B
:1012200008BFB0EC108A80F30988BFF36F8F704756
:10123000124B19680868B0E8F04F80F30988BFF3D3
:101240006F8F4FF0000080F3118870470C480068E2
:10125000006880F308884FF0000080F3148862B6BD
:1012600061B6BFF34F8FBFF36F8F00DFDFF814005D
:10127000016841F4700101607047000008200020FF
:1012800008ED00E088ED00E0044B036003F15C0032
:1012900008604FF480711160704700BF8410002017
:1012A00070B504000D4602D100F074F8FEE7FFF7B8
:1012B00003FC206CE16B226800FB01F3491E4843EC
:1012C00010441344A3600026A663E060626004F14A
:1012D00044004FF0FF310170417075B92069A0B131
:1012E00004F11000FFF710FA78B1DFF8F0144FF0B6
:1012F0008050086000F0D5F907E004F11000FFF716
:1013000086FC04F12400FFF782FCFFF7EEFB0120CE
:1013100070BD7CB51C46502320B983F3118800F0C2
:10132000C0F9FEE724B983F3118800F0BAF9FEE7AB
:101330002AB129B983F3118800F0B3F9FEE779B92E
:1013400050250095009E502E0FD1009B34B1069B76
:10135000012584F84650009400F00CF8204676BD34
:1013600083F3118800F09DF9FEE783F3118800F004
:1013700098F9FEE738B5049D1C4600290CBF2D6086
:101380002A60E863296428460121FFF789FF85F870
:101390004C4031BD502080F31188BFF34F8FBFF315
:1013A0006F8F70472DE9F64782B004461E465027DE
:1013B00014B900F074F9FEE75FEA010A01D1206C6C
:1013C00060B9022E02D1E06B01280AD1FFF77DFA45
:1013D00050B9039840B100F062F9FEE700F05FF900
:1013E000FEE700F05CF9FEE727460024DFF8EC8317
:1013F0004FF080592EE0039800284BD014B900F02C
:1014000041F90124FFF771FBFFF746F8FFF754FBA2
:1014100007F1440000F039F904BF0022027000F027
:1014200039F904BF00224270FFF75FFB00F04DF86E
:10143000002844D1FFF740FBB86BF96B884214BF1A
:1014400000250125FFF751FB45BB384600F076F932
:10145000FFF73DF8FFF730FBB86BF96B884201D31B
:10146000022EC8D132465146384600F01FF9796A3B
:1014700029B107F12400FFF747F908B904E018B1D2
:10148000C8F8009000F00DF9FFF72FFB012004B021
:10149000BDE8F087FFF729FB0020F8E7039907F183
:1014A0001000FFF706F9384600F048F9FFF70FF88B
:1014B0000028CFD1C8F8009000F0F3F8CAE738460A
:1014C00000F03CF9FFF703F8E6E703A96846FFF7E9
:1014D00058B92DE9F8430446884615461E4650275C
:1014E00014B900F0DCF8FEE7B8F1000F01D1206C70
:1014F00028BB022E02D1E06B012823D1FFF71AFB93
:10150000EFF3118900F02BF801D3022E22D194F9C8
:101510004570A06B32464146204600F0C7F817F1EF
:10152000010F12D1606A98B104F12400FFF7ECF8C2
:10153000002818BF002D0BD00120286008E000F023
:10154000AEF8FEE700F0ABF8FEE77F1C84F84570CC
:10155000012000E0002089F31188BDE8F28387F3C1
:101560001188BFF34F8FBFF36F8FA06BE16B884281
:1015700070472DE9F74306460F460024502526B94B
:1015800085F3118800F08DF8FEE70FB9306C48B98B
:10159000FFF79BF978B9029868B185F3118800F0DC
:1015A00080F8FEE785F3118800F07BF8FEE700F095
:1015B00067F8FEF78CFFFFF77FFAB56BDFF81C8248
:1015C000002D4FF0805932D10298002845D014B92F
:1015D00000F058F80124FFF788FAFEF75DFFFFF7E7
:1015E0006BFA06F14400415711F1010F04BF0022CC
:1015F000027000F04FF804BF00224270FFF775FA46
:1016000002A9FFF763FF002830462AD100F0CAF88C
:101610000028CCD000F02FF800F032F8FEF757FF8A
:101620000028C8D1C8F8009000F03BF8C3E739465D
:10163000304600F06FF86D1EB563306940B106F1B9
:101640001000FFF761F818B1C8F8009000F029F811
:10165000FFF74BFA0120BDE8FE83FFF746FA0020B2
:10166000F9E700F06BF8FEF732FF304600F09AF829
:101670000028A0D0F3E7029906F12400FFF719B87B
:1016800030465BE06846FFF775B890F9001011F13D
:10169000010F704790F9011011F1010F704787F3A6
:1016A0001188BFF34F8FBFF36F8F7047F8B50646B1
:1016B0001546B46B326C002742B9306830BBB06855
:1016C000FFF712F900210746B1601FE065B97068A5
:1016D00000F0AEF87068316CB268084490427060F7
:1016E00014D33068706011E0F06800F0A1F8306C3D
:1016F000F16840420144F1603268914202D2B1681F
:101700000844F060022D01D104B1641E641CB4636E
:101710003846F2BD026C002A0B4600D1704710B566
:10172000C16884681144C160A14224BF0168C160DE
:10173000C168BDE81040184600F07AB8F8B5054613
:10174000FFF7BAF905F1440494F9016007E005F1E7
:101750002400FEF7D9FF08B1FFF742F8761E70B2F9
:10176000012802DB686A0028F1D14FF0FF3666706D
:10177000FFF7BBF9FFF7A0F994F9007007E005F156
:101780001000FEF7C1FF08B1FFF72AF87F1E78B2FC
:10179000012802DB28690028F1D12670BDE8F1405C
:1017A000FFF7A3B910B50446FFF786F9A06B441EF6
:1017B000A441FFF79AF9E00F10BD10B50023084CC3
:1017C00054F833201AB15B1C082BF9D310BD44F830
:1017D000331004EBC301486010BD000004ED00E0CD
:1017E00068240020F8B504460D461646FFF764F954
:1017F00004F1380797F90C0010F1010F04BF002124
:10180000397397F90D0010F1010F04BF00217973AE
:10181000FFF76BF9386828B93246294604F12400ED
:10182000FEF758FF2046BDE8F24087E77047704753
:101830004AB1000011F8013B521E00F8013B1CBFE9
:1018400011F8013BF8E7704718480068C10700D558
:1018500000BE704700B5154885B00068C10706D5C1
:1018600000F035F800F03BF800F045F817E01421DF
:10187000684600F053F803200021019002914FF4D4
:101880008042009200F00DF84FF40050009000F0FC
:1018900008F800F022F800F028F800F032F805B05F
:1018A00000BD69464FF0904000F03CB8F0ED00E01C
:1018B000032010B500F02FF90F2000F06DF900247F
:1018C000002814BF012400F0BBF9204610BD1248C7
:1018D000016841F00101016070470F4817E00E48B0
:1018E000016841F00201016070470B48016821F076
:1018F0000201016070470848016841F0040101607D
:1019000070470548016821F00401016070470168D3
:101910004908490001607047042004E00022FFF7F5
:101920005DB900002DE9F84F00276D4A6D4B4FF06F
:101930000F0805460E4638E06B4CA54214BF07243D
:1019400004248C40694944EA0E0441F82C40C14308
:10195000D2F808C0746801EA0C0CE40248BF40EAFF
:101960000C0CC2F808C0D2F80CC0746801EA0C0C68
:10197000A40248BF40EA0C0CC2F80CC0D2F804C064
:10198000746801EA0C0CA40348BF40EA0C0CC2F8CE
:1019900004C0D2F800C001EA0C0C7168C90348BF4A
:1019A00040EA0C0CC2F800C07F1C316831FA07F025
:1019B00000F08F800124BC4014EA0100F4D04FEA0B
:1019C000470C032101FA0CF16FEA010E716801F076
:1019D0000309B9F1010F1CBF01F00301022912D163
:1019E000A968D6F80C900EEA010109FA0CF949EA47
:1019F0000101A960696821EA04047168C1F300115A
:101A0000B9400C436C60B900347904F00304032C32
:101A100021D0EC68D6F808900EEA040409FA0CF913
:101A200049EA0404EC60347904F00304022C12D176
:101A3000FC0805EB840401F01C09D4F820A008FA86
:101A400009FB2AEA0B0AD6F810B00BFA09F949EAA1
:101A50000A09C4F820902C680EEA040E347904F0C8
:101A6000030404FA0CF444EA0E0CC5F800C07468D0
:101A700014F4403F98D0D3F800C01C4C4CF0010C3B
:101A8000C3F800C04FEA970CD3F800E00EF0010E47
:101A9000CDF800E001F00C01DDF800E054F82C4036
:101AA00008FA01FE24EA0E0EB5F1904F08BF00249B
:101AB0000ED00F4CA54208BF012409D00D4CA54201
:101AC00008BF022404D00C4CA5427FF435AF032498
:101AD00037E7BDE8F18F0AB18161704781627047D5
:101AE000000401406010024000100048080001405E
:101AF0000004004800080048000C004809010200EA
:101B000002D42048815470471F4B02F00F021A4440
:101B100002F8041C70471D4B19684FF6FF020002C3
:101B2000114000F4E0600843194908431860704709
:101B300070B5164B1C68C4F302230124C3F10705DA
:101B4000052D2EBF0F2504FA05F56D1E1E1D072E4F
:101B500034BF0023DB1E2940994004FA03F3BDE89B
:101B600070405B1E1A401143C8E70000010007D413
:101B7000012200F01F01074B8A40400943F8202052
:101B80007047000000E400E018ED00E00CED00E01C
:101B90000000FA0500E100E078B50446204887B06F
:101BA000016841F00101016001A9006800F0010035
:101BB000009002A8009A00F097FB059810B900F079
:101BC00086FB02E000F083FB4000164D164B4FF001
:101BD00080412960B0FBF3F0401E40F2E7326860BC
:101BE0000021EA602961A960A961284600F0F2FBA2
:101BF000060012D1284600F0FAFB06000DD11C2089
:101C0000FFF7B4FF102C07D2002221461C20FFF75B
:101C10008FFF0648046000E00126304608B070BD22
:101C2000581002401C24002040420F0044000020B5
:101C30000068B0F1804F08BF00F0FEBC70470000A4
:101C40000D4882B0816841F001018160816801F036
:101C5000010100910099026842F080520260002266
:101C6000006800F0805000900F2100986FF0010094
:101C700002B0FFF75DBF00BF581002402DE9FC47DE
:101C8000050066D0DFF80C77DFF81867BC68D7F876
:101C90000C802878C10604F00C0408F0030848D52D
:101CA00024B10C2C08BFB8F1010F2CD13868810782
:101CB00002D5A86900284CD0396808074EBF39689A
:101CC00071680909286A01F0F001814206D200F02A
:101CD00026FB00283DD100F001FA07E000F0FEF9F4
:101CE00024B9286A00F01BFB002832D100F0A6FAC4
:101CF000BA6800F092FADFF8A4060068FFF74CFF1C
:101D0000010016D0E4E1A86928B3396841F0010167
:101D1000396000F036FD81463868810707D400F04D
:101D200030FDA0EB09000328F6D30320D0E100F03A
:101D3000D5F92878C10755D5082C04D00C2C08BF3C
:101D4000B8F1030F17D1386881034BD568680028B4
:101D500048D10120BCE138684008400000F0D3F9C8
:101D6000814638688107E4D500F00BFDA0EB09003F
:101D70000328F6D3D9E76868B0F5803F04D1386806
:101D800040F48030386011E0B0F5A02F386806D1FB
:101D900040F480203860396841F4803105E020F457
:101DA00080303860396821F480213960686860B11A
:101DB00000F0E7FC81463868810313D400F0E1FCB1
:101DC000A0EB09006528F6D3AFE700F0DAFC814606
:101DD0003868810306D500F0D4FCA0EB0900652823
:101DE000F6D3A2E72878810713D5042C04D00C2C55
:101DF00008BFB8F1020F22D13868410502D5E86862
:101E00000028A6D07868296920F0F85040EA0160DF
:101E100078602878010742D56869002870682FD05B
:101E200040F00100706000F0ACFC804670688107F3
:101E300035D400F0A6FC00F04DF9F7D375E7E8685B
:101E400078B1396841F48071396000F09AFC8046BD
:101E500038684105D6D400F094FC00F03BF9F7D384
:101E600063E7386820F4807000F04DF980463868E8
:101E70004105CED500F085FC00F02CF9F7D354E7EE
:101E800040084000706000F07CFC8046706881076C
:101E900005D500F076FC00F01DF9F7D345E728786A
:101EA000410767D5B86DC1004FF000080AD4B86D7E
:101EB00040F08050B8654FF00108B86D00F08050D8
:101EC00000900098DFF8E094D9F80000C10513D421
:101ED000D9F8000040F48070C9F8000000F051FC0F
:101EE0008246D9F80000C10506D400F04AFCA0EBF8
:101EF0000A000328F5D318E7A868012804D1306840
:101F000040F00100306010E00528306806D140F054
:101F100004003060316841F0010105E040084000F4
:101F20003060316821F004013160A86841F28939DC
:101F300060B100F026FC82463068810713D400F0BF
:101F400020FCA0EB0A004845F6D3EEE600F019FCB1
:101F500082463068810706D500F013FCA0EB0A002A
:101F60004845F6D3E1E6B8F1000F03D0B86D20F094
:101F70008050B8652878810621D5686A0028B06845
:101F80000ED040F00100B06000F0FBFB8046B0686E
:101F9000810714D400F0F5FB00F09CF8F7D3C4E6F9
:101FA00040084000B06000F0ECFB8046B06881075C
:101FB00005D500F0E6FB00F08DF8F7D3B5E6A86A8A
:101FC000002800F0848002286DD1F868EA6A00F0E9
:101FD0000301914201BF00F070012A6B521EB1EB68
:101FE000021F1BD16A6B00F4FE41B1EB022F02BF4E
:101FF00000F07841AA6BB1EBC26F0FD1EA6B5208C7
:1020000000F4C001521EB1EB425F07D1296C4908B0
:1020100000F0C060491EB0EB416F40D00C2C43D0A3
:10202000386841013FF595AE00F06AF8044638681B
:10203000810105D500F0A5FB001B0328F7D374E64A
:10204000F868DFF86813EA6A0840296B1043491EF4
:1020500040EA0110EA6B696B520840EA0120296CE2
:10206000521E490840EA4250491E40EA4160A96BAD
:1020700040EAC160F860386840F080703860F96804
:1020800041F08071F96000F07CFB04463868810102
:102090001DD400F076FB001B0328F7D345E6386813
:1020A000810114D4E7E70C2C3FF453AE00F028F87C
:1020B00004463868810105D500F063FB001B032846
:1020C000F7D332E6F868DFF8E8120840F86000203D
:1020D000BDE8F687A0EB080003287047386840F099
:1020E000080038603968286A21F0F001014339603E
:1020F0007968E86921F47F4141EA002179607047FD
:10210000386820F08070386000F03BBB2DE9F0416A
:102110000400884655D0DFF89C62306800F0070064
:10212000404502D200F06FF84BD12078DFF86452BE
:10213000810706D5A068A96801F0F001814200F08E
:1021400076F82078C1072AD56068032802D129686B
:102150008A0108E0022802D129688A0303E00028E6
:10216000296802D18A0702D42BE04A0529D5A9683B
:10217000890840EA8100A86000F003FB0746A868D0
:10218000616800F00C00B0EB810F08D000F0F9FAA4
:10219000C01B41F289318842F1D3032031E020781D
:1021A000810706D5A068A96801F0F001884200F017
:1021B0003EF8306800F00700804504D200F023F8B4
:1021C00001D001201DE02078410705D5AA68E0680C
:1021D00022F4E0620243AA602178080706D5A968C4
:1021E000206921F4605141EAC001A96000F026F89D
:1021F000AA6800F012F8BDE8F04168480068FFF7EF
:10220000CBBCBDE8F0813168C90848EAC101316042
:10221000306800F00700404570476749C2F3031279
:10222000895C5D4A01F01F01C8401060704704D20C
:10223000A96821F0F0010843A860704770B5554ABD
:102240005F4B9068D6680025002110F00C0006F066
:1022500003065C4C03D00C2812D1012E1AD115684C
:102260002E0704D44E4D2E68C6F3032502E01568F0
:10227000C5F30315544E56F8255048B9294624E0B5
:10228000042808BF214620D008281ED119461CE08A
:102290000C281AD1D06800F00300022803D00328CC
:1022A00008BF1D4600E02546D168D068D268C0F35B
:1022B00006204543C1F30210C2F34161401C491C92
:1022C000B5FBF0F04900B0FBF1F1084670BD3248B3
:1022D0003A4A006813683D49C3F30222FFE7895C6C
:1022E00001F01F01C840704710B50F220260334A49
:1022F000136803F003034360146804F0F00484607F
:10230000136803F4E063C3601268D20802F4E06269
:1023100002612848026802F007020A6010BD7CB51D
:102320002B4E054630680024C10002D500F03AFA71
:102330000EE0306840F080503060316801F080512C
:102340000091009800F02EFA316821F08051316040
:10235000B0F5007F04D1802D0CD9A12D09D304E064
:10236000802D88BF032405D801D1022402E0702DFE
:1023700000D101240F480168C90844EAC101016085
:10238000006800F00700A04201D0012076BD0020C7
:1023900076BD0000001002404800002044000020EC
:1023A0009410024090100240007000408C809D010B
:1023B000FCFFEEFE002002409C580008081002407E
:1023C00000127A000024F400940100088C01000837
:1023D0005810024038B5040001D1012032BD00F090
:1023E0004DF818B900F0F1F800F01AFA29E090F869
:1023F0003D10012901D001207047022180F83D10D5
:102400000168CA6842F00102CA600168DFF8602012
:1024100091421EBFB1F1804FDFF85820914209D19F
:102420008A68DFF854100A40062A18BFB2F5803FC8
:1024300005D001680A68084642F0010202600020E7
:10244000704702206870211D206800F0C2F801204A
:1024500028730121A970E87029716871A971E87168
:1024600029726872A972E8726970002032BD00009A
:10247000002C0140004001400700010004F13C0530
:102480006878704770B504462068C5680669B1076A
:1024900014D5AA0712D56FF002010161012222773B
:1024A000806910F0030F204602D000F0BAF903E073
:1024B00000F0B8F900F086F800202077700715D5F5
:1024C000690713D520686FF00402026102212177A9
:1024D000806910F4407F204602D000F0A2F903E0AA
:1024E00000F0A0F900F06EF800202077300715D535
:1024F000290713D520686FF00802026104212177B3
:10250000C06910F0030F204602D000F08AF903E002
:1025100000F088F900F056F800202077F00615D575
:10252000E90613D520686FF01002026108212177B7
:10253000C06910F4407F204602D000F072F903E039
:1025400000F070F900F03EF80020207706F001015D
:1025500005F00100014206D020686FF00101016121
:102560002046FFF765FB300608D5290606D5226808
:102570006FF080001061204600F055F9F00508D595
:10258000290606D522686FF480701061204600F09D
:102590004BF9700608D5690606D522686FF0400031
:1025A0001061204600F041F9B0060AD5A90608D509
:1025B00022686FF0200010612046BDE8704000F0F6
:1025C00035B970BD204600F032B90021297020468F
:1025D000704770B50368154E154C164DB04218BFC4
:1025E000B0F1804F01BF23F070034A681343B0423B
:1025F00005D0B0F1804F1CBFA842A04203D1CA68E9
:1026000023F4407313434A6923F0800313430360A8
:10261000B0428B68C3620A6882621CBFA842A042B3
:1026200001D1096901630122426170BD002C0140A2
:1026300000440140004001400248416802788A1885
:10264000426070473C000020806A80B2704738B515
:10265000504C2078A0B900F0EBF800F033F84E4D64
:102660004FF48071284600F0DAFA284600F06EFC3C
:10267000002000F064F800F065F860600120207030
:10268000002032BD18B58BB004462C216846FFF7F8
:1026900045F900F017F83F4A50684FF0FF314FF40A
:1026A00080720C1B002105910A92241A01940122C8
:1026B0006946394800F0F8F908B100F08AFC0020BA
:1026C0000CB010BD80B534480168CA6802F08002C1
:1026D00062F4C072CA604FF4807100F0A0FA00206A
:1026E00002BD80B500F02EF82A49486002BD294895
:1026F0004068704780B500F025F8264A5168401AB6
:1027000002BD244A11780020002918BF00F01AB831
:10271000704703207047810D80024FF47A720023C6
:1027200000F0E0BC4FF47A71A1FB0001800A40EA9E
:102730008150704700F096BD174800F023BC024658
:102740000221F9E7F8B5154D154E2846FFF77CFF35
:102750004FF0FF34201A34688CB1A0423CBF211ADC
:10276000B1F57A7F0BD22846FFF76EFF4FF0FF37A7
:10277000381AA0423EBF211AB1F57A7F2046306058
:10278000F2BD04490878002818BFFFF7DBBF01201D
:1027900070470000682500200C0000200028004041
:1027A00078250020DFF86C00006800F4C0607047F6
:1027B00010B5DFF86010B0F5007F086800F4C06065
:1027C0001DD1B0F5007F22D00A68DFF84C3001201F
:1027D00060F34A220A6032201C68DFF8402044433C
:1027E000B4FBF2F0401C00E0401E4A69530501D5DD
:1027F0000028F9D14869410509D5032010BDB0F57D
:10280000806F04D00A68022060F34A220A60002028
:1028100010BD0000007000404800002040420F0042
:1028200070477047704770477047704770477047F0
:1028300018B58BB02C216846FFF770F8314C32493F
:1028400021601F20A060002222616261A261E2611A
:10285000204600F05FF808B100F0BBFB00204FF409
:102860008072019005900A9269460022204600F08D
:10287000A6F808B100F0ADFB00F039F80CB010BDBF
:1028800018B599B00446602101A8FFF747F82268FF
:102890001D498A4229D14FF400334FF480710193CE
:1028A000189101A800F05EFD08B100F092FB1748F6
:1028B000816B41F4004181630521026842F480622A
:1028C00002600022006800F48060009000982920D7
:1028D000FFF72EF92920FFF749F9002205210320EF
:1028E000FFF726F90320FFF741F91AB010BD05489C
:1028F000816AC26A8900B1FBF2F1491E416200227D
:1029000000F08FBA0C000020002800405810024050
:1029100000F004BF38B504460120002C4BD094F8D9
:10292000210028B9002184F820102046FFF7A8FFD5
:10293000022184F821102068C168CA0637D4CA2150
:102940004162532022685062204600F001FAB8B973
:102950002168DFF88C048A6802408A6022689368E4
:10296000606821690343A0690B43034393602068B7
:10297000E168016120680169A26841EA02410161E0
:10298000204600F006FA01000BD12168CA6C9208BB
:102990009200CA642368DD6CE269616915430D43E6
:1029A000DD64FF22216803004A6204D100E00020B8
:1029B000012184F8211032BD074670781AE22DE912
:1029C000F84300F055F808BF022039D000F01DF997
:1029D0008AB9806841065CBF0020F070307800F052
:1029E00009FA0446FFF7E9FF00F03FF800F007F9A5
:1029F000F178274306E0816848065CBF0021F1704A
:102A000000F0CEF800F0E0F81CD100F042F82868A1
:102A100000F055F980462868C168CA0708D4FFF756
:102A2000B0FE00F0A9F8F6D300F0C5F8032007E0E7
:102A300000F0AEF8816001212868466200F0BEF81F
:102A4000BDE8F28300F01AF8286800F032F98046F9
:102A50002868C1688A0705D4FFF793FE00F08CF858
:102A6000F6D3E1E700F08CF8E4E70702B078C1E1C3
:102A700005460E4695F820000128704721F40071A4
:102A800081602868C16801F0800161F42071C16033
:102A9000704721F4807181602868C16801F080016D
:102AA00061F4C071C16070472DE9F843FFF7E0FFA2
:102AB00008BF022047D000F0A8F88AB98068410614
:102AC0005CBF0020F070307800F094F90446FFF706
:102AD00074FFFFF7CAFF00F092F8F178274306E091
:102AE000816848065CBF0021F17000F059F800F0E1
:102AF0006BF82AD1FFF7CDFFFFF743FE8046286829
:102B0000C168CA0708D4FFF73CFE00F035F8F6D3D9
:102B100000F051F8032016E000F03AF881602868D0
:102B2000816841F480518160DFF8B802016841F4A6
:102B3000802101600121826842F48022826028683D
:102B4000466200F03BF8BDE8F283FFF797FFFFF71E
:102B500018FE80462868C1688A0705D4FFF711FE71
:102B600000F00AF8F6D3D3E700F00AF8816028688D
:102B7000816841F40051D6E7A0EB08004845704752
:102B80000762286884642868816841F4007170478E
:102B9000C761286844642868816841F4807170477F
:102BA00077783078F1783F0247EA0047B0780743FA
:102BB00098F80000704728684662032185F82110C4
:102BC000002085F82000704747EA8157316A2A685B
:102BD000746847EA006770690F43CA210743F069C8
:102BE00051620443296853204862FF262868D8F8B8
:102BF0000410B1F5807F816840F2E939704747EAF7
:102C00000447044698F80000F4E0012085F820000D
:102C1000022185F8211006F1240828687047F8B5CC
:102C2000044694F82000012801D10220F2BD0120C1
:102C300084F82000022284F82120CA2023685862E8
:102C4000532220684262FF252068B1F5807F8168A9
:102C500040F2E93616D121F480718160206800F0DD
:102C60002EF807462068C168C8071CD4FFF789FD05
:102C7000C01BB042F6D320684562032100F025F85E
:102C80000320F2BD21F400718160206800F011F88A
:102C900007462068C168880705D4FFF772FDC01B8E
:102CA000B042F6D3E7E720684562012100F00DF855
:102CB000F2BD816821F400518160FFF762BD816837
:102CC00021F480518160FFF75CBD84F82110002061
:102CD00084F82000704710B5044643494FF4802023
:102CE000086020688268D1040BD5C268D10508D578
:102CF000C26802F0800262F4C072C2602046FFF730
:102D000019FD206881688A0407D5C1688A0504D541
:102D1000FFF7B8FE204600F002FD012084F82100F4
:102D200010BD38B5044631482168C860FFF729FD59
:102D300005462068C168880608D4FFF722FD401BBD
:102D400040F2E9318842F4D3032032BD002032BD85
:102D500070B5044600252068C1684A0617D44FF0B4
:102D6000FF31C160FFF70DFD06460AE0FFF709FDE0
:102D7000801B40F2E931884203D30320032584F805
:102D800021002168C868410601D4032DEED12846F0
:102D900070BD70B5164D0446686820F0800068600C
:102DA00000262968880608D42046FFF7BAFFA0B19C
:102DB000032084F8210003260FE0286820F020007B
:102DC00028602046FFF7ADFF18B1032084F82100EA
:102DD0000326286840F020002860304670BD0000BF
:102DE000BFFF8FFF00040140140401405FFF030098
:102DF00008280040002101E0491C0A38C2B20A2A12
:102E0000FAD240EA0110C0B2704700008A60FF2188
:102E10000268516280F82130002180F820100020E3
:102E200070472DE9F04104460F4694F820001646FD
:102E3000012808BF022036D000F056F8FF2500F028
:102E400043F801F0800161F49061C1602068C168BD
:102E5000480610D4FFF795FC80462068C1684807F3
:102E600009D4FFF78EFC00F064F8F6D320684562C1
:102E700000F032F817E02068476100F016F8DFF83C
:102E8000FC00016841F480110160826842F4801204
:102E900082602068816841F48041816000F00CF814
:102EA000456200F04DF8BDE8F08120688168C908EE
:102EB00046EAC106866070472068816841F48061F7
:102EC00081600121206870472068816821F4806159
:102ED00081602068C1687047032184F821100020B8
:102EE00084F8200003207047012084F8200002218C
:102EF00084F82110CA202268506253212068416260
:102F0000704710B50446DFF878104FF48010086061
:102F10002068C268510508D5C26802F0800262F4D8
:102F20009062C2602046FFF7F3FC012184F8211073
:102F300010BDA0EB080040F2E93188427047032140
:102F400084F82110002084F82000704790F82010A9
:102F5000012901D102207047012180F820100222AE
:102F600080F82120CA2103685962532201684A620D
:102F7000012301688A6842F0200247E7000401400B
:102F80001404014081B0006800F1500300930098E0
:102F900000EB810000900098026001B070470000D3
:102FA000BFF34F8F324933480A6802F4E0620243AC
:102FB0000A60BFF34F8F00BFFDE700E000BFFEF7E0
:102FC00043FCFFF7EDFF00BFF9E7F8E7FEF73CBC75
:102FD0007047F4E72848FFF755BA2848FFF77BBE4B
:102FE0002648FFF78EBF264800F09ABB254800F020
:102FF000F0BB00E000BF244800F0ECBFFBE7FAE7BD
:10300000224801F0E9B8214801F0EEB8204801F06B
:10301000E3B81F4801F0E8B81E4801F0E8BB1E48BD
:1030200001F0E5BB1D4801F0E2BB1D4801F08EBD7B
:103030001C4801F08BBD1C4801F062BE1B4801F02A
:103040005FBE1B4801F05CBE1A4801F059BE1A4829
:1030500001F056BE194801F053BE194A13680146E3
:103060000B4204D013681160184001F0ADBE7047E8
:103070000CED00E00400FA051C2400200C000020E8
:10308000A8240020E0140020E02400206C2300206D
:10309000C82300200C210020942100201C220020A5
:1030A000A4220020082300207C200020C42000202F
:1030B000501F0020981F0020081F0020C01E002065
:1030C000140401400120C8E70220C6E70420C4E739
:1030D0000820C2E71020C0E74FF47870BDE74FF436
:1030E0007C40BAE7D3BBD9B1B2F5803F5BD2022AAC
:1030F0001ED98C46B1FBF2F102FB11C31B0443EA5B
:103100001043B3FBF2FC02FB1C3380B240EA0343E2
:10311000B3FBF2F002FB103240EA0C400023704790
:10312000022A05D98446B0FBF2F002FB10C27047B8
:103130004AB105D100F0010249085FEA300070474A
:1031400000220023704701F041BE0B000200002165
:1031500000207047F7D3002200237047904271EBA4
:10316000030CF2D370B5B1FA81F4B3FA83F52C1BDA
:10317000A340C4F1200532FA05F63343A2405FF0C4
:103180000046E64002E05B085FEA3202841A71EB17
:10319000030524BF204629467641F4D302000B00E4
:1031A0003000002170BD70B5B1FA81F4B2FA82F539
:1031B000C4F120046419B4F12006DAD3B2405FF000
:1031C0000044F440002502E052085FEA3303C61AC7
:1031D00071EB020E24BF3046714664416D41F3D35A
:1031E00002000B002000290070BD00002DE9F04115
:1031F0000446002594B300F073F8002804BF607AF9
:1032000000282BD1EFF3108672B6554FD4F8048006
:10321000386A8047404538BF4046206001206072D0
:103220002572A572DFF83481D8F8000018B9386922
:10323000804720460AE0B86980472168401820602E
:10324000D8F8002013689842204602D200F07CF89B
:1032500001E000F066F886F3108800E001252846BA
:10326000BDE8F081F8B5EFF3108572B63C4E3B4FE8
:1032700070698047316904468847041B386860B329
:1032800001688C4234BF091B00210160406900289D
:10329000F6D13968086828B1B069804739680A688A
:1032A000824214D23C6860693860002121726172E8
:1032B0002069E1688847E07A012801BFA07A0028E8
:1032C0002046FFF793FF38680028E2D105E021B1DE
:1032D000087A10B9084600F00EF885F31088F1BDA1
:1032E0001E49096800E0496919B18142FBD10120FA
:1032F000704700207047F8B5194D0446286A80478A
:10330000012121720646AF69B84721683018814211
:1033100002D2B847361826602068A968BDE8F44094
:10332000084710B50D490A68536901E01A465B6900
:10333000516931B11C6801688C42F7D35061436117
:1033400010BD5061416110BD044A116809B10023EC
:103350000B7241611060CEE7000000007425002070
:10336000C40100082DE9FC47064600243068DFF858
:1033700084730105A0461BD5706C58B1B0F5000FE1
:1033800003D0B0F5400F09D010E03A6842F4803223
:103390003A6004E0002100F027F904463CB9F96FD7
:1033A000706C21F440010143F96701E00124A0465B
:1033B000306881032AD5F86CC1004FF000090AD4A7
:1033C000F86C40F08050F8644FF00109F86C00F0A0
:1033D000805000900098DFF82053286840F48070F7
:1033E0002860FFF7CEF982462868C1056FD4FFF741
:1033F000C8F9A0EB0A000328F6D30324A046B9F1CC
:10340000000F03D0F86C20F08050F8643078C107CA
:1034100005D5FA6F306A920840EA8202FA6731787D
:10342000880705D5F96F706A21F00C010143F9672F
:103430003178480705D5F96FB06A21F030010143B2
:10344000F9673178880605D5F96FF06A21F4406193
:103450000143F9673168880505D5F96FF06B21F4F0
:1034600040210143F9673168480505D5F96F306C93
:1034700021F440110143F9673178480605D5F96F09
:10348000306B21F440510143F9673178080605D5C6
:10349000F96F706B21F440410143F9673168C80549
:1034A00005D5F96FB06B21F440310143F9673168FC
:1034B000880444D5F96FB06C21F040610143F9678D
:1034C000B06CB0F1006F32D100F088F837E0002C1A
:1034D00094D1DFF82842206810F440701CBFF16DD1
:1034E00088420BD02068216841F48031216020F4AB
:1034F0004070226822F4803222602060C0070FD51D
:10350000FFF73FF905462068810709D4FFF739F92D
:10351000401B41F289318842F5D34FF003086EE732
:103520002168F06D21F440710143216067E7B0F13B
:10353000806F04D100F057F8010018BF8046306852
:10354000010314D5FA6FF06C22F040620243FA676F
:10355000F06CB0F1006F02D100F040F807E0B0F17C
:10356000806F04D100F03FF8010018BF804630683A
:10357000410314D5FA6F306D22F040620243FA67BE
:10358000306DB0F1006F02D100F028F807E0B0F123
:10359000806F04D100F027F8010018BF8046306822
:1035A00041040FD5FA6F706D22F040520243FA6762
:1035B000716DB1F1805F05D1022100F015F80100B5
:1035C00018BF80463068010405D5FA6FB06D22F04F
:1035D00080420243FA674046BDE8F687386840F407
:1035E0008010386070470121301D05E044480168B3
:1035F00041F00401016070472DE9F0410546404F5C
:1036000028680C46F968002611F0030F0DD0F96800
:1036100001F00301814237D1B0B3F8686968C0F3A3
:103620000210401C884213D02EE0012804D02BD376
:10363000032823D01ED327E03A68910724D5FA68DF
:10364000696822F073021043491E40EA0110F860D5
:10365000386820F080603860FFF793F8804638685B
:10366000010113D5FFF78DF8A0EB08000328F6D36E
:1036700003263BE039684A05E1D405E039688A034E
:10368000DDD439684A03DAD401262FE0A96844B9A9
:103690003A691C48EB68024042EA012141EAC361F1
:1036A0000FE0012C3A6906D12B69174800F030F879
:1036B00041EA435105E06B69144800F029F841EAFA
:1036C00043613961386840F080603860FFF759F82D
:1036D00004463868010105D4FFF753F8001B03289E
:1036E000F7D3C5E73869A969084338613046BDE8B2
:1036F000F08100000C100240007000409010024069
:1037000000100240FF80FF07FF809FFFFF80FFF94E
:1037100002405B0842EA01215B1E70477047704718
:1037200010B5044620680168CA0707D58168CA0732
:1037300004D501214160204601F049FB2068016861
:103740008A0707D581688A0704D50221416020468F
:1037500001F03EFB206801684A0707D581684A07E7
:1037600004D504214160204601F033FB2068016844
:103770000A0707D581680A0704D508214160204659
:1037800001F028FB20680168CA0607D58168CA06CF
:1037900004D510214160204601F01DFB206801681E
:1037A0008A0607D581688A0604D520214160204613
:1037B00001F012FB206801684A0609D581684A06B3
:1037C00006D5402141602046BDE8104001F005BB10
:1037D00010BD2DE9FE4F0546286801F076FD010475
:1037E0001DD4420540F1958200F047FB4FF6FF30B3
:1037F0008A8802408A80284601F08EFD284603B060
:10380000BDE8F04F002100F0D6BB012803D100F045
:1038100049FB002202803978284601F07EFD2F689E
:1038200007F144010888020440F1FD820A8812F081
:103830000F00009048F280084BF68F7B40F68F74A3
:1038400048F60F7640F0AA80D0062BD429680A8863
:103850001640084646F40046068005F12404286810
:10386000B0F85010227901EBC203C01800F20240F8
:103870000088A169C0F3090020620844A06100210A
:10388000284601F04AFD20780028C8D0E0690028C9
:10389000C5D12178286841F08001A0F84C100021A2
:1038A0002170BCE728680088020505F5B4761AD5B2
:1038B0008889317800EBC1023A4402F2064205F5EC
:1038C0002C711388C3F30903F3613846F28801F0C1
:1038D00010FD286801880C4044F0800404802846CC
:1038E00001F01CFD9BE7000499D529680A88144063
:1038F000084644F0800404802868B0F850103278FC
:1039000000F09FFA1B88C3F30903002BF3611CBF6F
:10391000716900290AD0F28801F0EBFC7069F16945
:10392000014471612846002101F0F9FC28680088F3
:103930000105D7D400F44050B0F5405FD2D02868DC
:103940000146B1F85020811801F206410888C0F301
:103950000900088030693F2808D3420910F01F0F82
:1039600008BF521E088840EA822001E018B9088882
:1039700040F4004006E04208C00748BF521C0888D7
:1039800040EA82200880286801880BEA010181F45E
:10399000405148EA0108A0F8008040E728680099F3
:1039A00030F8219008462821484329185FEA094049
:1039B000019148F68F7A40F19A802968009831F891
:1039C000201028680C40009944F0800420F8214021
:1039D000019A02F5B477387B70B92868B0F85010B6
:1039E0003A7800F02EFA1C88C4F30904002C6AD03F
:1039F000FA887969234664E0F878022848F2C00220
:103A00002ED12C68B9695FEA49433B78A446B4F8E3
:103A1000504004EBC30409F04000A44411D50CF25B
:103A2000024C00F008FA2CBF091B0021B96109B94A
:103A300000F017FA08B100F00AFA002C43D03A89D6
:103A40003CE00CF2064C00F0F6F92CBF091B0021FB
:103A5000B96109B900F005FA68BB00F0F8F92AE08D
:103A60002968387831F820300AEA03030C461A43F3
:103A700024F8202038782968024631F82230590489
:103A80000ED52A68B2F8501001EBC000101800F2F1
:103A900002400488C4F30904002C14D03A890DE0D4
:103AA0002968B1F8502002EBC000081800F2064067
:103AB0000488C4F30904002C05D07A892346796967
:103AC000286801F016FCF8692018F8617A69224428
:103AD0007A61B86938B13869844204D328683946B4
:103AE00001F07CF903E03978284601F018FC5FEA20
:103AF00009605BD50199286801F12807009930F821
:103B00002120164046F4004620F82160F87801286C
:103B100029D10021B961387B002814D05FEA4960BF
:103B200012D5787848B900F0D0F90188C1F30901BD
:103B30000180028842F400426CE6012803D100F0C3
:103B4000C4F90021018066E678782A6800287FF4AD
:103B50005CAE00F0A7F90288C2F309020280018876
:103B600041F40041EEE72A68B8695FEAC95113469B
:103B70001DD43978B2F8502002EBC102134403F28D
:103B800002431A88C2F30902824234BF801A00201D
:103B90000028B8613FF440AE786910447861F96953
:103BA0005218FA613946286801F018F937E697F893
:103BB00000C0B2F850205FEA496109F480444CF239
:103BC000800602EBCC0244D59B1803F202431B880B
:103BD000C3F30903834234BFC01A00200028B86130
:103BE00004D100F09CF9002C4ED043E00CB100F061
:103BF00076F997F8240001287DD100F07BF97878D8
:103C0000F0B900F058F93F2B0288C2F30902028094
:103C100007D35A0913F01F0F08BF521E00F005F911
:103C20000CE023B9028842F4004202800DE05A08F9
:103C3000DC0748BF521C048844EA8224048004E064
:103C4000012802D100F037F9038079619BB23A89EB
:103C50004EE09B1803F206431B88C3F30903984206
:103C60002CBFC01A00200028B8610ED100F057F90F
:103C7000002C40D12968387831F820200AEA020265
:103C800046EA020A21F820A035E00CB900F027F935
:103C900097F8240001282ED100F02CF92A687878B2
:103CA000F0B900F0F6F83F2B0488C4F3090404804F
:103CB00007D35A0913F01F0F08BF521E00F0B5F8C2
:103CC0000CE023B9028842F4004202800DE05A0859
:103CD000DC0748BF521C048844EA8224048004E0C4
:103CE000012802D100F0D5F8038079619BB27A896E
:103CF000286801F0EDFA2968387831F8202048F674
:103D0000BF731A4082F0300248EA020821F820808E
:103D100085E5410404D500F0B0F84BF6FF707FE074
:103D2000810404D500F0A9F84DF6FF7078E0C104D5
:103D300005F5387224D52B6803F140014FF6FB706E
:103D40000C8804400C804FF6F7702968B1F84030B9
:103D50000340A1F840301178012905D100201070EE
:103D60000021284601F0DCFA284601F0DAFA296839
:103D7000B1F844204EF6FF700240A1F8442052E012
:103D8000010510D5286830F8401F41F00801018076
:103D90004FF2FF702968B1F844200240A1F8442096
:103DA00000F06FF823E0010626D5286840304FF672
:103DB0007F7183880B4083801078C0B900F061F870
:103DC0002868B0F8401041F00801A0F84010012028
:103DD000107028462968B1F854309B0803F03C0362
:103DE000536003B0BDE8F04F012101F099BA2846B5
:103DF000BDE8FE4F01F096BA81050BD500F03DF805
:103E00004FF6FF508A8802408A802846BDE8FE4F60
:103E100001F089BAC00506D5296840314FF6FF6028
:103E20008A8802408A80BDE8F78F048844EA8224A9
:103E300044F400447047BCF80040C4F30904A142B4
:103E4000704701EBC203C31803F2064370472968A9
:103E5000387831F820300AEA03031A4321F8202089
:103E60007047296831F823C00BEA0C0B8BF4005B18
:103E700048EA0B0B21F823B07047286800F1400195
:103E800070472868B0F8401041F00401A0F84010D5
:103E90007047B2F8500010183A7800EBC20000F2F8
:103EA00006407047B2F850003978101800EBC10096
:103EB00000F2064070472868B0F850203C7880181F
:103EC00000EBC40000F2024070472868B0F85010C0
:103ED0003A78401800EBC20000F2024070472868B0
:103EE00030F82C100AEA0101024646EA010A22F8DB
:103EF0002CA07047FA6978699A18FA61C1183A6972
:103F0000386A904203D31346C01A3862704710B122
:103F1000034600203862002287F824207047787812
:103F200080B92868B0F85020801800EBCC0101F26D
:103F300002410B88C3F309030B80088840F400405A
:103F400008800BE0012829D12868B0F8502080189B
:103F500000EBCC0101F2024100230B802968787844
:103F600080B9B1F850000818397800EBC10000F2B0
:103F700006400288C2F309020280018841F4004130
:103F800001800BE0012809D1B1F8500008183978F8
:103F900000EBC10000F2064000220280284639787A
:103FA00001F0BBB9002084F8A80210BD044694F8C3
:103FB000A8020128704710B5FFF7F8FF01D10220D1
:103FC00010BD012084F8A80284F82410206801F0B4
:103FD00076F9E7E72DE9F84F05464FF00008286825
:103FE0004669D0F804B08468D0F80C90D0F810A0DE
:103FF0008769F10745D5E20713D501218160A00744
:1040000003D5284601F090F90BE0600748BF4FF454
:10401000006806D420074EBF4FF48058284601F0B0
:1040200084F9E00515D52A684FF48071A0059160E8
:1040300003D5284601F07AF90BE0600548BF48F443
:10404000005806D420054EBF48F48048284601F0A9
:104050006EF9E00315D52A684FF48031A003916012
:1040600003D5284601F064F90BE0600348BF48F42B
:10407000004806D420034EBF48F48038284601F09B
:1040800058F9300748BF5FEAC96104D52968102094
:1040900048F40078C860700748BF5FEA097105D529
:1040A00008202A68D060284601F044F9B00707D5F7
:1040B0002968C86810F0030F1CBF284601F03BF9BF
:1040C000700648BF5FEACA6104D52968102048F429
:1040D00080680861B00648BF5FEA0A7105D508200C
:1040E0002A681061284601F027F9F00607D52968EB
:1040F000086910F0030F1CBF284601F01EF9B00339
:1041000048BF5FEACB6105D52A6810205060284679
:1041100001F014F9F00348BF5FEA0B7105D52A6876
:1041200008205060284601F00AF9300440D55FEAC3
:104130004B713AD5F00503D5F90748BF48F001089F
:10414000B00503D5B90748BF48F00208700503D58C
:10415000790748BF48F00408300526D517F0700FDE
:1041600023D007F07007102F0CD0202F0DD0302F48
:104170000ED0402F0FD0502F10D0602F08BF48F422
:1041800080780DE048F008080AE048F0100807E0E1
:1041900048F0200804E048F0400801E048F08008BA
:1041A0002868816921F070018161042029684860D4
:1041B000B8F1000F09D0686A48EA0008C5F8248001
:1041C0002846BDE8F24F01F0BBB8BDE8F18F000012
:1041D000054605F140067047026891691268436B15
:1041E000002B18BF1847704738B501688A690B461D
:1041F000D4051B6808D51D0606D5446C44F001049F
:1042000044644FF48075CD61510509D51C0607D56E
:10421000416C41F0080141644FF480640168CC6155
:10422000910509D51A0607D5416C41F00201416498
:104230004FF400720168CA61416C11F00B0F03D09A
:10424000BDE8344000F0EBB931BD4021204600F01C
:10425000E6B900002DE9F041FFF7BAFFD5F82C8050
:1042600030780F461446012808BF022000F07F80F6
:104270000120B906307005D5A00603D53946284679
:1042800000F0FDF8F806DFF8CC1430D5E2062ED5A4
:10429000688DD0B97078282808BFB8F1007F04D1A4
:1042A0003946284600F08AF95FE07078292808D15D
:1042B000884506D028681021C161284600F03CFAE4
:1042C00050E029681020C8614FE029681020C861BB
:1042D000B8F1000F706840F00400706018BFB8F1CA
:1042E000807F42D12846716800F099F93DE0780757
:1042F00015D5620713D5688D60B12A68506A6A6A5D
:104300001070686A431C288D6B62421E2A85688D76
:10431000421E6A85688D40BB884526D022E038075A
:1043200006D5210704D53946284600F023F81CE0BD
:10433000B8071AD5A10718D5688D68B1686A2A68C8
:1043400001789162686A411C6962688D411E6985C5
:10435000288D411E298508E0B8F1807F18BFB8F18B
:10436000000F02D1284600F04FF800203070BDE861
:10437000F08100002DE9F04100F079F8697801F052
:10438000280128293AD18669D0F818808268C76840
:104390004FEA184101F0FE08E168360C022906F0E8
:1043A0000106C2F3090207F0FE071AD1D10908F08D
:1043B000060301F006018B420BD1A968491CA960D4
:1043C000A96802291ED10023AB600827C7612B70A2
:1043D0000EE04FF4004100F050F8002028703A46FB
:1043E00006E04FF4004100F048F8002028704246F3
:1043F00031462046BDE8F04100F0A3BF0821C1616D
:1044000000202870BDE8F08138B500F030F8016870
:1044100000224B04AA7002D500F0CBF805E0090495
:1044200003D5026822F400420260687829280CD182
:10443000282169702122226300F01EF800222A70D0
:104440002046BDE8324000F07DBF68782A280DD1B3
:104450002821697022202063022100F00EF800203C
:1044600028702046BDE8324000F06DBF31BD0446E3
:1044700004F1400520687047012120467AE1F8B533
:10448000FFF7F5FF0768687822680E462021D161A2
:10449000212818BF292806D148F20101FFF7EDFFB6
:1044A0002122226311E0222818BF2A2805D148F2D0
:1044B0000201FFF7E2FF222006E0282805D148F29A
:1044C0000301FFF7DAFF00202063206800F06CF89A
:1044D000DFF8980221684A6802404A6000F019F942
:1044E000780404D5206800F064F8A06B07E0380475
:1044F00009D52068016821F400410160E06B10B12A
:1045000000684168618570070CD52168486A616A56
:10451000087026F00406606A421C208D626208B1B1
:1045200000F077F8608D18B1686840F004006860AA
:104530000020A87000216163686850B16968FFF7C6
:1045400085FE687828282CD131462046BDE8F44005
:1045500034E0E06A7F4EB0420DD02046FFF754FFB2
:10456000E662202068700021216329702046BDE8A2
:10457000F24000F0E9BE6878222809D12021697054
:104580000020206328702046BDE8F24000F0DBBE2A
:1045900020206870216329702046BDE8F24000F0B9
:1045A000D1BEF1BD00283068416841F4004141604E
:1045B0007047016821F480410160704738B50446B6
:1045C0006448E062002204F1400522632020687004
:1045D000AA70490762630ED52068416A606A01705B
:1045E000616A208D4A1C626228B100F012F8696885
:1045F00041F00401696048F20301FFF73EFF2068C3
:104600001022C261002129702046BDE8324000F02E
:104610009BBE401E2085618D481E6085704770B529
:10462000044604F14005002268784A4BAA70E36210
:1046300062856B681943696028281CBF29282A28CD
:1046400007D10321FFF719FF28226A70DFF8200144
:104650001BE048F20301FFF710FF00F05AF86878FA
:10466000602811D020216970206881698A060BD5E5
:104670008169CA0605D51021C161686840F004004F
:10468000686020202168C86100206063216BA06BF6
:104690000FF2C506C0B1112918BF212914D1206815
:1046A00001684A0401D5FFF784FFA06B00F089FB85
:1046B000012829D0A06B866300212970A06B00F02F
:1046C000FAFA28B3A06B1BE0E06BE8B1122918BF1F
:1046D000222919D1206801680A0403D5016821F450
:1046E00000410160E06B00F06CFB01280CD0E06B36
:1046F000866300212970E06B00F0DDFA40B1E06BC9
:10470000816BBDE8704008472046BDE8704002E07C
:1047100070BD204610E000F130014A7C602A06D1CD
:1047200020234B7400220A600A7400F00EBE00229F
:104730000A600A7400F00ABE006881698A0744BFF3
:10474000002181628169CA0703D4816941F00101B6
:10475000816170470000FFFF806A816B09B1002210
:104760008A63C16B09B100228A63D4E700E800FEC6
:10477000554200080022CB0707D590F8413042226D
:1047800003F02803282B18BFF2228B0709D590F8D5
:10479000413003F0280342F04402282B18BF42F0B6
:1047A000B0020B0448BF42F0B802102908BF42F023
:1047B000900208D0202908BF42F0200203D04029EF
:1047C00008BF42F040020068016821EA020202606C
:1047D00070470000286800F1080151E8001F4908EF
:1047E00000F10803490043E8001000287047F8B5BD
:1047F000054640F60F0C2A68D369104613EA0C0FE1
:104800000668976805F1580406F0200003F02001BF
:104810000BD1002918BF00280ED02169002900F013
:1048200028812846BDE8F44008475FEAC77C04D4E5
:10483000DFF87CE216EA0E0F78D05FEAC37C48BF4F
:104840005FEAC65E07D54FF0010CC2F820C0E26AED
:1048500042F00102E2629A070AD5FA0708D5D5F8B4
:1048600000E00222CEF82020E26A42F00402E26276
:104870005A070AD5FA0708D5D5F800E00422CEF881
:104880002020E26A42F00202E2621A070BD508B960
:10489000FA0708D5D5F800C00827CCF82070E26ADE
:1048A00042F00802E2621A0509D5730107D52E68A5
:1048B0004FF400623262E26A42F02002E262E26A8F
:1048C000002A32D0002918BF002803D0216909B17D
:1048D00028468847E06A29688A68510602D410F0A1
:1048E000280F1DD0284600F0EBF82868816848069C
:1048F00011D500F0C9F8FCD1E06960B10FF239219F
:104900008163E06900F0D7F900280ED0E069816B7F
:10491000BDE8F44008472846BDE8F24000F017BD66
:10492000284600F014FD0020E062F1BDA0680128D7
:1049300075D1D80673D5F10671D51020106229689B
:104940008868410639D5E1690868406880B2002866
:10495000EBD022889042E8DA6080086801688A0615
:1049600023D400F09FF821F4807100F0A5F8F8D16D
:10497000FFF730FFFCD1286800F1080151E8001F63
:1049800000F1080321F0400100F07AF8F3D1202073
:10499000A0620021A16000F085F821F0100100F074
:1049A0008BF8F8D1E06900F063F90220E06021881B
:1049B0006088091A89B228462DE0228861886088BB
:1049C000511A00281CBF88B2002852D02A4610680D
:1049D00050E8003F054623F4907300F04BF8F6D101
:1049E00000F0A3F800F108065B0046E8003000285C
:1049F000F6D12020A0620023A3602361136853E84E
:104A0000003F156823F0100300F034F8F6D10220BF
:104A1000E06089B21046BDE8F44000F099BCD802CD
:104A200009D5790207D54FF4801010622846BDE8F9
:104A3000F24000F08EBC180607D5310605D5616935
:104A4000B9B12846BDE8F4400847580611D57106AB
:104A50000FD500F027F821F0400100F02DF8F8D133
:104A600020206062002161612846BDE8F24000F02C
:104A700071BCF1BD45E800300028704721F080018D
:104A800043E8001000287047296801F1080252E845
:104A9000001F286800F1080321F0400143E80010DE
:104AA00000287047286850E8001F02467047000041
:104AB0002001000421F4F07142E800100028704742
:104AC00010B500F00EF8FCD100F015F8FCD1016E25
:104AD00000F01EF82021C0F88010002202668266D5
:104AE00010BD016851E8002F0B4622F4907243E894
:104AF000002100297047016801F1080252E8002FE7
:104B0000520801F10804520044E8002100297047CE
:104B1000012909D1026852E8002F036822F010022F
:104B200043E800210029F5D17047106800F108031F
:104B300053E8003F5B087047806A00F15201002291
:104B40000A8100230B8000F002BC00007CB5044603
:104B500022685168936803F04100012806D1480695
:104B600004D5E16C2046BDE87C400847980706D58F
:104B70000D0604D5216D2046BDE87C40084713F49E
:104B8000B07F63D0880661D55D060ED594F85D00D0
:104B900003284ED0206E40F00400206600250095CA
:104BA000D66800969568009500989D060ED5206EF3
:104BB00040F0010020660025009592680092206870
:104BC0000568024625F0400515600098DA0509D50C
:104BD000206E40F008002066002200922068826863
:104BE0000092009B206E88B32068426822F0E002A9
:104BF0004260012011F0030F84F85D0021D020688D
:104C00000FF24D054168890889004160A06D30B1FF
:104C10008563A06D00F04FF808B100F023F8606DD7
:104C2000A0B18563606D00F046F878B100F01AF825
:104C300073BD00200090D1680091926800920098A6
:104C400073BD2046BDE8764000F0ACBB73BD0000EC
:104C5000806A00F13E0100220A8100230B8000F0EF
:104C6000A1BB0000206E40F04000206670470000AD
:104C700000F124014A78022A05D00420886100222C
:104C80000A70012070470268136823F00E03136056
:104C900000680268520852000260012091F820204A
:104CA000CB6902F01C02904058600022012048703D
:104CB0000A700020704738B500F1240100244A78BA
:104CC000022A03D004208861012417E002681368D7
:104CD00023F00E031360026815686D086D001560FF
:104CE000012291F82030CD6903F01C039A406A60DC
:104CF00001224A700C70496901B18847204632BDD3
:104D0000F8B500F124010423CA6914680268156823
:104D100091F8206006F01C0603FA06F73C4210D01A
:104D20006F070ED51468A50603D4146824F0040494
:104D3000146000F03EF8C968002939D0BDE8F4409D
:104D40000847022303FA06F73C4213D0AF0711D5F8
:104D50001468A50605D4146824F00A04146001221E
:104D60004A7000F026F800220A70896801B3BDE895
:104D7000F4400847082303FA06F6344218D02B07FC
:104D800016D5146824F00E041460012291F8203026
:104D9000CC6903F01C039A406260012301228A61FE
:104DA0004B7000220A70096911B1BDE8F440084750
:104DB000F1BD91F82020CC6902F01C0293406360A1
:104DC000704790F8250070477047000070477047A3
:104DD0007047704770477047704770472DE9F04241
:104DE0000E4605467278012A48F2800748F68F7110
:104DF00040F00981B4693269A24238BF1446307B61
:104E000030B9F28800F057FA00F04CFA0480F1E073
:104E100096F803E03078D6F820C0BEF1020F0346C2
:104E200040F0CD80624580F0B78035F82300014026
:104E300041F4014141F0800125F82310ACEB04005E
:104E40003062630832787178964635F82E905FEAC2
:104E5000496E04F001004FEA541C4DD5C1B900F071
:104E6000FEF901F2064100F0F4F908D314F01F0F27
:104E700008BFACF1010C088840EA8C2001E01CB9A5
:104E8000088840F4004001E000F0D7F9088006E00F
:104E9000012904D100F0F2F900F206400480728981
:104EA00000F009FA00F0C2F932BF001B04460020EE
:104EB00030627078D8B900F0F5F900F0C4F907D382
:104EC000610914F01F0F08BF491E00F0A9F90CE09A
:104ED00024B9018841F40041018085E06108E207BE
:104EE00048BF491C028842EA812202807CE00128F6
:104EF0007AD100F0D0F974E0C1B900F0B0F901F254
:104F0000024100F0A6F908D314F01F0F08BFACF15E
:104F1000010C088840EA8C2001E01CB9088840F4A4
:104F2000004001E000F089F9088006E0012904D181
:104F300000F0A4F900F202400480328900F0BBF9CD
:104F400000F074F932BF001B044600203062707814
:104F5000E8B900F0A0F900F2064000F074F907D3B8
:104F6000610914F01F0F08BF491E00F059F90CE049
:104F700024B9018841F4004101802FE06108E20773
:104F800048BF491C028842EA8122028026E00128AB
:104F900024D100F080F91EE035F8231048F68F6028
:104FA0000140394325F823106446B5F8500029180C
:104FB000307801EBC00101F202410C8014E0ACEB4F
:104FC0000401316235F823104A06B5F8501029441F
:104FD00001EBC00005D500F206400480A3B272893F
:104FE00004E000F202400480A3B2328971692846CD
:104FF00000F06EF9317835F8212048F6BF70024094
:1050000082F0300225E0307B002833D1B16930696D
:10501000884232BF091A08460021B16100F025F923
:105020003F280B88C3F309030B8018D3420910F003
:105030001F0F08BF521E088840EA822040F400403B
:105040000880317835F821204BF68F70024082F4C9
:105050004052174325F821700020BDE8F08208B9BE
:105060000888EBE74208C00748BF521C088840EA9E
:105070008220E5E7F07802285DD1D2B900F004F98A
:1050800002F2024200F0C5F807D3430910F01F0FE7
:1050900008BF5B1E00F0B1F801E018B9108840F4B9
:1050A000004005E04308C00748BF5B1C00F0A5F8BE
:1050B00010807078D8B900F0E7F802F2064200F0EC
:1050C000A8F807D3430910F01F0F08BF5B1E00F0BC
:1050D00094F801E018B9108840F4004005E0430856
:1050E000C00748BF5B1C00F088F810800BE0012867
:1050F00009D1B5F850003278281800EBC20000F250
:10510000064032690280F06900289AD0307835F87C
:10511000202044F2400303EA02049C4218BF1A42D2
:105120008FD135F82020114041F4004141F0C001F9
:1051300025F8201085E701285DD1B16930698842E2
:1051400032BF091A08460021B161430800F001018D
:10515000440952BB00F055F802F202423F28B2F86F
:1051600000E0CEF3090EA2F800E00CD3A44610F044
:105170001F0F08BFACF1010CB2F800E04EEA8C2E14
:105180004EF4004E0FE030B9B2F800C04CF4004CC1
:10519000A2F800C009E09C4609B10CF1010CB2F87C
:1051A00000E04EEA8C2EA2F800E07278F2B900F02E
:1051B00028F802F206423F28B2F800E0CEF3090ECA
:1051C000A2F800E00AD310F01F0F08BF641E108879
:1051D00040EA842040F40040108032E708B910888B
:1051E000F8E701B15B1C00F008F8F5E7012AF4D1FB
:1051F00000F03BF824E701202FE7108840EA8320E5
:105200007047B5F8502096F800C0AA1802EBCC02FF
:1052100070471388C3F30903138030693F28704730
:10522000028842EA812242F4004270477069316983
:1052300020447061306A8142704700B15B1C08886D
:1052400040EA832070473F2C0288C2F309020280A3
:1052500070473F2C0A88C2F309020A807047B5F8EC
:105260005010691801EBC2017047B5F85010327840
:10527000691801EBC20101F206417047B5F8500010
:10528000281800EBC2007047B5F850002A18307893
:1052900002EBC0027047B5F850003178281800EBD7
:1052A000C1007047B5F850003178281800EBC100F4
:1052B00000F2024070477169A3B2284608E011B9B4
:1052C0008021A0F84C1000207047B0F844007047CF
:1052D00010B580185B1C00F580605B0807E00A7859
:1052E0004C7842EA0422891C20F8022B5B1EF6D17E
:1052F00010BD10B5821802F58062580806E032F839
:10530000024B0C70240A4C70891C401EF7D1D80740
:1053100044BF1088087010BD7047704770477047D1
:1053200070477047704770477047704770477047C5
:1053300070477047704770477047704770477047B5
:1053400070477047704770477047704770477047A5
:105350007047704738B50446DFF83800DFF838503A
:10536000844203D1296809B120468847DFF82C0020
:10537000844203D1696809B120468847DFF82000DC
:10538000844205D1A96819B12046BDE834400847D8
:1053900031BD00000C2100205C250020942100205C
:1053A0001C2200207047000080B510B900F01FF8E3
:1053B000FEE7002101604160017201BD80B510B9B6
:1053C00000F015F8FEE7017A022902D300F00FF889
:1053D000FEE74A1C0272EFF3118240F821205020B0
:1053E00080F31188BFF34F8FBFF36F8F01BD72B68B
:1053F000FDF7EFBD80B510B9FFF7F9FFFEE7017AC1
:10540000491ECAB2022A017202D3FFF7F0FFFEE77B
:10541000C9B250F8210080F3118801BD10B53D4C90
:105420002046FFF7CBFF00203B4900220301401C30
:10543000CA540428FAD32046FFF7DCFF04F10C001D
:10544000FFF7BCFF0020354900220301401CCA546D
:105450000828FAD304F10C00FFF7CCFFBDE8104098
:1054600000F096B838B5040002D100F059F8FEE714
:1054700000F010F80021284A0B01D05C18B1491C3B
:105480000429F9D303E000F031F828463BE000F0AE
:1054900047F8FEE71F4D284690E738B5040002D1D3
:1054A00000F03EF8FEE7FFF7F5FF00F026F803D125
:1054B00000220270284626E000F032F8FEE738B5F8
:1054C000040002D100F02CF8FEE700F01FF80021E4
:1054D000124A0B01D05C18B1491C0829F9D302E02B
:1054E00000F004F80DE000F01BF8FEE7D018206093
:1054F000012101702068001D56E72068017801290C
:10550000704705F10C00BDE8324073E7014D05F12D
:105510000C0053E728250020FC2500207C250020D6
:1055200072B6FDF756BD38B5040002D1FFF7F8FF9B
:10553000FEE7FFF7EBFFFFF7E0FF02D1002202706A
:10554000DFE7FFF7EDFFFEE770B51F4D2868F0B10C
:1055500000F03CF80446002000F03AF8012C064622
:1055600005DB3046FFF7DFFF361D641EF9D1284604
:10557000FFF793FF281DFFF790FF05F10800FFF7E5
:105580008CFF05F10C00BDE87040FFF786BF70BDD1
:1055900070B500240C4D05EB8400FFF763FF641C1D
:1055A000042CF8DB00F012F80546002000F010F89B
:1055B0000646002404E006EB8400FFF780FF641C2D
:1055C000AC42F8DB70BD0000402500200820704789
:1055D000010003481CBF897800EB8100704700BFC1
:1055E000082500200A4881B0016841F001010160EE
:1055F000026802F0010200920099026842F0020281
:105600000260006800F002000090009801B070474E
:105610004810024010B586B000F084F83C483D4C7C
:10562000016841F001010160026802F00102059287
:105630000599026842F002020260036803F0020367
:1056400005930599026842F004020260036803F0C2
:10565000040305930599026842F080020260142158
:10566000006800F08000059005986846FCF756F940
:10567000032000210190029149F6FF7200926946D1
:105680004FF09040FCF74EF94FF6FF70009000F09D
:1056900022F869462048FCF745F969461F48FCF79F
:1056A00041F900F01CF800F03DF84FF4441101916D
:1056B00001220292002103914FF40052009200F067
:1056C0000AF8002208212820FCF732FA2820FCF7EB
:1056D0004DFA06B010BD69462046FCF723B918B54F
:1056E00085B000F01FF800210291039101224FF4D0
:1056F0000051009101926946094CFFF7EDFF00222D
:105700004FF400512046FCF7E6F906B010BD00004A
:105710004C1002400004004800080048001C0048EB
:10572000000C004814216846FCF7F8B810B5494C45
:105730004FF4CA724FF000612046FCF779F8464BEF
:1057400046481C604FF400420260FCF7B1F800F0DC
:1057500017F80F20FCF720FAFCF779FF00F05FF84C
:10576000FFF758FFFFF73EFFFCF774F8FAF74DFD1F
:1057700000F07AF8FAF758FDFDF72BFC002010BD79
:1057800080B596B0442105A8FCF7C8F814216846F6
:10579000FCF7C4F800F06AF83148016821F01801FC
:1057A00001604FF40070FDF703F808B1FDF711FC3C
:1057B000012207920B92042100220C9205910222F1
:1057C00060210D91012110911191282105980F92CE
:1057D000129140F0100005900722022113921491BB
:1057E000159105A8FCF74AFA08B1FDF7F2FB0F2066
:1057F000032100900191002202920392049204215D
:105800006846FCF783FC08B1FDF7E3FBFDF7EEFE0D
:105810001448016821F40041016017B000BD80B553
:1058200098B060216846FCF779F801220192029253
:1058300007211822039204910222059206926846DB
:105840004FF088720792FDF78DFD08B1FDF7C1FB9F
:1058500019B000BD001C002008ED00E0102002403F
:105860009010024008100240704700000248016892
:1058700041F480710160704700700040014880472A
:10588000014800478D580008AD58000802480168DB
:1058900041F470010160704788ED00E000000000F5
:1058A000000000000102030406070809054801463C
:1058B00003B4684680F30988AFF3008000F004F871
:1058C00000F014F8A5EDF5FE4EF68851CEF2000179
:1058D000086840F470000860BFF34F8FBFF36F8F0C
:1058E0004FF00170E1EE100A7047000000F00DF873
:1058F000002801D000F00CF8AFF300800020AFF3D7
:105900000080FFF713FF00F017F801207047000038
:1059100010B5074979441831064C7C44163404E02C
:105920000A68081D114488470146A142F8D110BDFC
:10593000300100005001000000F000B80746FFF7FA
:1059400003FE384600F002F8FBE7000080B5AFF335
:105950000080024A11001820ABBEFBE726000200BF
:1059600010B50446044979440E31044878440C309B
:1059700000F006F8204610BD240000001C000000C6
:1059800038B504460D46AC4205D020682018804743
:10599000241DAC42F9D131BD85FAFFFFFFF7FEBFF0
:1059A000FFF7FEBFFFF7FEBFFFF7FEBFFFF7FEBF2B
:1059B000FFF7FEBFFFF7FEBFFFF7FEBFFFF7FEBF1B
:1059C000FFF7FEBFFFF7FEBFFFF7FEBFFFF7FEBF0B
:1059D000FFF7FEBFFFF7FEBFFFF7FEBFFFF7FEBFFB
:1059E000FFF7FEBFFFF7FEBFFFF7FEBFFFF7FEBFEB
:1059F000FFF7FEBFFFF7FEBFFFF7FEBFFFF7FEBFDB
:105A0000FFF7FEBFFFF7FEBFFFF7FEBFFFF7FEBFCA
:105A1000FFF7FEBFFFF7FEBFFFF7FEBFFFF7FEBFBA
:105A2000FFF7FEBFFFF7FEBF30B4002512E050F8CD
:105A3000042BD30744BF4A44521E091F042942F8CD
:105A4000045BFAD213468C0744BF15809B1CC90720
:105A500048BF1D7050F8041B0029E8D130BC7047C6
:105A6000C9FFFFFF302500004C00002000000000AF
:105A70002BB1FFFF100000003200000000000020EA
:105A8000E1FEFFFFFC00FCAAD3000380000010FD34
:0D5A9000000001F9000010FC0002093D00BB
:04000005080058ADEA
:00000001FF
