:020000040800F2
:10000000782E002079340108877400089374000862
:100010009F740008AB740008B7740008000000006B
:100020000000000000000000000000008D4C0008EF
:10003000BF74000800000000354C0008E5150108F9
:10004000513601085536010859360108E174000897
:100050005D36010861360108457600084F760008D4
:1000600059760008637600086D7600086536010849
:10007000693601086D360108817500088B75000826
:10008000957500089F75000871360108FF74000817
:1000900009750008137500081D75000877760008BB
:1000A00075360108793601087D3601088136010868
:1000B000CD74000800000000000000002775000853
:1000C0003175000885360108893601086D7500080C
:1000D0007775000859750008637500088D360108AA
:1000E00083760008D77400080000000000000000BC
:1000F0000000000000000000000000000000000000
:10010000000000009136010800000000953601084B
:100110000000000000000000993601089D3601082B
:10012000A1360108A5360108A9360108AD36010837
:10013000B1360108000000000000000000000000CF
:10014000B5360108EB740008B9360108F5740008EB
:10015000A9750008B37500084F750008BD36010881
:100160003B75000845750008C13601080000000015
:10017000C5360108C9360108CD3601080000000067
:10018000D1360108D5360108D93601080000000033
:100190000000000000002440000000000000594062
:1001A000000000000088C3400000000084D7974191
:1001B0000080E03779C34143176E05B5B5B8934663
:1001C000F5F93FE9034F384D321D30F94877825A2F
:1001D0003CBF737FDD4F15757561727400000000C0
:1001E0002A2A2A2A2A0A00000A2A2A2A2A2A0A004D
:1001F00072657374617274006D656D00706F776500
:1002000072000000626F6F746C6F61646572000051
:100210007A786300626F6F740000000052414D20D5
:100220002020706879736963616C3A20256C750AC7
:100230000000000052414D2061742073746172749B
:1002400075703A20256C750A0000000052414D205F
:10025000202020202020667265653A20256C750AD2
:1002600000000000504F5745523A2025730A000005
:10027000756E7265636F676E697A656420636F6D12
:100280006D616E640A000000F001000800000000CB
:10029000F801000802000000FC0100080100000055
:1002A0000402000803000000100200080300000020
:1002B0000000000000000000433A5C557365727353
:1002C0005C726F7A7A69655C6465765C6379676E87
:1002D00065745C53797374656D5C476C6F62616CB7
:1002E0005C676572722E6300696E76616C6964206A
:1002F0006572726F7220636F646500006572726F61
:1003000072207461626C6520636F727275707469BB
:100310006F6E0000616E20756E6B6E6F776E20657C
:1003200072726F72206F63637572726564202868E1
:10033000696768206572726F722072617465290046
:100340007B22657272223A220000000063616E6EA9
:100350006F7420616C6C6F6361746520256420622A
:1003600079746573207B6D656D6F72797D00000017
:1003700062616420706172616D73000008000000AA
:10038000524E47200000000041444331200000004D
:1003900043414E31200000004C5055415254312011
:1003A0000000000055534152543120005553415232
:1003B0005432200049324331200000004932433397
:1003C00020000000535049312000000053504932B2
:1003D0002000000075617274000000002A2A2A2A99
:1003E0002A2A2A2A2A2A2A2A2A2A2A2A2A2A2A2A6D
:1003F0002A2A0A0025732055544320282564290AF7
:100400000000000052414D3A20256C75206672654F
:1004100065206F6620256C752028256425252075AC
:10042000736564290A000000524F4D3A20256C750F
:100430002066726565206F66203235364B42202873
:10044000256425252075736564290A007265717518
:100450006573740063616E277420616C6C6F6361F7
:10046000746520696E6974206D757465780000008C
:1004700063616E277420616C6C6F63617465206DBD
:1004800075746578000000002A2A2A206D7574654D
:10049000784C6F636B206E657374656421202573DF
:1004A0003A25750A000000002A2A2A2025732030E8
:1004B00078253031366C6C78206D757465782061E4
:1004C0006C7265616479206163717569726564201D
:1004D000283078253031366C6C78292025733A2500
:1004E000750A00002A2A2A202573206D7574657804
:1004F000206F72646572696E67202877616E742060
:100500003078253031366C6C78207768696C6520DE
:10051000686F6C64696E67203078253031366C6C9A
:1005200078292025733A25750A0000002A2A2A20F6
:100530006D75746578556E6C6F636B206F66207592
:100540006E6C6F636B6564206D7574657821202017
:1005500025733A25750A00002A2A2A206D757465CC
:1005600078556E6C6F636B206F66206D757465785F
:10057000206F776E656420627920616E6F746865A4
:1005800072207461736B2120286375723A25642090
:100590006F776E65723A256429202025733A257598
:1005A0000A0000006E756C6C0000000025312E31D1
:1005B0003567000025312E313767000066616C73A6
:1005C0006500000074727565000000008000000086
:1005D000F0E300E02B434D45204552524F523A2064
:1005E0006E6F742061206D6F64656D0022636D64B1
:1005F000223A00004A534F4E206F626A65637420AE
:100600006578706563746564207B696F7D000000A8
:100610006E6F2072657175657374207479706520D2
:1006200073706563696669656400000063616E27C5
:100630007420616C6C6F6320726573706F6E73658C
:1006400000000000766572626F7365006563686F15
:1006500000000000756E7265636F676E697A65648D
:1006600020726571756573743A202573000000006F
:10067000726571756573740072657374617274006C
:10068000626F6F74000000004C5055415254310AA3
:10069000000000005553415254310A005553415255
:1006A00054320A00433A5C55736572735C726F7A18
:1006B0007A69655C6465765C6379676E65745C41D4
:1006C00070705C73657269616C2E63008D34010813
:1006D0009D340108A53401082B350108893401082F
:1006E0008B34010800000000000000000000000042
:1006F00000000000000000000000000000000000FA
:1007000000000000010203040607080900000000C1
:1007100001020304A0860100400D0300801A0600B8
:1007200000350C0040420F0080841E0000093D008F
:1007300000127A000024F40000366E010048E8013F
:10074000006CDC027461736B206E6F7420666F75D1
:100750006E6400007461736B20737461636B733A31
:100760000A0000002020253132733A20256C752FB5
:10077000256C752025302E326625252072656D6129
:10078000696E696E670A00002A2A2A2A2A2A2A2AFA
:100790002A2A2A2A2A2A2A2A2A2A2A2A2A2A2A2AB9
:1007A0002A2A2A2A2A2A2A2A2A2A2A2A2A2A2A2AA9
:1007B0002A2A2A2A2A2A2A2A2A2A2A2A2A0A00000D
:1007C0002A2A2A2A2A204E45415220535441434B7B
:1007D000204F564552464C4F572121210A00000018
:1007E00049444C450000000028746F6F20736D6110
:1007F0006C6C290028756E696E697469616C697A20
:1008000065642900433A5C55736572735C726F7A54
:100810007A69655C6465765C6379676E65745C5360
:10082000797374656D5C476C6F62616C5C74696D43
:1008300065722E6300000000CB300008000000004D
:10084000053100084F31000873310008813100087C
:100850008731000899310008AF310008B531000830
:10086000D331000863320008833200087332000875
:100870009132000815320008546D722053766300DF
:10088000546D7251000000006C70756172743120FB
:10089000696F62756600000075736172743120695A
:1008A0006F627566000000007573617274322069B2
:1008B0006F6275660000000000002115110E0D0C1E
:1008C0000B0B0A0A09090909090808080808080899
:1008D00007070707070707070707070707000000BD
:1008E00030313233343536373839616263646566A6
:1008F0006768696A6B6C6D6E6F7071727374757610
:100900007778797A000000007363616E665F733AEE
:10091000206261642025632C2025732C206F7220B7
:10092000255B20617267756D656E74007363616E1F
:10093000665F733A2062616420666C6F6174696EF1
:10094000672D706F696E7420617267756D656E7466
:100950000000000000004129211C1917161514136E
:1009600012121111111010100F0F0F0F0E0E0E0E8C
:100970000E0E0E0D0D0D0D0D0D0000003031323339
:100980003435363738396162636465666768696A29
:100990006B6C6D6E6F707172737475767778797A2F
:1009A00000000000E0B500200190372000900023F7
:1009B0004FF4FA725449554800F0FDF807BD10B5E0
:1009C0000400A0040CD54FF40051514801F0C6FAC0
:1009D000002801D1012000E00020C0B201F0EAFAB5
:1009E00010BD10B5040001F00DFB4A4AC2E9000138
:1009F00049488068804710BD704770B5060001F017
:100A000001FB444AD2E90045041B71EB0505D2E91C
:100A10000001002901D1002813D0002D11DB01DCD9
:100A2000022C0ED300200021C2E900012100491E42
:100A30004FF47A7041434FF47A70B1FBF0F000F05C
:100A400011FB3548C068804770BD2DE9F04F85B077
:100A5000142400256E462A002100300001F0D4FB4A
:100A600003200190002002904FF480400090284E17
:100A70006946300001F0DEF84FF4005000906946FE
:100A8000300001F0D7F8102000906946300001F0E6
:100A9000D1F84FF4007000906946300001F0CAF8B8
:100AA00014275FF00008E94642463900484601F045
:100AB000ABFB0120019000200290002003904FF436
:100AC000807000906946300001F0B4F800224FF4C5
:100AD0008071300001F04DFA5FF014095FF0000AF8
:100AE000EB4652464946584601F08EFB03200190E2
:100AF000002002904FF4004000906946300001F061
:100B000099F805B0BDE8F08FD80100087D320108E2
:100B10000004004848280020CC0600082DE9F847CA
:100B200085B006000F00904699460F9C109D002C42
:100B300007D1502080F31188BFF34F8FBFF36F8F21
:100B4000FEE7002D07D1502080F31188BFF34F8FAF
:100B5000BFF36F8FFEE75C20009000985C2807D001
:100B6000502080F31188BFF34F8FBFF36F8FFEE7E4
:100B70000098002D19D0002C17D0AA46CAF8304092
:100B800002208AF8590000200390CDF808A004A89C
:100B900001900E9800904B4642463900300000F01C
:100BA00043F8504600F0B3F801E0002004900498A8
:100BB00006B0BDE8F0872DE9F84384B006000F00C9
:100BC00090469946404680B2800001F051FB0500F6
:100BD000002D0BD05C2001F04BFB0400002C01D059
:100BE000256304E0280001F0D8FB00E00024002C7D
:100BF00015D0002084F859000020039002940D982D
:100C000001900C9800904B46424692B23900300059
:100C100000F00AF8200000F07AF8012001E05FF00F
:100C2000FF3005B0BDE8F0832DE9F94F81B00C002D
:100C300016000C9F0D9DDDF83880B00000905FF02D
:100C4000A50BD8F830A05A460099504601F0DCFABE
:100C5000D8F8300000EB8600B0F1040A5FEADA0A47
:100C60005FEACA0A1AF00700002807D0502080F374
:100C70001188BFF34F8FBFF36F8FFEE7002C15D0A5
:100C800000208146B9F1100F0CD214F8090008EBCE
:100C9000090181F8340014F80900002802D019F184
:100CA0000109EFE7002088F8430002E0002088F8FF
:100CB0003400382F01D337200700C8F82C70C8F84B
:100CC0004C700020C8F8500018F1040001F06FFCCF
:100CD00018F1180001F06BFCC8F81080D7F138004B
:100CE000C8F81800C8F824800020C8F85400002074
:100CF00088F85800029A0199504601F097FCC8F80C
:100D00000000002D01D0C5F80080BDE8F78F38B590
:100D1000040001F01BFDDFF848130868401C086060
:100D2000DFF8F8532868002806D12C6008680128ED
:100D30000DD100F0F5FB0AE0DFF8E40300680028BD
:100D400005D1E06A2968C96A884200D32C60DFF8BF
:100D5000D4030168491C016000686064DFF8C803BF
:100D60000168E26A914201D2E16A0160211DDFF867
:100D7000BC23E36A1420434302EB030001F01AFC96
:100D800001F0FEFCDFF89803006800280DD0286809
:100D9000C06AE16A884208D25FF08050DFF8A81488
:100DA0000860BFF34F8FBFF36F8F31BD38B50500BB
:100DB0000024002D15D0DFF87C030068002807D040
:100DC000502080F31188BFF34F8FBFF36F8FFEE782
:100DD00000F0A6F80021280000F0D0FE00F0C9F8CD
:100DE0000400002C08D15FF08050DFF85C1408602C
:100DF000BFF34F8FBFF36F8F31BD2DE9F041060078
:100E00003500002D07D1502080F31188BFF34F8F9C
:100E1000BFF36F8FFEE7DFF804030068854201D15E
:100E200000202DE001F092FC68690400DFF8D00496
:100E300000680700DFF8CC040068804601F0A0FCE1
:100E4000BC4201D0444501D1022019E0DFF8B804CA
:100E500084420CD1A86A002807D195F858000128CF
:100E600001D102200CE003200AE0022008E0DFF8B4
:100E7000C002844201D0002C01D1042000E00120F6
:100E8000C0B2BDE8F08110B586B00020049000200B
:100E9000039005AA03A904A801F0DCFCDFF81847B9
:100EA0000498029003980190002000900023059A76
:100EB000DFF808170FF2C950FFF730FE20602068F6
:100EC000002801D0012400E00024012C02D101F00F
:100ED000CDFC0400012C16D1502080F31188BFF303
:100EE0004F8FBFF36F8F5FF0FF30DFF8D4160860CD
:100EF0000120DFF82C1208600020DFF85013086092
:100F000001F0BDFB0AE014F1010F07D1502080F37E
:100F10001188BFF34F8FBFF36F8FFEE706B010BD90
:100F2000DFF810020168491C016070470021DFF8FA
:100F3000F8010068002801D001200100DFF8DC0181
:100F40000068C06A002801D0002011E0DFF8DC0151
:100F50000068022801D300200AE0002901D0002007
:100F600006E0DFF85C060268DFF8E0020068101AAD
:100F70007047F8B500250026DFF8B8412068002842
:100F800007D1502080F31188BFF34F8FBFF36F8FCD
:100F9000FEE701F0DBFB2068401E2060206800288F
:100FA00056D12F480068002852D0DFF8081608688C
:100FB000002827D0C868C068050015F1180001F0A6
:100FC00020FB281D01F01DFBDFF85C010168EA6AC7
:100FD000914201D2E96A0160291DDFF85021EB6AD4
:100FE0001420434302EB030001F0E4FAE86ADFF85F
:100FF0002C110968C96A8842D7D30120DFF80C1781
:101000000860D2E7002D01D000F056FBDFF81C7815
:101010003C68002C0CD000F08FF8002803D0012091
:10102000DFF8E8160860641E002CF4D10020386058
:10103000DFF8D806006800280AD0012006005FF01B
:101040008050DFF804120860BFF34F8FBFF36F8F3B
:1010500001F096FB3000F2BDDFF8F0010068704748
:101060003C290020F0B50400DFF854552868774E7D
:1010700031686118884207D2502080F31188BFF38D
:101080004F8FBFF36F8FFEE7A646DFF8F0C8DCE9AD
:10109000000110EB0E0E00200021CCE90001BEF192
:1010A000020F08D3DFF8D828D2E90001401C71F103
:1010B000FF31C2E9000128683768C71B306829681A
:1010C000884201D2BE4524D328683168884209D2BB
:1010D000DFF8B028D2E90001401C71F1FF31C2E90C
:1010E000000113E0774511D2DFF89C28D2E9000116
:1010F000401C71F1FF31C2E90001DCE90023BEEBC5
:101100000700002110185941CCE90001286830601F
:1011100002E0306820183060F0BD00002C2900206B
:1011200048290020582900204429002018010020C7
:1011300044270020642900202DE9F0410027DFF832
:101140004C080068002876D140480468641C04609C
:10115000002C1AD16A4908680068002807D050207E
:1011600080F31188BFF34F8FBFF36F8FFEE7D1F885
:101170000080644802680A60C0F80080DFF8100848
:101180000168491C016000F097FADFF83484D8F850
:10119000000084423AD35A4908680068002804D104
:1011A0005FF0FF30C8F8000030E00868C068C06831
:1011B000050068680600B44202D2C8F8006025E065
:1011C000281D01F01EFAA86A002803D015F11800A6
:1011D00001F017FADFF8BC070168EA6A914201D210
:1011E000E96A0160291DDFF8D028EB6A1420434327
:1011F00002EB030001F0DEF9E86ADFF8C0180968C5
:10120000C96A8842C7D301200700C4E7DFF8AC08E9
:101210000068DFF8A418C26A1420424388580228E4
:1012200001D301200700DFF8E4040068002807D09C
:101230000120070004E0DFF8F4050168491C0160A3
:101240003800BDE8F081000004ED00E040290020F6
:1012500010B4DFF838070068002804D00120DFF858
:10126000AC1408602FE00020DFF8A0140860DFF85D
:10127000242710681423DFF8404803FB00F161586D
:1012800000290BD1002807D1502181F31188BFF329
:101290004F8FBFF36F8FFEE7401EEBE703FB00F3BA
:1012A00004EB03014B685B684B604B6811F1080469
:1012B000A34202D14B685B684B604968C968DFF89C
:1012C000FC371960106010BC704738B504000D0081
:1012D000002C07D1502080F31188BFF34F8FBFF34C
:1012E0006F8FFEE7DFF8D407006810F118012000C7
:1012F00001F06CF90121280000F040FC31BD000034
:1013000030290020342900205827002070B505001E
:101310000E001400002D07D1502080F31188BFF378
:101320004F8FBFF36F8FFEE7DFF89007006810F173
:101330001801280001F03EF9002C02D05FF0FF30C8
:1013400006002100300000F019FC70BD38B5050022
:10135000E868C468002C07D1502080F31188BFF3DF
:101360004F8FBFF36F8FFEE714F1180001F049F9BA
:10137000DFF818060068002817D1201D01F041F998
:10138000DFF810060168E26A914201D2E16A016069
:10139000211DDFF82427E36A1420434302EB0300F6
:1013A00001F008F900F088F904E014F1180181480F
:1013B00001F000F9DFF804070068C06AE16A8842BA
:1013C00005D201200121DFF84423116000E0002054
:1013D00032BDDFF8BC1509680160DFF81018096834
:1013E000416070472DE9F04104000D00002C07D149
:1013F000502080F31188BFF34F8FBFF36F8FFEE74C
:10140000002D07D1502080F31188BFF34F8FBFF319
:101410006F8FFEE701F09AF9DFF8D007066867687A
:10142000F71B286810F1010F02D15FF000081BE0E4
:10143000DFF85C0500682168884205D06068864254
:1014400002D35FF001080FE02868874208D22868BD
:10145000C01B28602000FFF7BCFF5FF0000803E01E
:10146000002028605FF0010801F08AF94046BDE8DD
:10147000F0810120DFF8941208607047000000003E
:1014800070B5040000F076F8DFF82C06006802283A
:1014900008D35FF08050DFF858170860BFF34F8F14
:1014A000BFF36F8FFFF742FD0500022DEAD3FFF770
:1014B00037FD43480068DFF834170968884207D2CF
:1014C000502080F31188BFF34F8FBFF36F8FFEE77B
:1014D000FFF72CFD0600022E02D3300001F030FC95
:1014E000FFF747FDCEE701220120324909680029B4
:1014F00002D00021080011E084490968002902D0C7
:10150000002108000AE0DFF8EC160968DFF8E83689
:101510001B689B1A994201D102210800C0B2704792
:1015200070B50024382C09D2DFF88C05142101FB9A
:1015300004F1084401F02CF8641CF3E7DFF8BC5612
:10154000280001F025F8DFF8B866300001F020F837
:10155000184801F01DF8DFF8AC0601F019F8DFF8C3
:10156000940601F015F8DFF8A0060560DFF89C0688
:10157000066070BD38B5DFF898562868002817D087
:1015800001F0E4F8DFF87C06C068C0680400201DA4
:1015900001F037F8DFF860060168491E016028682D
:1015A000401E286001F0ECF8200000F063F8E2E74C
:1015B00031BD00003027002060290020E00700082E
:1015C0005C2900202DE9F04104000E0015001F00E9
:1015D000002C04D1DFF83C06D0F8008000E0A046E3
:1015E000C6F8008018F134007060D8F82C00306123
:1015F000D8F83000F061D8F84400B060D8F84C005A
:1016000070610020B0613800C0B2052817D0DFF843
:1016100004060068804502D10020307313E0377360
:101620003800C0B203280ED1FFF77AFCD8F82800A2
:10163000002801D002203073FFF79BFC03E04046F6
:10164000FFF7DBFB3073002D05D0D8F8300000F039
:1016500006F8308401E000203084BDE8F08101000C
:1016600000200A78A52A02D1491C401CF9E780080D
:1016700080B2704710B5040094F85900002806D1D4
:10168000206B00F08AFE200000F087FE13E094F843
:101690005900012803D1200000F07FFE0BE094F8F0
:1016A0005900022807D0502080F31188BFF34F8FD4
:1016B000BFF36F8FFEE710BDDFF84C2510680068A0
:1016C000002805D15FF0FF30DFF84C25106007E0FF
:1016D0001068C068C06801004868DFF83C251060E9
:1016E0007047DFF8300500687047DFF830050068A4
:1016F000002801D1012007E0DFF824050068002858
:1017000001D1022000E00020704700005029002095
:101710002DE9F843040025000026002C3DD0DFF819
:101720009C73E86A3968C96A88422FD2A869002880
:1017300004D43868C06AD0F13800A861DFF8788333
:101740005FF014096869E96A09FB01F141448842C4
:1017500016D1281D00F055FF3868C06AE862DFF82E
:10176000C4040168EA6A914201D2E96A0160291D54
:10177000E86A09FB00F908EB090000F01BFF02E032
:101780003868C06AE8620120060006E0E86C396843
:10179000C96A884201D2012006003000BDE8F28308
:1017A00070B5040025000026002C3DD0DFF80C03A6
:1017B0000068854207D0502080F31188BFF34F8F17
:1017C000BFF36F8FFEE7286D002807D1502080F30C
:1017D0001188BFF34F8FBFF36F8FFEE7286D401E58
:1017E0002865E86AE96C88421ED0286D00281BD164
:1017F000281D00F006FFE86CE862E86AD0F13800C6
:10180000A86164480168EA6A914201D2E96A01600C
:10181000291DDFF81424EB6A1420434302EB030074
:1018200000F0C8FE01200600300070BD4C290020E9
:101830002DE9F84F04000F00A0465FF00109002CCD
:1018400058D0D8F85000002807D1502080F31188D4
:10185000BFF34F8FBFF36F8FFEE7D8F84C00B8424D
:1018600001D23E0002E0D8F84C000600D8F82C0067
:10187000B0423FD0D8F8500048453BD18F4800686F
:10188000804507D1502080F31188BFF34F8FBFF3FD
:101890006F8FFEE7D8F82C000500C8F82C60D8F848
:1018A0001800002803D4D6F13800C8F81800DFF873
:1018B00008A25FF0140BD8F814000BFB05F151449B
:1018C000884217D118F1040000F09BFEDFF85403A2
:1018D0000168D8F82C20914202D2D8F82C1001606F
:1018E00018F10401D8F82C000BFB00FB0AEB0B00ED
:1018F00000F060FEBDE8F18FDFF8181308680028DB
:1019000003D00868026D521C026508687047F8B57C
:1019100004000D0000F01AFF684F3868406D002881
:1019200012D10120396881F85800002D0CD0012116
:10193000280000F023F95FF08050DFF8B41208604F
:10194000BFF34F8FBFF36F8F00F01AFF00F0FEFE62
:101950003868466D002E08D0002C03D0002039686E
:10196000486502E0701E396848650020396881F8D2
:10197000580000F005FF3000F2BD0000A028002054
:101980008828002098280020902800206429002022
:1019900054290020442900202DE9F04704000E00BE
:1019A00017001D005FF00108002C07D1502080F3C4
:1019B0001188BFF34F8FBFF36F8FFEE7A14600F092
:1019C000C5FE002D02D0D9F85400286099F858A01F
:1019D000022089F858003800C0B200281FD0022821
:1019E0000AD003D3042810D00CD319E0D9F854003E
:1019F0003043C9F8540020E0D9F85400401CC9F81D
:101A000054001AE0C9F8546017E05046C0B20228EA
:101A100002D0C9F8546001E0002080460DE00CE0DF
:101A2000D9F8540010F1010F07D0502080F311882D
:101A3000BFF34F8FBFF36F8FFEE75046C0B2012850
:101A400035D119F1040000F0DCFDDFF8D8010168A0
:101A5000D9F82C20914202D2D9F82C10016019F14A
:101A60000401154AD9F82C301420434302EB03003B
:101A700000F0A0FDD9F82800002807D0502080F3FE
:101A80001188BFF34F8FBFF36F8FFEE7FFF714FE90
:101A90000A480068C06AD9F82C10884207D25FF063
:101AA000805053490860BFF34F8FBFF36F8F00F032
:101AB00067FE4046BDE8F087180100202C29002071
:101AC0002DE9F04104000D00002C07D1502080F3D7
:101AD0001188BFF34F8FBFF36F8FFEE700F07AFEE0
:101AE0002600EFF31187502181F31188BFF34F8F48
:101AF000BFF36F8F96F85880022086F85800706DFB
:101B0000401C70654046C0B2012833D1B06A00283D
:101B100006D081F31188BFF34F8FBFF36F8FFEE7BD
:101B20003F480068002813D1301D00F06AFD3D4891
:101B30000168F26A914201D2F16A0160311D3A4AAC
:101B4000F36A1420434302EB030000F033FD04E08A
:101B500016F11801354800F02DFD2E480068C06AC6
:101B6000F16A884206D2002D01D0012028600120B0
:101B70002F49086087F31188BDE8F0812DE9F04115
:101B800005000C0019480768DFF88880D8F80000C5
:101B9000001D00F036FD15F1010F08D1002C06D014
:101BA000D8F80000011D134800F004FD1AE0E81900
:101BB0000600D8F800004660BE4207D2D8F8000000
:101BC000011D1248006800F001FD0BE0D8F800008C
:101BD000011D0D48006800F0F9FC0F4801688E42B5
:101BE00000D20660BDE8F08100000000402900201E
:101BF00004ED00E0582700203C29002008270020A1
:101C00001C270020442700203029002034290020F0
:101C1000382900202C2900205C2900204829002098
:101C200064290020442900201801002030270020CA
:101C300050290020F8B4030000250868E840002877
:101C400000F0D78001260F6816FA05F007403A0029
:101C5000002A00F0CC80087910F00300012804D09D
:101C6000087910F0030002281DD19F685FF0030C73
:101C70002800C0B240001CFA00FC37EA0C07D1F87B
:101C80000CC02800C0B240001CFA00FC5CEA070748
:101C90009F605868AE40B0434E68C6F30016AE4031
:101CA000304304005C60087910F0030003280ED074
:101CB000DE6803272800C0B240008740BE438F681B
:101CC0002800C0B2400087403E433400DC60087901
:101CD00010F00300022818D12800C00803EB800090
:101CE000066A0F2715F00700C0B280008740BE4388
:101CF0000F6915F00700C0B2800087403E433400F2
:101D00002800C00803EB800004621E680327280037
:101D1000C0B240008740BE430F7917F00307280088
:101D2000C0B2400087403E4334001C60486810F455
:101D3000403F5CD09548066856F001060660006892
:101D400010F0010000900098914F2800800857F88B
:101D500020605FF00F0C15F00300C0B280001CFA89
:101D600000FC36EA0C06B3F1904F01D1002414E0D8
:101D70008848834201D101240FE08748834201D182
:101D800002240AE08548834201D1032405E0844807
:101D9000834201D1042400E0072415F00300C0B2FF
:101DA0008000844026432800800847F820607D4C4E
:101DB000206890434F68FF0200D5104320607A4EA0
:101DC000346894434F68BF0200D514433460774EA3
:101DD000306890434F68BF0300D510433060744EA5
:101DE000346894434F68FF0300D5144334606D1C7E
:101DF00023E7F1BC70472DE9F041030000250800FE
:101E0000E840002800F0A880012616FA05F00840F6
:101E10000200002A00F09E80DFF874C128008008CC
:101E20005CF820000F2715F0030E5FFA8EFE5FEAC4
:101E30008E0E17FA0EFE1EEA00000400B3F1904F5A
:101E400002D15FF0000E19E05248834202D15FF0E8
:101E5000010E13E05048834202D15FF0020E0DE004
:101E60004E48834202D15FF0030E07E04C488342A4
:101E700002D15FF0040E01E05FF0070E15F00300E1
:101E8000C0B280001EFA00FE74452CD14848D0F83C
:101E900000E03EEA020EC0F800E04448D0F800E05E
:101EA0003EEA020EC0F800E03F48D0F800E03EEA0B
:101EB000020EC0F800E03B48D0F800E03EEA020E17
:101EC000C0F800E015F00300C0B2800017FA00F07F
:101ED0000400280080085CF82000A043AE465FEABA
:101EE0009E0E4CF82E005FF0030C1868AE465FFAA9
:101EF0008EFE5FEA4E0E1CFA0EFE5EEA00001860CF
:101F00002800C00803EB800E2800C00803EB800007
:101F1000D0F8208015F00700C0B28000874038EA72
:101F20000707CEF8207098682F00FFB27F001CFAD8
:101F300007F7B84398605868AE4030EA06065E601E
:101F4000DE682800C0B240001CFA00FC36EA0C0C27
:101F5000C3F80CC06D1C52E7BDE8F08102001069A7
:101F60000B009BB2184201D0012000E00020C0B25B
:101F700070471300DBB2002B03D00B009BB28361D0
:101F800002E00B009BB283627047000060100240C9
:101F9000080001400004004800080048000C004808
:101FA00000100048080401400C04014004040140F2
:101FB00000040140F8B5060000F024F804000D000C
:101FC0000B4FD7E90001002908D1002806D164226F
:101FD000D7E9000100F029F8002802D1C7E900453F
:101FE00005E03000C0B2002801D001F026F8F1BDB4
:101FF0005028002080B500F005F8DFF8F421C2E990
:10200000000101BD80B5684601F004F902004FF4FB
:102010007A73BDF800000021E3FB020104BD10B596
:1020200004002000FEF7C2FE10BDF8B504000D004C
:102030001600002D01D1002C0AD0FFF7E3FF002786
:10204000A21955EB0703994204DB01DC904201D34E
:10205000012000E00020C0B2F2BDE0B5684601F00A
:102060009AF9009800F006F8002801D1002000E05D
:1020700001200EBD5F49884204D310F1100F01D238
:10208000012000E00020C0B27047E0B5FFF7E5FF97
:10209000002802D1FFF7B6FF03E0684601F07BF9A4
:1020A00000980EBD10B402000A2092FBF0F00A2343
:1020B00090FBF3F403FB140030300870481C0A2135
:1020C00092FBF1F301FB132130310170401C10BC75
:1020D000704710B402004FF47A7092FBF0F00A23BC
:1020E00090FBF3F403FB140030300870481C6421AB
:1020F00092FBF1F10A2391FBF3F403FB141130314D
:102100000170401C0A2192FBF1F10A2391FBF3F4C8
:1021100003FB141130310170401C0A2192FBF1F3D2
:1021200001FB132130310170401C10BC70472DE9B8
:10213000F84F84B004000E001700152F05D23A00A6
:102140002D49300001F05AF94EE0002C05D13A003B
:102150002A49300001F052F946E0DFF8A4804246F7
:10216000D821284801F08AF90025CDE9024502A8C6
:1021700001F0AEFA05003100686900F26C70FFF7FB
:10218000A8FF2D210170401C009000992869401C77
:10219000FFF788FF2D210170401C00900099E8682E
:1021A000FFF780FF54210170401C00900099A8683F
:1021B000FFF778FF3A21017010F10109494668687C
:1021C000FFF770FF3A21017010F1010A51462868AB
:1021D000FFF768FF5A21017010F1010B00208BF806
:1021E0000000404601F00FFA05B0BDE8F08F000096
:1021F000A82800200C6C6264E8070008F4070008B7
:10220000500000200408000862F30F2262F31F420E
:10221000401810F0030308D0C91A1FD3DB0748BFCA
:1022200000F8012D28BF20F8022D130030B4144609
:102230001546103928BF20E93C00FAD8490728BFC5
:1022400020E90C0048BF40F8042D890028BF20F881
:10225000022D48BF00F8012D30BC7047C91818BFC7
:1022600000F8012DCB0728BF00F8012D70472E0084
:102270002DE9F84F04005FF00008FEF751FEDFF88B
:10228000E092D9F80000002801D100F0C7F8DFF88B
:10229000D4A2DAF8000004426ED1002C16D0DFF888
:1022A000C8020068041914F0070F0FD014F10800D9
:1022B00014F00704041B14F0070F07D0502080F31C
:1022C0001188BFF34F8FBFF36F8FFEE7002C53D001
:1022D000DFF898B2DBF80000A0424DD3A448060016
:1022E000006805006868A04205D22868002802D06E
:1022F0002E002D68F6E7D9F8000085423CD09A48B8
:1023000031680268114488462968316000684000DD
:102310006968091B884215D205EB0400070017F015
:102320000700002807D0502080F31188BFF34F8F9B
:10233000BFF36F8FFEE76868001B78606C60380041
:1023400000F0DFF8DBF800106868091ACBF800101D
:102350008848DBF800100268914202D2DBF80010D6
:1023600001606968DAF800000143696000202860B4
:1023700081480168491C0160FEF7FBFD18F0070069
:10238000002807D0502080F31188BFF34F8FBFF390
:102390006F8FFEE74046BDE8F28F70B5040026005F
:1023A000002C37D0704800684042064435006D4923
:1023B00068680A68104207D1502080F31188BFF383
:1023C0004F8FBFF36F8FFEE72868002807D050209B
:1023D00080F31188BFF34F8FBFF36F8FFEE76868FC
:1023E0000A68104216D02868002813D16A68086865
:1023F00082436A60FEF794FD5C490A686868821847
:102400000A60280000F07DF85C480168491C016002
:10241000FEF7AFFD70BD5548006870472DE9F843E1
:1024200040F6B838564F00250024BD4210D2781B24
:1024300015EB5006300001F09DF90400002C05D08A
:10244000200002F0BDFB761C3500EEE73700ECE71C
:102450006D1EB5F11000C008C0000600DFF8249121
:10246000300001F087F9C9F80000D9F80000002811
:10247000FBD0454806605FF4803044490860D9F8D5
:10248000001011F0070F06D0C91DC908C900761A3F
:10249000D9F8000086190A0035480260002343601D
:1024A000B318314800681B1ADB08DB00DFF8B0C046
:1024B000CCF800300020DCF800E0CEF8040000206A
:1024C000DCF800E0CEF800001000B3EB000EC0F81E
:1024D00004E0DCF800C0C0F800C0D0F804C0DFF8A9
:1024E00094E0CEF800C0D0F804C0DFF880E0CEF869
:1024F00000C05FF0004CDFF86CE0CEF800C0BDE833
:10250000F18330B41A4A1168814201D21268FAE7A5
:10251000140051682144814204D153684168CB18AA
:10252000536010000300416819441568A94210D196
:102530000B4914680D68AC4208D0446811684968BA
:102540000C19446011680968016004E009680160C1
:1025500001E011680160824200D0106030BC704719
:10256000E0280020F42800207C030008E428002054
:1025700058280020E8280020EC280020F02800201F
:1025800040420F00D4280020DC280020D82800205A
:1025900010F1080141605FF0FF31816010F1080126
:1025A000C16010F108010161002101607047002144
:1025B0000161704742684A6093688B609368596014
:1025C0009160086103685B1C0360704710B40B687E
:1025D00013F1010F01D1026907E010F108025468FC
:1025E0002468A34201D35268F9E754684C604C68F0
:1025F000A1608A60516008610468641C046010BCBA
:102600007047010008698A684B689A604A688B685D
:102610005A6042688A4201D18A68426000220A6197
:102620000268521E0260006870474300001F5FF09E
:1026300080730360001F4B085B000360001F0FF2F4
:102640001503036014380260001F7FF0020303606B
:10265000203870477348006810F1010F07D05020F0
:1026600080F31188BFF34F8FBFF36F8FFEE75020C9
:1026700080F31188BFF34F8FBFF36F8FFEE7E0B594
:1026800069480168694A914207D1502080F3118856
:10269000BFF34F8FBFF36F8FFEE700686449884236
:1026A00007D1502080F31188BFF34F8FBFF36F8F96
:1026B000FEE7604801780191FF21017001788DF8F3
:1026C00000109DF8001011F050015B4A11705B4939
:1026D00007220A609DF80020120608D50A68521EDB
:1026E0000A609DF8002052008DF80020F2E70A6889
:1026F000D2F10702042A07D0502181F31188BFF3D9
:102700004F8FBFF36F8FFEE70A6812020A600A68F4
:1027100012F4E0620A60019901704948016851F4BD
:1027200070010160016851F07041016002F04AFAE5
:1027300000203C49086002F0C7FA4248016851F0A5
:102740004041016002F0B0FA00200EBD502080F33D
:102750001188BFF34F8FBFF36F8F32490A68521C45
:102760000A60096801290AD137490968090606D0B3
:1027700080F31188BFF34F8FBFF36F8FFEE7704771
:1027800028490868002807D1502080F31188BFF33A
:102790004F8FBFF36F8FFEE70868401E0860086820
:1027A000002802D1002080F31188704780B55020A6
:1027B00080F31188BFF34F8FBFF36F8FFEF7BCFC20
:1027C000002803D05FF080501F490860002080F38C
:1027D000118801BDEFF30580102811D31B4A126840
:1027E000125C11000A00144B1B78D2B29A4207D235
:1027F000502282F31188BFF34F8FBFF36F8FFEE734
:102800000E4A1268124B1B6813F4E0639A4207D217
:10281000502282F31188BFF34F8FBFF36F8FFEE713
:10282000704700007800002000ED00E071C20F4109
:1028300070C20F4100E400E0AB290020082900200D
:1028400020ED00E034EF00E004ED00E0D0050008EA
:102850000CED00E0034B0360034B0B60802313601F
:10286000704700BF0C2100207816002038B586B0D4
:10287000002400F027FADFF89804006800281ED032
:10288000002004900020039005AA03A904A802F0E8
:1028900029FADFF8805404980290039801900220EE
:1028A00000900023059ADFF870140FF21D10FEF758
:1028B00035F928602868002801D001200400002C88
:1028C00007D1502080F31188BFF34F8FBFF36F8F74
:1028D000FEE7200007B030BD2DE9FF4704000D00E2
:1028E00016001F00DDF830805FF00009002C07D1D2
:1028F000502080F31188BFF34F8FBFF36F8FFEE737
:10290000DFF80CA4DAF80000002822D00095019628
:102910000294062D15DAFEF7E8FE022808D10023FE
:1029200042466946DAF8000002F0F8FA814610E003
:10293000002300226946DAF8000002F0EFFA81462F
:1029400007E000233A006946DAF8000002F0B9FB1C
:102950008146484604B0BDE8F087F8B505000E0092
:10296000DFF8B8030068C068C768381DFFF749FE84
:1029700097F8280040071CD52B003200B969491987
:10298000380000F090F8002819D0002000900023B3
:102990002A0000213800FFF79FFF0400002C07D118
:1029A000502080F31188BFF34F8FBFF36F8FFEE786
:1029B00005E097F8280010F0FE0087F8280038009E
:1029C000396A8847F1BD000038B50400684600F058
:1029D00042F805000099280000F003F800F08CF898
:1029E000F4E77CB505000C00FEF79AFA684600F0A3
:1029F00046F80600009800282AD1002C08D1AE42E3
:102A000006D3FEF7B6FA31002800FFF7A6FF21E053
:102A1000002C08D0DFF8080300680068002801D106
:102A2000012400E000242200A91BDFF8E402006872
:102A300002F020FEFEF79DFA00280BD15FF08050D7
:102A4000DFF8E0120860BFF34F8FBFF36F8F01E034
:102A5000FEF78FFA73BD0100DFF8C022106800682E
:102A6000002801D1012000E000200860086800284B
:102A700003D11068C068006800E00020704770B59E
:102A80000400FEF7E9FA0500DFF89C623068854231
:102A900004D200F0D0F80120206001E00020206086
:102AA0003560280070BD2DE9F04104000D001600CE
:102AB0001F005FF0000865602461AE420DD3F01B7B
:102AC000A169884202D30120804612E0211DDFF86F
:102AD00050020068FFF77AFD0BE0BE4204D2BD420F
:102AE00002D30120804604E0211D8C480068FFF7D6
:102AF0006DFD4046BDE8F081F8B586B0002201A921
:102B00008348006802F04FFB002800F09280019893
:102B100000280ED502AD002D07D1502080F311887A
:102B2000BFF34F8FBFF36F8FFEE7A96868682A680D
:102B3000904701980028E1D40398060070690028A6
:102B400002D0301DFFF75DFD05A8FFF798FF0700D5
:102B5000019800280ED002280CD00BD304283DD0B9
:102B600035D3062806D054D3082830D002D30928FC
:102B700034D05DE096F8280050F0010086F8280077
:102B8000029B3A000299B06941183000FFF78BFFB1
:102B900000281BD03000316A884796F8280040078B
:102BA00014D5002000900023029AB06982180021F9
:102BB0003000FFF791FE0400002C07D1502080F375
:102BC0001188BFF34F8FBFF36F8FFEE796E796F83C
:102BD000280010F0FE0086F828008FE796F82800FD
:102BE00050F0010086F828000298B061B069002812
:102BF00007D1502080F31188BFF34F8FBFF36F8F41
:102C0000FEE73B003A00B169C9193000FFF74BFFFE
:102C100074E796F82800800703D43000FFF7BDFB67
:102C200005E096F8280010F0FE0086F8280065E719
:102C300064E707B0F0BD2DE9FC41DFF8E080D8F88B
:102C400000000068002834D0D8F80000C068006890
:102C50000500D8F80000C068C0680700381DFFF7FD
:102C6000D0FC3800396A884797F828004007E4D537
:102C7000B86940190600B54207D27E603F61391D30
:102C8000D8F80000FFF7A2FCD7E70020009000234F
:102C90002A0000213800FFF71FFE0400002C07D196
:102CA000502080F31188BFF34F8FBFF36F8FFEE783
:102CB000C3E7D8F800001A490A68C8F8002008607D
:102CC000BDE8F3817CB5FFF741FD114C2068002879
:102CD0001BD1164D2800FFF75BFC154E3000FFF7A7
:102CE00057FC0E4805600E48066000200090114B0E
:102CF000114A10210A2002F04BF8206020680028B9
:102D000003D00E49206802F09FFCFFF739FD73BD28
:102D1000782900207C2900207808000870290020EC
:102D20007429002004ED00E0802900206C27002099
:102D30008027002074230020941D002080080008B4
:102D40002DE9FE4F040050480168A14201D20068FD
:102D500004004E4F3868400840003860DFF830818A
:102D6000DFF83091D9F80010D8F80060601E00FB41
:102D70000616DFF824A1DAF80000B04202D2DAF831
:102D80000000361A72B6BFF34F8FBFF36F8FFEF796
:102D9000AAFB00280DD14148D9F80010016039681C
:102DA00051F001013960D8F80010491E016062B687
:102DB00068E0DFF8E8B0CBF800600020C9F8000058
:102DC000386850F0010038600094002000900098AE
:102DD000FDF707FE0098002804D0BFF34F8F30BFE7
:102DE000BFF36F8F2000FDF708FE62B6BFF34F8F71
:102DF000BFF36F8F72B6BFF34F8FBFF36F8F062095
:102E000038603868C00317D5D8F80010491E891BF0
:102E1000D9F800004118DAF80000814203D3D8F84D
:102E20000000884203D2D8F80000401E0100CBF811
:102E30000010601E050015E0D8F8001001FB04F139
:102E4000D9F80000091A01910198D8F80010B0FBD8
:102E5000F1F00500691CD8F8000041430198091AF7
:102E6000CBF800100020C9F80000386850F00100CD
:102E700038602800FEF7F6F8D8F80000401ECBF8BE
:102E8000000062B6BDE8F78F0029002010E000E0E6
:102E9000FC28002018E000E00429002014E000E0F5
:102EA00070B5050040F6AC5352227D49012002F076
:102EB00007FC012002F091FE00263400E4B27948BC
:102EC00000F024F80443002C01D0012600E0002685
:102ED0003400E4B2744800F019F80443002C01D027
:102EE000012600E000263400E4B200F0AEF804430E
:102EF000002C01D0012400E000242000C0B20028F2
:102F0000DAD16A49012002F012FCD5E778B587B022
:102F1000050003AB06AA05A9280002F061FE0028FF
:102F200001D1002087E00698002810D10121280057
:102F300002F092FE00220021280002F006FF059810
:102F4000002802D0059802F09BFF012073E00120C9
:102F500003F041F8002002905248854201D101203F
:102F600000E0002004A9019102A900919DF80C3015
:102F7000069A0599C0B203F041F804000121280027
:102F800002F06AFE002C30D00298002802D002988D
:102F900002F076FF200003F0F1F9060030782B28CC
:102FA00008D1300003F09CFA02003100280002F042
:102FB000CCFE25E004AA02A9200003F023FA0400B5
:102FC000002C1DD1049A0299280002F0BEFE32A006
:102FD00003F0D4FA0499029803F0DAFA2FA003F070
:102FE000CDFA029802F04CFF0AE00298002807D0C0
:102FF000049A0299280002F0A8FE029802F040FF0D
:10300000002002F0E8FF2A4E3068002812D040F27B
:10301000DC50FFF704F83068012802D0022804D001
:1030200008E0244803F0E1FA04E003F068FB2248DA
:1030300003F0DBFA012008B070BD80B501201F4904
:103040000870012002F0C2FB01BD70B51B49087871
:10305000002801D100201EE0002008700224002575
:10306000A54217DA164E01224FF400513000FEF748
:1030700080FF6420FEF7D3FF00224FF400513000A0
:10308000FEF777FF601E854202D06420FEF7C7FF7F
:103090006D1CE5E7012070BD3C3C20000A000000EB
:1030A00070060008BC1E0020341E0020005C2605AF
:1030B0000C2900207806000880060008AC290020B2
:1030C000000C0048806A80B2704770B50024994DAA
:1030D0002878002813D103F0B1FB00F038F8964EA1
:1030E0004FF48071300003F0D2FF300004F07FF91C
:1030F000002000F0D4F800F03CF8012028702000F7
:10310000C0B270BD78B58BB0050000242C21002220
:103110006E463000FFF778F800F019F8874800682D
:1031200045195FF0FF30401B0190002005904FF4DF
:1031300080700A90012269467F4803F0B5FE00289E
:1031400001D004F0BDF92000C0B20CB070BD10B5C4
:10315000002479480168C96811F0800171F4C071D8
:103160000268D1604FF4807103F091FF2000C0B27B
:1031700010BD10B5714C00F0A0F82060206810BDA3
:103180006E480068704710B5002400F096F8010002
:103190006A480068081A10BD10B500246548007818
:1031A000002802D000F089F80400200010BD0021A2
:1031B0000320704730B5040000252000002189025B
:1031C00041EA905180024FF47A72002304F082FAAF
:1031D00030BD020000234FF47A70A0FB0201800A88
:1031E00040EA8150890A704770B504002000FFF75B
:1031F000E1FF050000F061F8060000F05EF8801BBA
:10320000A84201D200BFF8E770BD10B5040004F079
:10321000D1FB10BD2DE9F84F07005FF0000800F06A
:103220004CF8824600F043F806003000002101000F
:1032300000205FF0000B10EB0A0051EB0B010200C5
:103240000B00920A42EA83529B0A91468005800D48
:10325000040000252000FFF7BCFF38804846BDE889
:10326000F28F10B5040022000021334804F0EAF880
:1032700010BD10B50400220001212F4804F0E2F82F
:1032800010BD10B5002400212B4804F0E7F810BD54
:1032900010B500240121284804F0E0F810BD10B555
:1032A000040022000221244804F0CCF810BD80B5AF
:1032B0000221214804F0D2F802BDF8B5204E5FF09B
:1032C000FF353000FFF7FEFE04002C1B1D4D286863
:1032D000002818D02868844215D22868001BB0F551
:1032E0007A7F10D25FF0FF373000FFF7EBFE3F1A16
:1032F0003C002868844206D22868001BB0F57A7F1B
:1033000001D2286804002C602000F2BD80B5094875
:103310000078002801D1012001E0FFF7CEFF02BDB7
:1033200001B504480078002802D00098FFF75CFF40
:1033300001BD0000AF2900208C2600206829002054
:10334000002800406C2900200EB482B0DFF89C10E9
:10335000D1E90023CDE90023029A04998A1800924A
:10336000BDF80C20BDF814108A18ADF80420BDF982
:103370000410B1F57A7F08DB0099491C0091BDF873
:103380000410B1F57A71ADF80410DDE90023C0E94D
:10339000002305B0704730B587B004001548D0E968
:1033A0000023CDE901231448D0E90023CDE905230A
:1033B0000F4D02A8296988470190E8688047ADF859
:1033C0001000686880470390DDE901010091030067
:1033D000DDE903010A00010005A8FFF7B5FFDDE9FB
:1033E0000501C4E9000107B030BD0000E406000893
:1033F00064080008EC060008F406000870B4040035
:1034000025000E001300002B09D05B1E002B06D0F8
:103410003078761C28706D1CC0B20028F5D1002BC6
:1034200008D1002A01D0002028703000461C007806
:103430000028FAD1711A491E080070BC70478268D2
:10344000521C8260426832B10268531C03601170E2
:103450004168491E416070472DE9F8430600140099
:103460001D0028275FF00008B14642463900484653
:10347000FEF7CAFEC6E90045BDE8F1832DE9F84F25
:10348000E6B080460C00150002F03BF90600884FBC
:10349000387A00280BD1012001F030FDF860F8687F
:1034A000002802D1834803F0A0F801203872287A5E
:1034B00000281CD15FF0FF31F86801F029FF287A5D
:1034C00000280ED1012001F019FDE860E86800280D
:1034D00002D1794803F089F85FF0FF3028620120BB
:1034E0002872002300220021F86801F017FD286AE5
:1034F000B0420DD1286903F080F80300686900909C
:103500006E4A802146A804F001FB46A803F06DF83E
:103510005FF0FF31E86801F0FBFE2E62FEF772FDFE
:10352000C5E90601D5E90001002901D1002864D0D0
:103530005E4F07EBC600D0E90023D5E9000110403B
:103540001940002901D100281CD0404603F055F84D
:103550008146300002F0CBF803000594CDF81090BE
:1035600007EBC600D0E90001CDE90201D5E9000171
:10357000CDE90001524A802126A804F0C7FA26A806
:1035800003F033F8D5E90001B0F1010A71F1000B45
:1035900007EBC600D0E9000110EA0A0011EA0B01AE
:1035A000002901D100281CD0404603F026F88146AE
:1035B000300002F09CF803000594CDF8109007EB62
:1035C000C600D0E90001CDE90201D5E90001CDE94D
:1035D00000013C4A802106A804F098FA06A802F0EF
:1035E000F6FF07EBC600D0E90023D5E90001104340
:1035F000194307EBC602C2E90001C5F810806C61EF
:1036000067B0BDE8F08FF0B5C3B00400206A10F1D8
:10361000010F0DD1206902F0F0FF030060690090F6
:10362000294A802123A804F071FA23A802F0DDFFC3
:1036300002F067F8216A814213D0206902F0DDFFB1
:10364000050002F05EF8616902910195216A00911E
:1036500003001E4A802103A804F058FA03A802F0D0
:10366000C4FF5FF0FF30206200200021C4E90601A2
:1036700002F047F80D4901EBC002D2E90023D4E97A
:103680000067B243BB4301EBC000C0E9002306A0C2
:10369000206100206061002300220021E06801F029
:1036A0003DFC43B0F0BD000000000000D02700202A
:1036B0002800002054040008700400088804000852
:1036C000A8040008E40400082C05000858050008B8
:1036D00080B500210091D0E90023002004F038FAE1
:1036E00002BD0268531C03601170704700F5E07062
:1036F0000268914203D280680028F9D1704743687C
:103700001A449142F7D270471749086880B94FF4BC
:10371000805048604FF480324FF0FF30C86008613D
:103720000420124B8A604861C3F8BC01104808604D
:103730000120704701F1080313F0070F0EBF0023AB
:10374000C3F1080303F007031944D21A8161C26070
:1037500042F001034B60091D4FF0280C41F802C0F4
:10376000014A1369C3617047F026002078180020D1
:103770006859883C2DE9F84F84B0064604F09AFA5F
:10378000F52E1E4D80F013820B2E31BF10260B3606
:10379000F608F6002868F408E04010F0030F4AD05D
:1037A000C04300F00100041905F1280000EBC40833
:1037B000E700D8F808607068C008C000B84218BFB9
:1037C00004F0C0FAD6F80890464508BF04F0BAFAEB
:1037D0004E4508BF04F0B6FA7068C008C000B84291
:1037E00018BF04F0AFFAC8450AD12868012101FAD0
:1037F00004F420EA04042C6010E000BF78180020D4
:103800002869814508D3D9F80C10B14204D1C8F811
:103810000890C9F80C8001E004F094FA47F0030026
:10382000311D7060301DCA5942F00102C25106F1CB
:10383000080800F024BFA968B14280F0AA830028DC
:1038400000F0A2804FF0010808FA04F1490000FAE4
:1038500004F4484201430C4060420440641E200BC3
:1038600000F01000C440610901F00801CC40A2083A
:1038700002F00402D440630803F002030818DC409D
:103880001018C4F3400718183818FC40241805F124
:10389000280000EBC40AE700DAF80890D9F8040021
:1038A000C008C000B84218BF04F04CFAD9F808B0FC
:1038B000D14508BF04F046FAD94508BF04F042FAE2
:1038C000D9F80400C008C000B84218BF04F03AFAA2
:1038D000DA4506D1286808FA04F420EA04042C60CA
:1038E0000DE029698B4508D3DBF80C00484504D16D
:1038F000CAF808B0CBF80CA001E004F023FABF1B13
:1039000046F0030009F10402C9F8040047F0010180
:10391000915109EB06020192D751AC684FEAD40AE3
:10392000BAF11F0F88BF04F00DFA34B3CDF800A030
:1039300005F128006E6900EBCA0AD346102C38BF87
:1039400004F000FA2968009821FA00F2D30704D4A1
:1039500008FA00F00843286007E0DAF8080029694F
:1039600088422CBF834604F0EDF9CAF80860CBF812
:103970000C60C6F808B0C6F80CA0AF6009F10808E2
:103980000198686100F07BBE6868002800F023831E
:1039900041420840401E010B01F01001C84042099D
:1039A00002F00802D040830803F00403D840440822
:1039B00004F002045118E0405918C0F340076118A0
:1039C00005F598787918F840401858F8201048689C
:1039D000C008C0008A46A0EB060B08E00146486814
:1039E000C008C000801B58453CBF83468A46086912
:1039F0000028F3D149690029F1D128698245C0F036
:103A0000D380DAF80410C90806EB0B09C900494550
:103A100018BF04F097F90AEB06008245019080F088
:103A2000C380DAF80C40DAF8187054450DD0DAF893
:103A300008002969884223D3C268524504BFA1689F
:103A400051451DD1C460A0601CE00AF114010C684E
:103A500034B90AF110010C68A4B101E011460C68F8
:103A600004F114021068002802BF04F1100210686B
:103A70000028F3D12869814202D300220A6001E0C4
:103A800004F060F9002F38D0DAF81C0008EB800150
:103A90000A6892450AD11CBB6A68012303FA00F048
:103AA00022EA000068600020086026E029698F4251
:103AB00013D33869504514BF7C613C61ECB129696E
:103AC0008C4218D3A761DAF8100058B1884226BF9B
:103AD0002061846104F036F904E004F033F9EDE785
:103AE0000C60ECE7DAF8140038B12969884202D397
:103AF0006061846101E004F025F9BBF1100F0ED282
:103B000049F003000AF10401CAF804000AF10400B4
:103B100051F8092042F0010240F809203EE046F049
:103B200003010AF10402CAF804104BF0010090519D
:103B3000019941F80BB0A8680090C4081F2C88BFF9
:103B400004F000F9009828B305F1280000996F6986
:103B500000EBC408C146102938BF04F0F3F8286808
:103B600020FA04F1CA0705D4012101FA04F4044340
:103B70002C6007E0D8F80800296988422CBF8146EC
:103B800004F0E0F8C8F80870C9F80C70C7F808909D
:103B9000C7F80C80C5F808B0019868611AF10808E8
:103BA00000F0F78100F06BBD04F0CCF8F1E116F104
:103BB000400F28BF4FF0FF3680F0EB810B36F60840
:103BC0006B68F600002B00F0E4810027C6F10009C5
:103BD000300A08BF002423D0B0F5803F28BF1F243F
:103BE0001ED2A0F58071090C01F008018840A0F5F3
:103BF0008052120C02F004029040A0F58044240C84
:103C0000C1F10E0104F00204891A091BA04001EB66
:103C1000D031C81D26FA00F404F0010404EB41047D
:103C200005F5987858F8240040B31F2C0FBFB44610
:103C30004FEA540CCCF1190C06FA0CFCBE4649466E
:103C400001E04FEA4C0C4268D208D200921B8A4233
:103C500007D3426910304FEADC7950F829003AB1B5
:103C600003E011000746F4D105E0824218BF9646F2
:103C70000028E6D170468946A8BBB7BB012101FAEE
:103C800004F4640060420443234000F082815842FF
:103C900003405B1E180B00F01000C340590901F0EF
:103CA0000801CB409A0802F00402D3405C0804F0FB
:103CB00002040818E3401018C3F3400C20186044B5
:103CC00023FA0CF31B1858F823000CE0084641684F
:103CD000C908C900891B49453CBF89460746016997
:103CE0000029F3D140690028F1D1002F00F0518163
:103CF000A868801B814580F04C8129698F42FFF4C0
:103D000053AF7868C008C00006EB0901884218BFAD
:103D100004F018F807EB060B5F45BFF445AFFC68ED
:103D2000D7F818A0BC420CD0B8682969884223D3C0
:103D3000C268BA4204BFA168B9421DD1C460A06084
:103D40001CE007F114010C6834B907F110010C688C
:103D5000A4B101E011460C6804F1140210680028B7
:103D600002BF04F1100210680028F3D128698142D3
:103D700002D300220A6001E003F0E4FFBAF1000F71
:103D800039D0F86908EB80010A6897420AD134BB40
:103D90006A68012303FA00F022EA0000686000204C
:103DA000086028E029698A4516D3DAF81000B8427D
:103DB00014BFCAF81440CAF81040E4B129698C4213
:103DC00017D3C4F818A0386958B1884226BF2061BB
:103DD000846103F0B7FF04E003F0B4FFEDE70C608B
:103DE000ECE7786938B12969884202D3606184615F
:103DF00001E003F0A7FFB9F1100F0CD2B14449F074
:103E00000300391D7860381D51F8092042F0010285
:103E100040F80920B9E046F003013A1D796049F005
:103E2000010090514FEAD9004BF809901F2822D881
:103E300005F1280101EBC004296821FA00F2D3073B
:103E4000A04605D4012202FA00F00843286006E0EB
:103E5000A068296988422CBF804603F073FFC4F82C
:103E600008B007F10800C8F80CB040F8068007F168
:103E70000C018C5189E05FEA192008BF002123D092
:103E8000B0F5803F28BF1F211ED2A0F58072120C12
:103E900002F008029040A0F58051090C01F00401E5
:103EA0008840A0F580431B0CC2F10E0203F0020310
:103EB000521AD21A984002EBD032D01D29FA00F1E2
:103EC00001F0010101EB420107F11403CBF81C10D2
:103ED00000229A5107F1100308EB81009A516A6899
:103EE00022FA01F3DC0711D4012303FA01F1114393
:103EF0006960C0F800B0CBF8180007F1080107F1BD
:103F00000C0040F806B041F806B03EE002681F29F8
:103F10001DBF4908C1F1190109FA01F1494600E044
:103F200002465068C008C000484518D002F110038E
:103F3000C80F03EB8003490018680028F0D12869F6
:103F4000834220D3C3F800B007F10C01CBF818204E
:103F500041F806B007F1080040F806B015E02969FD
:103F600090688A4228BF88420DD3C0F80CB007F190
:103F70000801C2F808B0885107F10C0082510022F4
:103F8000CBF8182001E003F0DDFE17F1080840F03F
:103F90007683A868B0421ED3811B6A6910290AD3B0
:103FA000141DA96041F001009319A051595046F029
:103FB000030656600BE00021A96040F00304111DC8
:103FC0005460141D0E5846F00106265000236B6104
:103FD00002F1080853E3E8688642C0F04083DFF846
:103FE000D89BD9F8000008B9FFF78EFBD9F8081064
:103FF00088192F30491E20EA01018E4280F03D834E
:1040000005F5D877B86838B13A6889188A4280F0DF
:1040100034838842C0F0318303F098FE00281CBF2F
:10402000D0F8008010F1010F00F027833968414477
:104030003960D5F8B021D5F8B4118A4238BF0A46A4
:10404000AC697A6004BB296909B1884200D2286151
:1040500000213861C7F81480F9614FF0FF31D9F8B9
:1040600000206A62296205F1280200219260D26074
:1040700002F1080353611361891C10321F29F5D91D
:10408000A8F1280201461DE005F5E0710A468146C7
:1040900000E09268D2B11068536803449945F8D1A2
:1040A000107B030712D413689C420FD3D2F804C0CC
:1040B00063449C420AD2C444C2F804C02146E86862
:1040C00008EB00022846FFF735FBC5E22869814569
:1040D00038BFC5F8109009EB080000E08968002996
:1040E00000F0C1810A688242F8D1087B020700F122
:1040F000BA810868C1F800904A6842444A6009F1F0
:10410000080111F0070F08BFCDF8049006D0C1F1E7
:10411000080101F0070109EB0102019200F1080119
:1041200011F0070F04D0C1F1080101F007010844A4
:1041300080460198A8EB00018419A1EB060B2746E5
:1041400046F003064660474528BF03F0FBFD98F89C
:104150000400C10758BF03F0F5FDBBF1100F38BFD5
:1041600003F0F0FDA869804508D1E9688B44C5F8E3
:104170000CB0AF614BF00100786070E16869804578
:104180000AD1A9686F618B44C5F808B04BF00100F3
:10419000786047F80BB062E1D8F8040000F0030142
:1041A000012940F0BC80C008C000C1081F2903904D
:1041B00040D8D8F808200092D8F80C600291B04599
:1041C00008BF03F0BFFD0098804508BF03F0BAFDAB
:1041D000D8F804000299C008C000B0EBC10F18BFA6
:1041E00003F0B0FD0299009A05F1280000EBC10030
:1041F000824208D011462A699142C0F08B80CA6879
:10420000424540F0878000998E4206D102982A6884
:10421000012383409A432A607EE0864205D02969C3
:104220008E4277D3B068404574D10098C66000993B
:10423000B16071E0D8F818000090D8F80C604645DD
:104240000DD0D8F808002969884223D3C2684245B6
:1042500004BFB16841451DD1C660B0601CE008F1E3
:1042600014010E6836B908F110010E68A6B101E01C
:1042700011460E6806F114021068002802BF06F10C
:10428000100210680028F3D12869814202D300226D
:104290000A6001E003F056FD009800283CD0D8F8F1
:1042A0001C0005F5987101EB80010A6890450AD160
:1042B0002EBB6A68012303FA00F022EA000068605E
:1042C0000020086028E000992869814214D3086919
:1042D000404514BF4E610E61F6B129698E4219D373
:1042E0000098B061D8F8100058B1884226BF3061FC
:1042F000866103F027FD04E003F024FDECE70E6087
:10430000EBE7D8F8140038B12969884202D370610C
:10431000866101E003F016FD039988448B44D8F8C8
:10432000041049084900C8F804104BF001007860F7
:104330004FEADB0647F80BB01F2E22D805F1280004
:1043400000EBC604A146BBF1100F38BF03F0FAFC26
:10435000286820FA06F1CA0705D4012101FA06F6F9
:1043600006432E6006E0A068296988422CBF81467A
:1043700003F0E8FCA760C9F80C70C7F80890FC606F
:104380006DE05FEA1B2008BF002123D0B0F5803F1D
:1043900028BF1F211ED2A0F58072120C02F0080265
:1043A0009040A0F58051090C01F004018840A0F56F
:1043B00080431B0CC2F10E0203F00203521AD21A00
:1043C000984002EBD032D01D2BFA00F101F0010130
:1043D00001EB4201F961002305F598727B6102EB64
:1043E00081003B616A6822FA01F3DE0707D40123EA
:1043F00003FA01F1114369600760B8611DE00268CA
:104400001F291DBF4908C1F119010BFA01F15946D5
:1044100000E002465068C008C000584510D002F1C4
:104420001003C80F03EB8003490018680028F0D17F
:104430002869834211D31F60BA61FF60BC600EE03F
:10444000296990688A4228BF884206D3C760946071
:10445000B860FA600020B86101E003F073FC0198D5
:1044600000F108080BE121462846FFF73FF90168F3
:10447000406808440090A0F1270111F007000EBF2A
:104480000021C1F1080101F0070100980844A0F1E2
:104490002F0B04F110018B4538BFA3460BF1180216
:1044A000002102920191A8F1280249462846FFF70F
:1044B00041F90BF1080010F0070F18BF03F042FCA0
:1044C0001B20CBF8040005F5E07292E809500BF1CF
:1044D000080181E8095000210BF10800F961B86179
:1044E000009A02980199C7F81090C7F81480072322
:1044F00000E0001D491C00F1080797424360F8D313
:104500000129D8BF03F01EFCA34500F0A580ABEB4A
:10451000040B201D221D50F80B104908490042F8D9
:104520000B104BF0010060604FEADB0944F80BB060
:10453000B9F11F0F22D805F1280000EBC907B846D2
:10454000BBF1100F38BF03F0FDFB286820FA09F11A
:10455000CA0705D4012101FA09F10843286006E0E1
:10456000B868296988422CBF804603F0EBFBBC6029
:10457000C8F80C40C4F80880E7606DE05FEA1B20D3
:1045800008BF002123D0B0F5803F28BF1F211ED2D5
:10459000A0F58072120C02F008029040A0F5805144
:1045A000090C01F004018840A0F580431B0CC2F106
:1045B0000E0203F00203521AD21A984002EBD032D4
:1045C000D01D2BFA00F101F0010101EB420105F5CC
:1045D0009872002302EB8100E161636123616A68E4
:1045E00022FA01F3DF0707D4012303FA01F1114393
:1045F00069600460A0611DE002681F291DBF4908B1
:10460000C1F119010BFA01F1594600E00246506868
:10461000C008C000584510D002F11003C80F03EBCA
:104620008003490018680028F0D12869834211D31B
:104630001C60A261E460A4600EE0296990688A426F
:1046400028BF884206D3C4609460A060E260002066
:10465000A06101E003F076FBE86886420DD2801B82
:10466000A969E8608A19AA6140F00100506046F02B
:1046700003064E6001F1080801E04FF0000803F066
:104680001CFB404605B0BDE8F08F002800D1704704
:104690002DE9F047A0F1080503F00CFBDFF81C65DD
:1046A00031698D42C0F08482686800F00302012AFB
:1046B00000F07E82C2084FEAC209C20705EB090872
:1046C00039D42C6810F0030F00F06E82604205446C
:1046D0008D42A144C0F06C827069854200F0DE809A
:1046E000E408202C72D2D5F80CA0AF68554508BF5D
:1046F00003F028FBBD4208BF03F024FB6868C00834
:10470000C000B0EBC40F18BF03F01CFB06F128007B
:1047100000EBC400874205D031698F4253D3FA6859
:10472000AA4250D1BA4540D13068012101FA04F4BF
:1047300020EA04043460454580F03A82D8F8044009
:10474000E00740F13582A10700F18381B06980451F
:1047500040F0B780F168B5618944C6F80C9049F023
:104760000100686071698D4202D100207061B06003
:10477000F169494580F01882DFF83C24106808B9D7
:10478000FEF7C2FFB169002900F00E82F068292807
:1047900024BF3046FEF7AAFFF069F168884280F036
:1047A00003824FF0FF30F061FEE1824506D03069B0
:1047B000824508D3DAF80810A94204D1C7F80CA042
:1047C000CAF80870B7E703F0BDFAB4E7EC68AF6960
:1047D000AC420BD0A868884222D3C168A94204BF6A
:1047E000A268AA421CD1C460A0601BE005F11402BB
:1047F000146834B905F1100214689CB101E01A463E
:10480000146804F114031868002802BF04F11003AF
:1048100018680028F3D18A4202D30021116001E018
:1048200003F090FA002F86D0E86906F5987101EB45
:1048300080010A6895420AD124BB7268012303FAF9
:1048400000F022EA000070600020086073E7316920
:104850008F4214D33869A84214BF7C613C61002C9C
:104860003FF469AF31698C42ADD3A761286958B173
:10487000884226BF2061846103F064FA04E003F0FB
:1048800061FAECE70C60EDE7686900283FF453AF8C
:104890003169884297D3606184614CE798F80400DD
:1048A00000F0030003287FF446AFC6F8089049F0F3
:1048B0000101D8F8040040084000C8F8040069600D
:1048C0000AE0706980450AD1B16875618944C6F80B
:1048D000089049F00100686045F8099064E1E40837
:1048E000E400A144E408202C3AD2D8F80CA0D8F86F
:1048F0000870D04508BF03F025FAB84508BF03F09B
:1049000021FAD8F80400C008C000B0EBC40F18BFEB
:1049100003F018FA06F1280000EBC400874207D024
:1049200031698F42C0F08880FA68424540F0848047
:10493000BA4507D13068012101FA04F420EA0404E1
:1049400034607BE0824506D03069824574D3DAF862
:104950000810414570D1C7F80CA0CAF808706DE086
:10496000D8F80C40D8F8187044450DD0D8F8080095
:104970003169884223D3C268424504BFA1684145DA
:104980001DD1C460A0601CE008F114010C6834B9AA
:1049900008F110010C68A4B101E011460C6804F1A3
:1049A00014021068002802BF04F1100210680028E9
:1049B000F3D13069814202D300220A6001E003F0A2
:1049C000C1F9002F3AD0D8F81C0006F5987101EB18
:1049D00080010A6890450AD11CBB7268012303FA62
:1049E00000F022EA000070600020086026E03169D3
:1049F0008F4213D33869404514BF7C613C61ECB1F0
:104A000031698C4218D3A761D8F8100058B1884298
:104A100026BF2061846103F095F904E003F092F968
:104A2000EDE70C60ECE7D8F8140038B13169884242
:104A300002D36061846101E003F084F949F0010070
:104A4000686045F8099071698D420BD1C6F80890ED
:104A5000AAE064086400C8F8044049F001006860F6
:104A600045F809904FEAD907202F22D206F12800F5
:104A700000EBC704A046B9F1100F38BF03F062F98C
:104A8000306820FA07F1CA0705D4012101FA07F7B7
:104A90000743376006E0A068316988422CBF804632
:104AA00003F050F9A560C8F80C50C5F80880EC6018
:104AB0007AE05FEA192008BF002123D0B0F5803FDB
:104AC00028BF1F211ED2A0F58072120C02F008022E
:104AD0009040A0F58051090C01F004018840A0F538
:104AE00080431B0CC2F10E0203F00203521AD21AC9
:104AF000984002EBD032D01D29FA00F101F00101FB
:104B000001EB420106F59872002302EB8100E96196
:104B10006B612B61726822FA01F3DC0707D4012371
:104B200003FA01F1114371600560A8611DE002689C
:104B30001F291DBF4908C1F1190109FA01F14946B0
:104B400000E002465068C008C000484510D002F19D
:104B50001003C80F03EB8003490018680028F0D148
:104B60003069834211D31D60AA61ED60AD600EE033
:104B7000316990688A4228BF884206D3C560956033
:104B8000A860EA600020A86101E003F0DBF8306A69
:104B9000401E08D13062D6F8C80100E080680028C5
:104BA000FCD14FF0FF30306203F087F8BDE8F087AA
:104BB00003F0C8F8F8E70000F0260020781800207D
:104BC000FFF763BD1449154802684FF47A73B2FBCE
:104BD000F3F20A607FF07F420968B2FBF1F1104AFC
:104BE000116001680268B1FBF2F12D22B2FBF1F114
:104BF0000C4A11600C4900220A6000220B4B1A601B
:104C000000684FF47A72B0FBF2F0401E084A106060
:104C100007200860704700BFFC280020900000209B
:104C2000002900200429002010E000E018E000E046
:104C300014E000E0EFF30980BFF36F8F264B1A6892
:104C40001EF0100F08BF20ED108A20E9F04F106011
:104C500009B44FF0500080F31188BFF34F8FBFF3BA
:104C60006F8FFCF7F5FA4FF0000080F3118809BC54
:104C700019680868B0E8F04F1EF0100F08BFB0ECDC
:104C8000108A80F30988BFF36F8F7047124B196841
:104C90000868B0E8F04F80F30988BFF36F8F4FF0DA
:104CA000000080F3118870470C480068006880F3AA
:104CB00008884FF0000080F3148862B661B6BFF335
:104CC0004F8FBFF36F8F00DFDFF81400016841F4EE
:104CD00070010160704700002C29002008ED00E001
:104CE00088ED00E0034B0360034B0B604FF48073CF
:104CF00013607047682100207805002070B5060019
:104D00000C003500002D07D1502080F31188BFF32F
:104D10004F8FBFF36F8FFEE7FDF718FD2968EA6B31
:104D2000286C424301EB0200A8600020A8632868B9
:104D300068602968EA6B521E286C424301EB02004E
:104D4000E8605FF0FF3085F8440085F84500002CEE
:104D500012D12869002817D015F11000FCF7F6FAD7
:104D6000002811D05FF08050DFF848170860BFF3CB
:104D70004F8FBFF36F8F07E015F11000FDF708FCB0
:104D800015F12400FDF704FCFDF7FAFC012070BDCD
:104D90002DE9F84306000C0015001F00DDF82090F7
:104DA000002E07D1502080F31188BFF34F8FBFF33F
:104DB0006F8FFEE7002F07D1502080F31188BFF3DB
:104DC0004F8FBFF36F8FFEE7002D01D0002C01D075
:104DD000012000E00020C0B2002807D1502080F35D
:104DE0001188BFF34F8FBFF36F8FFEE7002D01D106
:104DF000002C01D1012000E00020C0B2002807D122
:104E0000502080F31188BFF34F8FBFF36F8FFEE701
:104E1000502000900098502807D0502080F311882F
:104E2000BFF34F8FBFF36F8FFEE70098B846B8F11E
:104E3000000F0BD0012088F84600CDF800804B46CB
:104E4000DBB22A002100300000F02CF84046BDE81B
:104E5000F2832DE9F84304000E001700002C07D15F
:104E6000502080F31188BFF34F8FBFF36F8FFEE7A1
:104E700006FB04F919F15000FDF7FAF90500002DC1
:104E80000DD0280050308046002085F8460000955F
:104E90003B00DBB242463100200000F003F828005E
:104EA000BDE8F2832DE9F04105000C0016001F005B
:104EB000DDF81880002C02D1C8F8008001E0C8F8A5
:104EC0000060C8F83C50C8F8404001214046FFF758
:104ED00015FF88F84C70BDE8F08110B50400002C77
:104EE0000BD00020A060002020600020E0600023A4
:104EF00000220021200000F011F810BDF8B50400D8
:104F0000012600272200D2B239003000FFF7A1FFAE
:104F100005002800FFF7E1FF2800F2BD2DE9F74367
:104F200080460D00994600244646002E07D15020A9
:104F300080F31188BFF34F8FBFF36F8FFEE7002D13
:104F400002D1306C002801D1012000E00020C0B265
:104F5000002807D1502080F31188BFF34F8FBFF393
:104F60006F8FFEE7B9F1020F02D1F06B012801D17A
:104F7000012000E00020C0B2002807D1502080F3BB
:104F80001188BFF34F8FBFF36F8FFEE7FCF7ADFBC8
:104F9000002802D10298002801D1012000E0002061
:104FA000C0B2002807D1502080F31188BFF34F8F83
:104FB000BFF36F8FFEE7FDF7C9FBB06BF16B884263
:104FC00002D3B9F1020F27D14A462900300000F080
:104FD0007EFA0700706A00280FD016F12400FCF753
:104FE000B5F9002814D05FF08050DFF8C8140860CD
:104FF000BFF34F8FBFF36F8F0AE0002F08D05FF031
:105000008050DFF8B0140860BFF34F8FBFF36F8F8D
:10501000FDF7B6FB012052E00298002803D1FDF70E
:10502000AFFB00204BE0002C04D16846FCF7D1F91F
:1050300001200400FDF7A4FBFBF772FFFDF786FBE0
:1050400096F9440010F1010F02D1002086F84400C7
:1050500096F9450010F1010F02D1002086F84500B5
:10506000FDF78EFB02A96846FCF7BCF9002820D1A9
:10507000300000F0DAFA002815D0029916F110007D
:10508000FCF723F9300000F08BFAFBF772FF0028E1
:1050900091D15FF08050DFF81C140860BFF34F8F90
:1050A000BFF36F8F87E7300000F07AFAFBF761FFFC
:1050B00081E7300000F074FAFBF75BFF0020BDE8E9
:1050C000FE832DE9F84F07000C00150098463E00BE
:1050D000002E07D1502080F31188BFF34F8FBFF30C
:1050E0006F8FFEE7002C02D1306C002801D1012027
:1050F00000E00020C0B2002807D1502080F31188C2
:10510000BFF34F8FBFF36F8FFEE7B8F1020F02D1ED
:10511000F06B012801D1012000E00020C0B200287E
:1051200007D1502080F31188BFF34F8FBFF36F8FEB
:10513000FEE7FDF74FFBEFF31189502080F3118854
:10514000BFF34F8FBFF36F8FB06BF16B884202D309
:10515000B8F1020F22D196F945A0D6F838B04246F0
:105160002100300000F0B3F950465FF0FF3140B24B
:1051700088420DD1706A002809D016F12400FCF78E
:10518000E5F8002803D0002D01D00120286003E0BD
:105190001AF1010086F84500012000E0002089F3A3
:1051A0001188BDE8F28F2DE9F64182B080460E00ED
:1051B00000244746002F07D1502080F31188BFF309
:1051C0004F8FBFF36F8FFEE7002E02D1386C00289F
:1051D00001D1012000E00020C0B2002807D15020FA
:1051E00080F31188BFF34F8FBFF36F8FFEE7FCF79B
:1051F0007CFA002802D10398002801D1012000E0A8
:105200000020C0B2002807D1502080F31188BFF3DE
:105210004F8FBFF36F8FFEE7FDF798FABD6B002D40
:105220001BD03100380000F0A0F9681EB86338695F
:1052300000280ED017F11000FCF788F8002808D0DD
:105240005FF08050DFF86C120860BFF34F8FBFF340
:105250006F8FFDF795FA012057E00398002803D1DE
:10526000FDF78EFA002050E0002C04D16846FCF7D0
:10527000B0F801200400FDF783FAFBF751FEFDF7BB
:1052800065FA97F9440010F1010F02D1002087F868
:10529000440097F9450010F1010F02D1002087F872
:1052A0004500FDF76DFA03A96846FCF79BF8002856
:1052B00020D1380000F0ABF9002815D0039917F180
:1052C0002400FCF702F8380000F06AF9FBF751FE01
:1052D0000028A1D15FF08050DFF8D8110860BFF33B
:1052E0004F8FBFF36F8F97E7380000F059F9FBF746
:1052F00040FE91E7380000F053F9FBF73AFE380022
:1053000000F085F9002887D0002004B0BDE8F081C6
:105310002DE9F34182B08046002447460025002F46
:1053200007D1502080F31188BFF34F8FBFF36F8FE9
:10533000FEE7386C002807D0502080F31188BFF3B7
:105340004F8FBFF36F8FFEE7FCF7CFF9002802D134
:105350000398002801D1012000E00020C0B20028FD
:1053600007D1502080F31188BFF34F8FBFF36F8FA9
:10537000FEE7FDF7EBF9BE6B002E1CD0701EB86384
:105380003868002802D1FCF7B7FAB86038690028FD
:105390000DD017F11000FBF7D9FF002807D05FF000
:1053A000805044490860BFF34F8FBFF36F8FFDF704
:1053B000E7F901207AE0039800280DD1002D07D0ED
:1053C000502080F31188BFF34F8FBFF36F8FFEE73C
:1053D000FDF7D6F9002069E0002C04D16846FBF700
:1053E000F8FF01200400FDF7CBF9FBF799FDFDF76D
:1053F000ADF997F9440010F1010F02D1002087F8B0
:10540000440097F9450010F1010F02D1002087F800
:105410004500FDF7B5F903A96846FBF7E3FF00284F
:105420002AD1380000F0F3F800281FD0386800288F
:1054300007D1FDF78BF9B868FCF76AF90500FDF7AD
:105440009FF9039917F12400FBF73FFF380000F0A4
:10545000A7F8FBF78EFD00288BD15FF0805015492F
:105460000860BFF34F8FBFF36F8F82E7380000F003
:1054700097F8FBF77EFD7CE7380000F091F8FBF72A
:1054800078FD380000F0C3F800283FF472AF002D1B
:105490000BD0FDF75BF9380000F00EF80600310084
:1054A000B868FCF7C5F9FDF76BF9002004B0BDE85A
:1054B000F081000004ED00E00100486A002804D0FB
:1054C000086B0068D0F1380000E0002070472DE93B
:1054D000F84F06000F0014005FF00008B56B306C49
:1054E000002809D1306800283AD1B068FCF758F993
:1054F00080460020B06033E0002C14D1D6F84090F4
:10550000BA46D6F804B04A465146584602F034FC32
:105510007068316C084470607068B16888421FD34D
:10552000306870601CE0D6F84090BA46D6F80CB0EF
:105530004A465146584602F01FFCF068316C494219
:105540000844F060F0683168884204D2B068316C79
:1055500049420844F060022C02D1002D00D06D1E9B
:10556000681CB0634046BDE8F28F2DE9F0410400AD
:105570000D00206C002811D0E068216C0844E06028
:10558000E068A168884201D32068E060266CE76883
:10559000A84632003900404602F0EEFBBDE8F0813B
:1055A000F8B50400FDF7D2F894F94550280040B250
:1055B00001280CDB606A002809D014F12400FBF7F5
:1055C000C5FE002801D0FBF754FF6D1EEEE75FF02B
:1055D000FF3684F84560FDF7D3F8FDF7B7F894F986
:1055E0004470380040B201280CDB2069002809D043
:1055F00014F11000FBF7AAFE002801D0FBF739FFD9
:105600007F1EEEE784F84460FDF7BAF8F1BD38B5C7
:105610000400FDF79BF8A06B002801D1012500E0F4
:105620000025FDF7ADF8280032BD38B50400FDF7C0
:105630008DF8A06BE16B884201D1012500E00025C7
:10564000FDF79EF8280032BD10B40023082B0CD2C1
:10565000074C54F83320002A05D144F8331004EBEA
:10566000C302506001E05B1CF0E710BC7047000013
:10567000C0250020F8B504000D0016002700FDF736
:1056800065F897F9440010F1010F02D1002087F866
:10569000440097F9450010F1010F02D1002087F86E
:1056A0004500FDF76DF8B86B002805D132002900E0
:1056B00017F12400FBF72AFE3800FFF771FFF1BD58
:1056C000F8B504000D0016001F00FCF70AF8DFF81B
:1056D000E01141F82400DFF8DC0140F82450DFF845
:1056E000D8010655DFF8D40140F82470F1BD01005F
:1056F000DFF8C00150F82100002801D13BA0FFE7EE
:10570000704738B50024FBF7ECFF050000200228A5
:1057100007DADFF89C1151F82010A94206D0401C8E
:10572000F5E7DFF89C0100F060FF200032BDF8B51E
:1057300006000C00002C01D10120040014F1010F1F
:1057400002D15FF0FF300400DFF8640150F826005A
:10575000002801D1012023E0300002F061FBDFF8D6
:105760006471FCF74FFC00250019694107EBC60284
:10577000C2E9000121000020FCF7C9F8002801D18E
:10578000012500E000250020002107EBC602C2E948
:105790000001300002F06FFB95F001052800C0B257
:1057A000F2BD38B50400DFF8081151F824000028D4
:1057B0000BD051F82450FBF794FF854205D000230D
:1057C000022200212800FCF7E7F831BD10B50400E3
:1057D000DFF8DC2052F82400002804D0002152F821
:1057E0002400FCF76DF910BD00000000000000006F
:1057F0002DE9F0412DED028B8CB0DFF8CC0000F0EC
:10580000A6FE0027022F48DADFF8A40050F8276030
:10581000002E40D00523012202A93000FBF7D2FE62
:10582000DFF89880BDF82800800002F069FB0400D2
:105830000D0058F8270002F063FB02000B00200067
:10584000290002F06BFB41EC180B53EC182B0020E5
:10585000DFF8781002F086FCCDE9000158F8273017
:10586000BDF8280082000399DFF8640000F06FFEA5
:10587000BDF828007D280ED20024082C0BDADFF8B2
:10588000540000F08DFE042C03D1DFF84C0000F032
:1058900087FE641CF1E77F1CB4E704A000F057FE0C
:1058A0000CB0BDEC028BBDE8F08100000A000000E6
:1058B0007028002078280020A829002080280020B7
:1058C00044070008F0270020540700080000594052
:1058D0006407000888070008C00700082DE9F041A8
:1058E0000400DFF804050460DFF80055802200237F
:1058F00015F10800FDF7B0FD4022002315F130003E
:10590000FDF7AAFDDFF8E8548022002315F1080016
:10591000FDF7A2FD4022002315F13000FDF79CFDAC
:10592000DFF8D0548022002315F10800FDF794FD24
:105930004022002315F13000FDF78EFDDFF8B8544A
:105940000FF2411843464FF41672DFF8B0142800E6
:1059500002F09DFD4FF41651002002F0ACFEDFF87E
:10596000A06443464FF41672DFF89814300002F03A
:105970008EFD5FF4E13002F0F4FE0FF22D313000C5
:1059800000F083FEDFF8807443464FF41672DFF8B0
:105990007C14380002F07BFD4FF41651002002F019
:1059A00043FF5FF00008B8F10A0F11DADFF8601466
:1059B000280000F06DF9DFF85C14300000F068F9A1
:1059C000DFF85414380000F063F918F10108EAE731
:1059D000BDE8F081F8B5DFF80C14087800280FD086
:1059E00000200870DFF834040078800608D503F042
:1059F000D3F9002802D002F0BCFE01E002F0E8FE7C
:105A000000250027DFF8F8633C00E4B2300000F026
:105A10005EF80443002C01D0012700E000273C0081
:105A2000E4B2DFF8D40300F052F80443002C01D0B4
:105A3000012400E00024DFF8E8030068002806D015
:105A40000120040000220021300000F02DF9254340
:105A50002000C0B20028D4D1DFF8C8632800C0B24B
:105A6000002807D001200600FCF7CCFADFF8B823A5
:105A7000C2E900013100DFF870030068FFF757FE4C
:105A8000F1BD000038B504000D00DFF85C030168CB
:105A90004FF6FF72914202D00068FFF797FE31BDCA
:105AA0000100DFF85C03814202D1DFF844030DE01E
:105AB000DFF85403814202D1DFF8380306E0DFF853
:105AC0003803814201D1C94800E0002070477CB50D
:105AD00005002800FFF7E4FF0400002C01D100209E
